:020000040800F2
:100000000000032089050008F51B0008F71B000805
:10001000F91B0008FB1B0008FD1B00080000000086
:10002000000000000000000000000000D175000882
:10003000FF1B00080000000061760008C57600087C
:10004000D9050008D9050008D9050008D905000818
:10005000D9050008D9050008D9050008D905000808
:10006000D9050008D9050008D9050008D9050008F8
:10007000D9050008D9050008D9050008D9050008E8
:10008000D9050008D9050008D9050008D9050008D8
:10009000D9050008D9050008D9050008D9050008C8
:1000A000D9050008D9050008D9050008D9050008B8
:1000B000D9050008D9050008D9050008D9050008A8
:1000C000D9050008D9050008D9050008D905000898
:1000D000D9050008D9050008D9050008D905000888
:1000E000D9050008D9050008D9050008D905000878
:1000F000D9050008D9050008D9050008D905000868
:10010000D9050008D9050008D9050008D905000857
:10011000D9050008D9050008011C0008D905000808
:10012000D9050008D9050008D9050008D905000837
:10013000D9050008D9050008D9050008D905000827
:10014000D9050008D9050008D9050008D905000817
:10015000D9050008D9050008D9050008D905000807
:10016000D9050008D9050008D9050008D9050008F7
:10017000D9050008D9050008D905000800000000CD
:10018000D9050008D9050008D9050008D9050008D7
:10019000D9050008D9050008D9050008D9050008C7
:0C01A0000D1C0008D9050008191C0008FF
:1001B00010B5054C237833B9044B13B10448AFF3A1
:1001C00000800123237010BD6401002000000000A6
:1001D0005C09020808B5034B1BB103490348AFF3A0
:1001E000008008BD00000000680100205C090208D2
:1001F00001F0FF01102A2BDB10F0070F08D010F8D8
:10020000013B013A8B422DD010F0070F42B3F6D1DB
:10021000F0B441EA012141EA014122F007047FF0F4
:1002200000070023F0E80256083C85EA010586EA4B
:10023000010685FA47F5A3FA87F586FA47F6A5FA87
:1002400087F68EB9EED1F0BC01F0FF0102F0070293
:1002500032B110F8013B013A83EA010313B1F8D13E
:100260000020704701387047002D06BF354603381F
:10027000073815F0010F07D1013015F4807F02BF58
:10028000013015F4C03F0130F0BC0138704700BFA9
:1002900053B94AB9002908BF00281CBF4FF0FF31ED
:1002A0004FF0FF3000F06EB9ADF1080C6DE904CEEF
:1002B00000F006F8DDF804E0DDE9022304B0704741
:1002C0002DE9F047089D04468C46002B40F08380C2
:1002D0008A42174647D9B2FA82F242B1C2F12000EF
:1002E00024FA00F09140974040EA010C94404FEA14
:1002F0001748230CBCFBF8F61FFA87FE08FB16C153
:1003000043EA014306FB0EF1994209D9FB1806F1B5
:10031000FF3080F01981994240F21681023E3B4441
:100320005B1AA4B2B3FBF8F008FB103344EA0344B1
:1003300000FB0EFEA64509D93C1900F1FF3380F001
:100340000581A64540F2028102383C4440EA06405D
:10035000A4EB0E0400261DB1D4400023C5E90043E0
:100360003146BDE8F08702B9FFDEB2FA82F2002A18
:1003700050D1CB1B4FEA174E1FFA87F80126B3FB6B
:10038000FEFC210C0EFB1C3341EA034108FB0CF37D
:100390008B4207D979180CF1FF3002D28B4200F260
:1003A000E9808446C91AA3B2B1FBFEF00EFB10111E
:1003B00043EA014408FB00F8A04507D93C1900F1C5
:1003C000FF3302D2A04500F2D9801846A4EB0804FE
:1003D00040EA0C40BFE78B4209D9002D00F0B18004
:1003E0000026C5E9000130463146BDE8F087B3FA82
:1003F00083F6002E4AD18B4202D3824200F2B880AB
:10040000841A61EB030101208C46002DA8D0C5E9B8
:10041000004CA5E7C2F1200320FA03F6974001FA49
:1004200002F04FEA174ED9403043030CB1FBFEF601
:100430001FFA87F80EFB161143EA014306FB08F189
:10044000994204FA02F409D9FB1806F1FF3C80F046
:100450008D80994240F28A80023E3B445B1A81B211
:10046000B3FBFEF00EFB103341EA034100FB08F33F
:100470008B4207D9791800F1FF3C73D28B4271D9B6
:1004800002383944CB1A40EA064678E7C6F1200C18
:1004900003FA06F422FA0CF31C4320FA0CF701FAD3
:1004A00006F34FEA144E21FA0CF11F433B0CB1FB4B
:1004B000FEF91FFA84F80EFB191143EA014109FB0A
:1004C00008FA8A4502FA06F200FA06F308D961181A
:1004D00009F1FF3048D28A4546D9A9F102092144E1
:1004E000A1EB0A01BFB2B1FBFEF00EFB101147EA0F
:1004F000014700FB08F8B84507D9E71900F1FF31BB
:100500002ED2B8452CD90238274440EA0940A7EB3F
:100510000807A0FB02894F45C64649461AD317D0A3
:100520005DB1B3EB0E0267EB010707FA0CFCF2407A
:100530004CEA0202F740C5E9002700263146BDE833
:10054000F0872E4628460BE70646E9E61846FDE604
:100550004345E5D2B8EB020E69EB04010138DFE751
:100560000846D2E760468DE78146B9E7664675E7FB
:1005700030464AE7ACF1020C394413E702383C44F8
:1005800024E700BF704700BFDFF834D0002103E04C
:100590000C4B5B58435004310B480C4B42189A42A9
:1005A000F6D30B4A02E0002342F8043B094B9A427F
:1005B000F9D304F0B5F91FF0A1F900F021FE70475E
:1005C000000003204C910808000000206401002076
:1005D0006401002028350120FEE700F027BC00F070
:1005E00095BC704710B5042104461FF00EF9204653
:1005F00010BD000038B50C4B0C4C18800C4B822001
:1006000019806368984740F6110398420AD1094D52
:1006100023682C60822098472B688220DB689847EB
:10062000002038BD0120FCE7800100204C000020A4
:1006300082010020840100204FF4A071F020FFF718
:10064000D9BF0000F7B52D4D2B6804461B698220E9
:10065000984780B22080002843D02B680DF1060215
:100660005B6901A982209847BDF80620A2F5B47203
:1006700092B20A2A37D90B23B2FBF3F2204B1B8824
:100680009A4201D95A1E92B2BDF8043040F6B831F0
:100690008B422AD8C3F571630E339BB20F21B3FB93
:1006A000F1F3184909888B4201D94B1E9BB2164EB3
:1006B000164D30682F68834281B28CBF591AC91A0F
:1006C000B8B2BA428CBF101A801A89B280B2014403
:1006D0000529C8BF33603368C8BF2A6063802B68B0
:1006E000A38003B0F0BD0022CEE7C3F56D630833ED
:1006F0009BB20E2BD2D80023D9E700BF8401002083
:100700008201002080010020880100208C0100204F
:1007100037B568460D461446FFF794FFBDF8000054
:1007200048B1BDF802302B60BDF80430C3F59F73AB
:1007300001332360012003B030BD7047704770471C
:10074000012380F8741080F87530704700207047DE
:1007500000207047836B0BB10846184770474FF66F
:10076000FF707047406803689B691847704770477F
:10077000704708B5036804469B6E98472368204677
:100780001B6E984700F0DAF8236820469B6D984767
:10079000292000F065FF00F0D1F8236820469B6D0A
:1007A0009847F8E710B504460AF07AFF2368204618
:1007B000D3F89030BDE81040184700F03BBC00F083
:1007C0003FBC00F045BC00F011BC00F045BC00F09F
:1007D0004DBC00F015BC000008B531B90A4B0B4AFE
:1007E0000B4840F26B211FF03FF8C0E90F12003AAE
:1007F0000849436418BF01220A70003B064A18BF2B
:100800000123137008BD00BFD40902080C0A0208B6
:100810005A0A020802300120033001200AF0BAB956
:1008200010B57C2104461EF0F0FF204610BD90F864
:1008300077301BB1406803681B681847184670473B
:1008400030B590F8341090F87440104B8C421A7800
:100850000DD05AB90E4A0F490F4814880F4D0C801D
:10086000018811802980048001221A7030BD002A7D
:10087000FCD00948074A01881180054A074D1488B1
:100880002C80118004800022EFE700BFFC2F0120A4
:10089000F82F0120FE2F0120FA2F01200030012027
:1008A00000F0F8BB012108B50022084606F066FBFF
:1008B0000A4B186028B90A4B0A4A25210A481EF03B
:1008C000D3FF00220421012006F01EFC074B186014
:1008D00018B9074B034A2921F0E708BD940100200D
:1008E0005C0B0208A50B0208D40B02089001002043
:1008F000180C0208024B4FF0FF31186806F094BB49
:1009000094010020014B186806F0C8BB9401002038
:10091000024B0021186806F087BB00BF940100203D
:10092000FFF7F0BF03480449006800231A4606F0A9
:1009300031BC00BF900100200400002013B5084C1A
:1009400000231A4601A9206806F066FC20684FF0D3
:10095000FF33002201A906F05FFC02B010BD00BF0A
:100960009001002003685B6C184700207047036803
:100970009B6A184740F2EF107047000010B5074C13
:10098000074B2360204604F0D1F8064B2361064B49
:100990006361064B4FF080629A6010BD20340120E5
:1009A00000B00240CD090008B109000800E100E0F4
:1009B00008B5034A034B044836211EF055FF00BF1B
:1009C0005A0C0208C64D02088D0C0208024B1B6827
:1009D000586803685B69184704300120084B10B55C
:1009E00003600446074804F06BF9074B4FF0806240
:1009F000C3F88820BFF34F8FBFF36F8F204610BD21
:100A0000D80C02082034012000E100E010B50446B3
:100A1000FFF7E4FF20464FF442611EF0F6FE204649
:100A200010BD0000044B1B6893F876200AB1D86C07
:100A300000B99868704700BF043001202DE9F743E2
:100A40000D68202D0C4600F09F80402D00F09C800A
:100A50002A1F56425641802D00F09880A5F58073DC
:100A60005D425D41FFF7DEFF0368DB69984723685D
:100A7000802B014600F09C8000F28A80202B00F041
:100A80009A80402B00F09780042B00F0888010297A
:100A90000CBF4FF0020C4FF0010C00224D4BB4F88C
:100AA0001080D3F800E0E78ADEF800905A60102941
:100AB00029F440390CBF02200120A7EB080749EABE
:100AC00002029860DF60CEF80020DEF83420C3F820
:100AD0002CC022F007020243CEF83420DEF840207A
:100AE00022F47F5222F03F023A43CEF84020A28AFD
:100AF000A2EB08029A6206B99DB3227FFF2A15BFB6
:100B00004FF0020C4FF0000CC3E90CC2C3F830C028
:100B10000DB310294FEA026E50D1A1694FF01F08A2
:100B200001EA0802C1F3C42CC2EB0222B2FBF8F2C4
:100B300042EA0E02CCEB0C2CC1F34511BCFBF8FCD5
:100B400042EA0C42C1EB01214FF03F0CB1FBFCF13A
:100B500042EA01225A63C3E9067000211D4804F0ED
:100B60006FF91C48012104F06BF9238A628A06B9E7
:100B700045B3CDE90032E368616816481A4604F0CF
:100B80001FF803B0BDE8F083012667E7012569E798
:100B9000B3F5807F7FF47BAF4FF0090C05E01028A0
:100BA0000CBF4FF0020C4FF0010C4FF4003275E710
:100BB0004FF00A0CF9E74FF0000CF6E7A2694EEA95
:100BC0000202C7E700926168E268024803F0DAFFB8
:100BD000D7E700BF20340120F7B50D46FFF722FF0D
:100BE0000368DB6998471028297F68D1AA6902F059
:100BF0001F03C3EB03231F20B3FBF0F4C2F3C42392
:100C000044EA0164C3EB0323C2F34512B3FBF0F3E0
:100C100044EA0344C2EB02223F230221B2FBF3F277
:100C200044EA02242B682848EE8A0268082B2B8AA3
:100C3000A6EB03061368C6600CBF4FF400374FF4F1
:100C4000403723F440333B43C0E901711360536BD9
:100C500023F007030B435363136C23F47F5323F0F8
:100C60003F033343B7F5003F13641CD10123C0E9B0
:100C70000C340923C0E90661C362002104F0E0F8E6
:100C80000121114804F0DCF8B7F5003F2A8A698A8F
:100C90000DD1EB680C48CDE900211A46194603F046
:100CA0008FFF03B0F0BD0023C1628362E8E70091CB
:100CB00013462146EA68044803F064FFF1E7AC6993
:100CC00044EA01640121ADE72034012070B50446F7
:100CD00025460A4B0C30002660602672667245F885
:100CE000203B602229460AF00BFE04F54263AE6108
:100CF0002035AB42FBD1204670BD00BFD80C0208A6
:100D00000120704754207047542303FB0100083032
:100D10007047542303FB01000830704701207047DF
:100D200041F24810704741F2481303FB01000830BC
:100D3000704741F2481303FB01000830704701205F
:100D400070471020704700EB01100830704700EB2F
:100D5000011008307047084601F05EB910B5034B2A
:100D60000360044608F026FA204610BD900D0208E4
:100D700010B50446FFF7F2FF20465C211EF045FD4A
:100D8000204610BD10B5034B0360044608F012FA6C
:100D9000204610BD5C0D020810B50446FFF7F2FFB7
:100DA000204641F250111EF030FD204610BD0000DB
:100DB00010B5034B0360044608F0FCF9204610BD53
:100DC000280D020810B50446FFF7F2FF204618214F
:100DD0001EF01BFD204610BD10B5094B03600446F4
:100DE00000F58B501C30FFF7B9FF04F12C00FFF722
:100DF000C9FF04F11400FFF7DBFF204610BD00BF60
:100E0000C40D020808B50248FFF7E6FF08BD00BFA1
:100E10009C01002010B50446FFF7DEFF204641F29A
:100E200034311EF0F2FC204610BD00002DE9F341E4
:100E300000F06EFF054600F06FFF002401462346D8
:100E400028462246009411F0B5FA244B244A254D39
:100E50001A60204603F0D4F8234811F0EDF92B78FE
:100E6000BFF35B8FDB0733D428461EF0D0FC78B38A
:100E70001E4C1F4F1F4B236007F1600604F1140046
:100E800004F12C086060C4F80880E760266108F06F
:100E900093F9194B6361404608F08EF9174BE362F2
:100EA000384608F089F9164B3B6007F15C0003F007
:100EB000A1F9224607F15C01304603F019F93046EA
:100EC00001F0AAF828461EF0AEFC0E481EF0EAFC1F
:100ED0000D4802B0BDE8F041FFF7E2BC80300120D0
:100EE0007021002098010020080000209C010020B3
:100EF00018130020C40D0208280D02085C0D02081A
:100F0000900D0208050E0008F42000200148FFF7AC
:100F100030BC00BFF420002070B5244C244E254B7B
:100F2000254D23603046FFF7D1FE284614F0CEFA57
:100F3000224B2348DC600022C3E9190221481A85AC
:100F40000360214883F82A20C3E90165F0241F4D7E
:100F500004804FF4A0704FF4807128801C4DA3F8DA
:100F60004810A3F876100121C3E90422C3E9062240
:100F7000C3E90822C3E90E22C3E91022C3E9132200
:100F8000DA621A8683F84A205A6583F86C201A6759
:100F900083F8752083F878102A700E4A83F834108D
:100FA00014800D4A10800D4A1A6070BDD0140020C4
:100FB000D4140020C409020874210020F420002069
:100FC0000100000104300120F82F0120FA2F012038
:100FD000FC2F0120FE2F012000300120A80A02086A
:100FE0000148FFF7FBBC00BFD4140020034B902244
:100FF00083F85A2383F85823704700BF00E100E0CC
:10100000094A0A49D3680A48C3F30A03013B9BB261
:101010000B801169C1F30A01013901801364536B1C
:1010200043F001035363704700680140EE21002044
:10103000EC210020014B986A704700BF8468014092
:10104000024B0122996243F8602C7047846801408A
:1010500009F0A6BD09F0CBBE034B4FF080629A6049
:101060004FF080729A60704700E100E0084B4FF04B
:101070008062C3F88820BFF34F8FBFF36F8F4FF0AC
:101080008072C3F88820BFF34F8FBFF36F8F704714
:1010900000E100E070B504460AF07AF82368DD6CE0
:1010A0000EF016F801462046A8472368044A1D6F33
:1010B0002046AC460023BDE87040A2F516316047DB
:1010C000005802D0134B144A1B6C11888B4210B588
:1010D000124C13D1124B198804F0BEFD226892F80D
:1010E0006630013382F86630FFF71CFC20680AF096
:1010F000D7FABDE810400020FFF71FBB04F0ACFD9D
:101100000020FFF71BFB20680368BDE810409B69C7
:10111000184700BF00680140EE2100200430012084
:10112000EC21002007B5064BADF806001B6805480A
:1011300001220DF1060105F08EFA03B05DF804FB03
:101140001000002014330120F0B5A1B010220021BE
:101150000AA81EF015FC1422002103A81EF010FCA2
:101160000021302214A81EF00BFC0024224B019415
:101170001A6C42F080521A641B6C03F08053019386
:10118000019B1E4B02941A6842F440421A601B688D
:1011900003F4404302930122029B4FF48033CDE9D4
:1011A000082302254FF48003CDE90E5308274FF49E
:1011B000A873042608A8CDE910731295139604F0BD
:1011C00069FD0F23CDE903354FF4A0514FF480534F
:1011D000CDE9061303A80521059404F031FFC023CF
:1011E000189314A84FF4003314971A961D9304F023
:1011F000F1FF21B0F0BD00BF003802400070004098
:1012000080B5A4B003F09AFBFFF79EFF14220021E3
:1012100017A800241EF0B4FBC04B01941A6BC04801
:10122000C04D42F020021A631A6B02F020020192B4
:10123000019A02941A6B42F080021A631A6B02F050
:1012400080020292029A03941A6B42F004021A631B
:101250001A6B02F004020392039A04941A6B42F090
:1012600001021A631A6B02F001020492049A0594B7
:101270001A6B42F002021A631A6B02F00202059224
:10128000059A06941A6B42F040021A631A6B02F038
:1012900040020692069A07941A6B42F010021A63F3
:1012A0001A6B02F010020792079A08941A6B42F028
:1012B00008021A631B6B03F00803089322460421FB
:1012C000089B03F0EBFE224697484FF4405103F091
:1012D000E5FE012602274FF004089148199417A94A
:1012E000CDE917861A9703F0EFFD17A94FF4405385
:1012F0008D48CDE91736CDE9194703F0E5FD8B4858
:101300008B4B036003F0C0FB8A4A8B4B2C62C5E910
:10131000002328464FF48043C5E90434C5E902445C
:10132000C5E9064404F09CF81021284604F0D8FAD8
:101330002146284604F0F3FA8048814984624FF43C
:101340008273C0E900134FF400751823C0E90653F7
:101350000A237C4DC362C0E90244C0E90444C0E9E9
:10136000084405F03BF9784B17974FF0100CC5E98E
:1013700000364023C5E904C34FF4C073C5E9063401
:101380004FF40063C5E908344FF40053AB624FF0EB
:10139000030A072317A92846CDE918381A934FF0F6
:1013A0000809C5E90248CDE91BA71D9705F03CF8DF
:1013B0004FF6FF720AA92846CDE90B9609940A96C2
:1013C0000D9405F051F8304603F0E4FA4FF6FF7241
:1013D0000AA92846CDE90A79CDE90C6405F044F85C
:1013E0004FF6FF720AA92846CDE90AA9CDE90C8477
:1013F00005F03AF84FF40C730993099B0D934FF6DF
:10140000FF720AA92846CDE90A890C9605F02CF846
:1014100040F26A51284605F03EF8342221460AA8D7
:101420001EF0AEFA3422214617A81EF0A9FA474D45
:10143000474BAC86C5E900340923C5E905361D23B1
:1014400040F20D1EC5E9073A40F24313C5E909E32E
:1014500040F2171840F247132846C5E90B83C5E947
:1014600002442C6185F8364004F0FEFAF022FF2198
:101470004FF4A073CDE90B24CDE90F14CDE913424D
:101480004FF480694FF0050822460AA92846CDE9A5
:101490000D371593CDE911980A94ADF858408DF8A1
:1014A0005A4004F0ACFB324617A92846CDE9174450
:1014B000284D2294CDE91944CDE91C44CDE91E986C
:1014C000CDE92044ADF88C408DF88E4004F097FBB8
:1014D000214B2B601B6898472B68204DDB68984791
:1014E0001F4BC5E90A47C5E90C442846C5E9003445
:1014F000C5E9027403F01AFB3146284603F0A0FC4C
:10150000FFF76BF805F0AAFC164A1748214605F0CC
:10151000DFFC164B186005F0BBFCFEE7003802400C
:1015200000080240C0320120000C02406C33012050
:1015300000300240005C0040A0860100143301200E
:101540000050014060340120400100A074330120AC
:1015500000680140F0210020140000202034012008
:1015600000B00240DC0D0208DF0500081C34012039
:10157000704770477FB5094B8DF817201B680293A1
:101580000DF117020123009201930A460146044817
:1015900004F00EF807B05DF804FB00BF0C0000205B
:1015A000C03201207FB500238DF81730084B1B682F
:1015B00002930A4601230DF11701009101930146A0
:1015C000044804F085F89DF8170007B05DF804FBA7
:1015D0000C000020C03201201FB5084C2468009286
:1015E000CDE901340A4601230146054804F070F8AC
:1015F000003818BF012004B010BD00BF0C0000204F
:10160000C032012003F0C6B908B506480022042103
:1016100003F044FDBDE8084002480122042103F024
:101620003DBD00BF0008024038B50B4D0446012205
:101630000A484FF4005103F031FD002204212846EE
:1016400003F02CFD2046FFF76DFD28460122BDE882
:101650003840042103F022BD00080240000C024083
:1016600038B50B4D044600220A484FF4005103F0F0
:1016700015FD00220421284603F010FD2046FFF747
:1016800051FD28460122BDE83840042103F006BD83
:1016900000080240000C0240F7B5144E144F0546F6
:1016A0000C4630460022042103F0F8FC00224FF4DF
:1016B0000051384603F0F2FC2846FFF733FD0D4B8E
:1016C0000D481B68224601A905F058F93846012249
:1016D0004FF40051019C03F0E1FC3046012204214B
:1016E00003F0DCFC204603B0F0BD00BF0008024060
:1016F000000C0240100000201433012003F04AB90E
:101700000268034B9A4201D103F032B9704700BF1F
:101710000010004082B00E4B00220092596C41F440
:1017200080415964596C01F4804100910099019203
:10173000196C41F0805119641B6C03F080530193C4
:10174000019B0F216FF0010002B003F049B900BF07
:10175000003802400268094B9A4282B00BD1002344
:101760000193074B1A6B42F480521A631B6B03F40C
:1017700080530193019B02B0704700BF00300240CC
:101780000038024007B50F4B02689A4216D100227A
:10179000A3F5F0430192196B41F4000119631B6B2F
:1017A00003F40003019305215A20019B03F018F96B
:1017B0005A2003B05DF804EB03F044B903B05DF8C0
:1017C00004FB00BF00B002400268064B9A4207D1FA
:1017D000054A136B23F4000313635A2003F040B946
:1017E000704700BF00B00240003802402DE9F043CE
:1017F000044689B01422002103A81EF0C1F8226813
:10180000244B9A4243D1244C244800250095236B55
:1018100043F004032363236B03F004030093009B52
:101820000195236B43F001032363236B03F0010352
:101830000193019B4FF012094FF400734FF0010820
:101840000327042603A9CDE90339CDE905870796C7
:1018500003F03AFB4FF480731148079603A9CDE9D2
:101860000339CDE9058703F02FFB0295236C43F480
:1018700000032364236C03F400030293029B236A96
:1018800043F400032362236A23F40003236209B0B4
:10189000BDE8F083005C00400038024000080240D0
:1018A00000000240F0B504468DB01422002107A8C4
:1018B0001EF066F82268574B9A4240F0A98003F563
:1018C0005043002400945A6C534842F080625A649A
:1018D0005A6C02F080620092009A01941A6B42F0F6
:1018E00020021A631A6B02F020020192019A0294FC
:1018F0001A6B42F001021A631A6B02F001020292A3
:10190000029A03941A6B42F002021A631A6B02F0F5
:1019100002020392039A04941A6B42F040021A6383
:101920001A6B02F040020492049A05941A6B42F07A
:1019300004021A631A6B02F004020592059A0694D7
:101940001A6B42F008021A631B6B03F0080306933C
:1019500002250E26069B0B964FF4806307A9CDE95E
:101960000735CDE9094503F0AFFA41F658032B4896
:101970000B9607A9CDE907350927CDE9094503F0FD
:10198000A3FA032326480B9707A9CDE90735CDE92C
:10199000094503F099FA4FF4706321480B9607A9A3
:1019A000CDE90735CDE9094503F08EFA4FF40C6314
:1019B0001C480B9607A9CDE90735CDE9094503F089
:1019C00083FAC02318480B9607A9CDE90735CDE95E
:1019D000094503F079FA082314480B9607A9CDE9C5
:1019E0000735CDE9094503F06FFA4FF4A0530D48D0
:1019F0000B9707A9CDE90735CDE9094503F064FA4E
:101A000058202246052102F0EBFF582003F01AF877
:101A10000DB0F0BD0068014000140240000002401B
:101A2000000402400018024000080240000C02407E
:101A300010B5044688B01422002103A81DF0A0FFB1
:101A40002268154B9A4224D103F568430022019283
:101A5000596C41F480115964596C01F48011019161
:101A600001990292196B41F0200119631B6B0592D9
:101A700003F0200302934FF46071029B0223CDE92F
:101A8000031303200523CDE9060303A9034803F04C
:101A90001BFA08B010BD00BF005001400014024006
:101AA0002DE9F0412C4B1C6886B0002C50D14FF032
:101AB0000108C3F80080294B00949A6B284842EA39
:101AC00008029A639B6B039403EA080300930227BE
:101AD00003260C25009B01A94FF63F03CDE90137F2
:101AE000CDE9046503F0F0F91E48059501A9CDE99B
:101AF0000187CDE9034603F0E7F948F233131A48AA
:101B0000059501A9CDE90137CDE9034603F0DCF9DC
:101B10004FF683731548059501A9CDE90137CDE945
:101B2000034603F0D1F94CF203731148059501A95E
:101B3000CDE90137CDE9034603F0C6F960230D482E
:101B4000059501A9CDE90137CDE9034603F0BCF9BC
:101B500006B0BDE8F08100BFF4210020003802404B
:101B60000014024000080240001802400010024029
:101B7000000C02400004024030B5014689B000224A
:101B8000362002F02DFF362002F05CFF0025154BB9
:101B900002951A6C144C42F010021A641B6C03F08C
:101BA0001003029301A903A8029B04F0F5FA04F0C4
:101BB000E3FA0E4B236040F2E733E36040000C4B46
:101BC000B0FBF3F00138606020462561A56005F0A8
:101BD00089F820B9204604F069FF09B030BD012022
:101BE000FBE700BF003802409434012000100040A1
:101BF00040420F007047FEE7FEE7FEE7FEE7704752
:101C0000014804F067BF00BF94340120014803F08D
:101C100099BF00BF74330120014803F087B800BFAB
:101C2000203401200120704708B51DF04FFE162317
:101C300003604FF0FF3008BD08B51DF047FE1623C6
:101C40000360FEE770B50E4614460025A54201DB91
:101C5000204670BDAFF3008070550135F6E770B5D2
:101C60000E4614460025A54201DB204670BD705D7E
:101C7000AFF300800135F6E74FF0FF3070474FF4C7
:101C800000534B60002070470120704700207047D0
:101C900008B50A4B1968024609B90949196018685C
:101CA000694602448A4206D91DF010FE0C230360E7
:101CB0004FF0FF3008BD1A60FCE700BFF82100209C
:101CC00028350120704710B5042104461DF09DFD04
:101CD000204610BD08B5042918D8DFE801F0030735
:101CE0000B0F130002F0D8F9006808BD02F0D4F918
:101CF0004068FAE702F0D0F98068F6E702F0CCF924
:101D0000C068F2E702F0C8F90069EEE70020ECE7EE
:101D100000487047140E02080820704713B50024CD
:101D200051B1036801948DF8034001AA9C680DF13C
:101D30000303A04702B010BD0846FBE74089704787
:101D4000808970478088704783798088184480B282
:101D50007047C07900F07F007047C079C0097047B4
:101D6000704710B5082104461DF04FFD204610BDF8
:101D7000704700F596730868496803C37047704759
:101D80007047416070477047012303727047704786
:101D9000034610B49A6B8A42084608D00A68B3F921
:101DA0005010146D002223465DF8044B18475DF86F
:101DB000044B704770477047704700000B68084637
:101DC00002491B6DB1F9001000221847F82F0120BD
:101DD00030B4C26844685510034604EB6200D20771
:101DE00048BF62599B6830BC48BFD3581847436806
:101DF0002BB183682BB9C06800F00100704718460A
:101E000070470120704710B4C268416854100346FF
:101E100001EB6200D20748BF0A599B685DF8044B8A
:101E200048BFD358184743682BB183682BB9C068A3
:101E300000F001007047184670470120704710B548
:101E40000C2104461DF0E1FC204610BD10B5102108
:101E500004461DF0DAFC204610BD10B54FF4AC71FD
:101E600004461DF0D2FC204610BD10B55421044696
:101E70001DF0CBFC204610BD10B5102104461DF00E
:101E8000C4FC204610BD10B50DF022F90368BDE872
:101E900010401B6B18470000054B1B7801462BB107
:101EA000406818B103680C311B6E1847704700BFBB
:101EB000033001201F4B1B7810B5044613B90123D2
:101EC000037210BD90F84D0094F84C300130C0B250
:101ED000984284F84D0024D8B4F94E2000210EF029
:101EE0002DFE10F0010283B221D04FF6FF710028C1
:101EF000D8BF0A461344A4F85030B4F85010238ACF
:101F0000C91A09B2A4F8501004F10C0000220EF016
:101F1000B2F86068036804F13C015B6FBDE81040F3
:101F2000184701232372002384F84D30C9E7A4F831
:101F30005000E2E70330012010B50446D0F83C0120
:101F400058B10368DB68984738B1D4F83C0103689E
:101F50009B6898470023C4F83C3110BD1FB50C4B5B
:101F60001B7804468BB10B4B1C22CDE900300123BA
:101F7000CDE902234068036869465B6F9847606853
:101F8000036804F10C01DB6D984704B010BD00BF7D
:101F900003300120C0160208F8B5044617460E4665
:101FA0000DF0FEF8104B0025C4E954760F4E1C606E
:101FB000C4E952550E4B306823600E4BC4E95035CE
:101FC000036801219B68C4E94E559847284602F0F2
:101FD00017F8336893F876200AB1D86C00B998687E
:101FE00014F0D5FE2046F8BD7030012004300120E9
:101FF0005816020840160208064BC0F84831002364
:10200000C0F84C3100F5A073C0F84401C0F83C3171
:10201000704700BFC1230008064BC0F848310023B9
:10202000C0F84C3100F5A073C0F84401C0F83C3151
:10203000704700BFD9210008064BC0F84831002383
:10204000C0F84C3100F5A073C0F84401C0F83C3131
:10205000704700BF19250008064BC0F8483100231F
:10206000C0F84C3100F5A073C0F84401C0F83C3111
:10207000704700BF71260008064BC0F848310023A6
:10208000C0F84C3100F5A073C0F84401C0F83C31F1
:10209000704700BFC92700082DE9F84F0746906830
:1020A000DDF828A0994603681B6A884614469847BD
:1020B000B0F5BA7F05D2424B424AA72142481DF0F3
:1020C000D3FB606803681B6A98470F2803D83F4B0F
:1020D0003C4AA821F2E7E06803681B6A98470B288E
:1020E00003D83B4B374AA921E8E70CF0F1FF0DF08C
:1020F0003DF8D9F8000010B10368DB689847D9F8BB
:10210000000010B103681B689847386810B1036875
:102110005B699847D8F8000010B103685B6898477E
:10212000386810B103681B689847D8F8000010B1F0
:1021300003689B689847E068036800215B6A9847DA
:102140004FF0000B234B03600546C0F804B080F845
:1021500008B0A068036859465B6A9847064601F0D4
:10216000F9FF6068036859465B6A98473146044640
:1021700001F0D6FFC9F80050C8F800403E60E4B155
:10218000231DCAF800303368C4F808A03046DB6865
:10219000F4639847236820461B68984729463046D1
:1021A0000EF085FC2B6828461B6998472B6828464B
:1021B0005B6998472046BDE8F88F2346E1E700BFFA
:1021C000C40E0208520F02085010020897100208AD
:1021D0003A1102089C16020807B5D0F85431009352
:1021E000D0F85021044B00F59C710448FFF754FFD0
:1021F00003B05DF804FB00BF6430012060300120B3
:1022000003685B6A184700002DE9F0410546002687
:102210001A4B4660067245F80C3B044628460F46AA
:102220000AF0DAFC164BA563C4E90F34202201231F
:10223000C4E91123134B84F84C701B7884F84D606B
:10224000A4F85060B3B1104B104FB3F90080E368AD
:10225000B7F900105B6B266128469847E368414652
:102260009B6B2846984728460AF031FC3B885B4226
:10227000A4F84E302046BDE8F08100BFD816020811
:10228000C016020803300120FA2F0120F82F012088
:102290002DE9F04707469068DDF820A099460368CD
:1022A0001B6A884614469847B0F5047F05D23F4B19
:1022B0003F4AA7213F481DF0D7FA606803681B6AB0
:1022C00098470F2803D83C4B394AA821F2E7E06829
:1022D00003681B6A9847532803D8384B344AA9210E
:1022E000E8E70CF0F5FE0CF041FFD9F8000010B162
:1022F0000368DB689847D9F8000010B103681B68D1
:102300009847386810B103685B699847D8F80000AF
:1023100010B103685B689847386810B103681B68A0
:102320009847D8F8000010B103689B689847E068A8
:102330000021FFF765FF14210546FFF765FFA06840
:10234000036800215B6A9847064601F0D5FF606884
:10235000036800215B6A98473146044601F05CFF40
:10236000C9F80050C8F800403E60E4B1231DCAF827
:1023700000303368C4F808A03046DB68F46398473F
:10238000236820461B689847294630460EF08FFB8D
:102390002B6828461B6998472B6828465B69984735
:1023A0002046BDE8F0872346E1E700BFC40E0208DF
:1023B000DD11020850100208971002083A110208B5
:1023C00007B5D0F854310093D0F85021044B00F5F4
:1023D0009C710448FFF75CFF03B05DF804FB00BF8D
:1023E00064300120603001202DE9F04707469068F5
:1023F000DDF820A0994603681B6A88461446984772
:10240000B0F5BA7F05D23F4B3F4AA7213F481DF0A8
:102410002BFA606803681B6A98470F2803D83C4B67
:10242000394AA821F2E7E06803681B6A98475328F5
:1024300003D8384B344AA921E8E70CF049FE0CF0E8
:1024400095FED9F8000010B10368DB689847D9F809
:10245000000010B103681B689847386810B1036822
:102460005B699847D8F8000010B103685B6898472B
:10247000386810B103681B689847D8F8000010B19D
:1024800003689B689847E0680021FFF7B9FE1421B4
:102490000546FFF7B9FEA068036800215B6A98470C
:1024A000064601F057FE6068036800215B6A9847A2
:1024B0003146044601F034FEC9F80050C8F8004027
:1024C0003E60E4B1231DCAF800303368C4F808A0A8
:1024D0003046DB68F4639847236820461B689847BA
:1024E000294630460EF0E3FA2B6828461B699847C8
:1024F0002B6828465B6998472046BDE8F08723464D
:10250000E1E700BFC40E0208F412020850100208EE
:10251000971002083A11020807B5D0F85431009319
:10252000D0F85021044B00F59C710448FFF75CFF84
:1025300003B05DF804FB00BF64300120603001206F
:102540002DE9F04707469068DDF820A0994603681A
:102550001B6A88461446984741F24713984205D8AB
:102560003E4B3F4AA7213F481DF07EF96068036853
:102570001B6A98470F2803D83B4B394AA821F2E73A
:10258000E06803681B6A9847532803D8374B344ADE
:10259000A921E8E70CF09CFD0CF0E8FDD9F800005B
:1025A00010B10368DB689847D9F8000010B10368E0
:1025B0001B689847386810B103685B699847D8F87A
:1025C000000010B103685B689847386810B1036871
:1025D0001B689847D8F8000010B103689B689847BB
:1025E000E0680021FFF70CFE14210546FFF70CFE02
:1025F000A068036800215B6A9847064601F0F0FD79
:102600006068036800215B6A98473146044601F020
:10261000CDFDC9F80050C8F800403E60E4B1231D6C
:10262000CAF800303368C4F808A03046DB68F463A9
:102630009847236820461B689847294630460EF085
:1026400036FA2B6828461B6998472B6828465B6931
:1026500098472046BDE8F0872346E1E7C40E02080C
:102660000514020850100208971002083A110208D7
:1026700007B5D0F854310093D0F85021044B00F541
:102680009C710448FFF75CFF03B05DF804FB00BFDA
:1026900064300120603001202DE9F0470746906842
:1026A000DDF820A0994603681B6A884614469847BF
:1026B00040F6E703984205D83E4B3F4AA7213F48E2
:1026C0001DF0D2F8606803681B6A98470F2803D88A
:1026D0003B4B394AA821F2E7E06803681B6A984738
:1026E000532803D8374B344AA921E8E70CF0F0FC13
:1026F0000CF03CFDD9F8000010B10368DB68984786
:10270000D9F8000010B103681B689847386810B109
:1027100003685B699847D8F8000010B103685B68EC
:102720009847386810B103681B689847D8F80000CC
:1027300010B103689B689847E0680021FFF760FDCF
:1027400014210546FFF760FDA068036800215B6A5D
:102750009847064601F03AFE6068036800215B6A0C
:1027600098473146044601F0F7FDC9F80050C8F813
:1027700000403E60E4B1231DCAF800303368C4F85D
:1027800008A03046DB68F4639847236820461B683E
:102790009847294630460EF08AF92B6828461B696F
:1027A00098472B6828465B6998472046BDE8F08724
:1027B0002346E1E7C40E02081E1502085010020865
:1027C000971002083A11020807B5D0F85431009367
:1027D000D0F85021044B00F59C710448FFF75CFFD2
:1027E00003B05DF804FB00BF6430012060300120BD
:1027F000006A704770478B8880690A68DB0A50F866
:1028000023001044704710B5C2B1137BB3B1547BA1
:10281000D27A240204F4E0641443C26998B202EB51
:10282000840213888B4202D192F9020010BD05D8B0
:10283000013880B204320028F3D1F7E70020F5E731
:1028400010B5242104461CF0E0FF204610BD000016
:1028500030B589B00446BDF850500695BDF84C50CF
:1028600005959DF8405004959DF83C5003959DF8C2
:10287000385002959DF8345001959DF830500095E0
:102880000DF08AFC054B2360119BA361129BE36151
:10289000159B2362204609B030BD00BF0417020813
:1028A0000020704781807047C18070470181704768
:1028B000418170477047704770477047704710B448
:1028C000C4880368121B84881B6D091B12B25DF853
:1028D000044B09B218474FF6FF7383814FF0FF3363
:1028E00003621368C3611060704770477047704798
:1028F0007047704790F825201AB190F8242002B153
:102900001860704770477047704730B4C2684468B9
:102910005510034604EB6200D20748BF62599B681A
:1029200030BC48BFD358184743682BB183682BB9D4
:10293000C06800F0010070471846704701207047DA
:1029400010B5102104461CF060FF204610BD10B5E4
:102950004FF4BA7104461CF058FF204610BD08B56C
:1029600000F19803994205D10CF0B2FBBDE8084094
:10297000FFF742BBE030814205D10CF0A9FBBDE876
:102980000840FFF779BB08BD70B503680446DB6AF1
:10299000154698472368294620461B6BBDE87040C2
:1029A000184770B504461D46BDF91060FFF7ECFFEF
:1029B0002368294620465B6B9847236831462046AA
:1029C0009B6BBDE870401847084901604FF4807167
:1029D00000228184FF21C0E90122C0E90322C0E96D
:1029E0000522C26180F8261082627047A03B02086F
:1029F00073B5018F4FF6FF739942064633D01C4BD7
:102A00001B682BB91B4B1C4AB1211C481CF02CFF26
:102A10001B4A12888A4203D81A4B174AB221F4E79C
:102A200013F81120184B1B6853F82250174B1868E5
:102A300001F022FB2B68019001469B6A28469847CB
:102A40002B6801991B6C0446284698472B6801990E
:102A50005B6A14FB00F428469847E4B2044486F805
:102A6000454002B070BD002380F84530F9E700BF53
:102A7000743001205017020892170208C01702088C
:102A800078300120071802087C30012080300120B6
:102A900013460C4A70B515682DB90B4B0B4A0C4800
:102AA00035211CF0E1FE95F876200AB1EC6C04B9F2
:102AB000AC682268956A0A46AC4601462046BDE8E5
:102AC0007040604704300120591802089C18020821
:102AD000F81802082DE9F04F044689B0A0460025F9
:102AE0000DF06AFE6D4BE56348F8403B04F16C0A5B
:102AF0004046FFF769FF04F198075046FFF764FF6F
:102B000004F1E00638460AF0FBFD30460AF0F8FD15
:102B10004FF48073A4F84C31614BC4F82831614BF9
:102B2000C4F850314FF6FF73A4F854314FF47F03CB
:102B3000C4F85C315C4BC4F84451C4E959345B4B74
:102B4000C4F858514FF4A07BC4E95B35CDF800B010
:102B5000F0232A4629464046C4E94B55C4E94D5561
:102B6000C4E94F55A4F86051FFF71BFF2A462946D8
:102B70002846FFF78DFFF023A066CDF800B02A4667
:102B800029465046FFF70DFFD62281215020FFF73E
:102B90007FFFA022C4F8940023213846FFF7F4FEFB
:102BA0004FF003024FF0020B05A9ADF8182038468C
:102BB00006AAADF814B00AF04DFAA4F8D0B0384621
:102BC000FFF716FFFF2211461046FFF761FFFF22B5
:102BD000C4F8D40011461046FFF75AFF04F5B2734B
:102BE000C4F8C030C4F8D800E9223046232103934A
:102BF000FFF7CAFE06AA05A9ADF814B030464FF09B
:102C0000030BADF818B00AF025FA3046A4F818B155
:102C1000FFF7EEFEFF2211461046FFF739FFFF22B5
:102C2000C4F81C0111461046FFF732FF04F59479F1
:102C3000039BC4F80831C4F820013F2248462321F1
:102C4000FFF7A2FE2A4629462846FFF721FF154B2B
:102C5000C4F85801069306A908234846A4F85C5115
:102C6000ADF81C300AF0B7F9201D4146039007F07B
:102C700051FE0398514607F04DFE0398394607F080
:102C800049FE0398314607F045FE0398494607F090
:102C900041FE204609B0BDE8F08F00BF5C19020874
:102CA000F83A0208BC0E0208441902085F2900081D
:102CB000806A70477047704710B5B42104461CF015
:102CC000A4FD204610BD0000064A02600022C0E9B3
:102CD0000122C0E90322C0E90522C2614FF48072DB
:102CE00082847047484102082DE9F743044626468E
:102CF0000025FFF7E9FF4E4BA56246F82C3B29461D
:102D0000262230461CF03CFE3046FFF7DDFF4FF038
:102D1000FF09484BE36204F16007262229466565F6
:102D2000A565A4F85C5084F8529038461CF028FE43
:102D30003846FFF7C9FF4FF6FF73A4F88C304FF405
:102D40007F03C4F894303C4B2366DFF814813B4B7F
:102D5000A3602946C4F89050A4F89850C4F89C5039
:102D60003046C4F88880FFF79DFD29463046FFF7BE
:102D70009BFD64213046FFF799FD28213046FFF77F
:102D800097FD4A4649464846FFF782FED022114643
:102D900060651046FFF77CFE0323A4F85C30CB236C
:102DA00084F852304FF42023A06563662A462946F2
:102DB0002846FFF76DFE224BA4F894501B68C4F818
:102DC000900004F1A0052BB91E4B1F4AB1211F48EA
:102DD0001CF04AFD1E4B1B88112B03D81D4B1A4AB1
:102DE000B221F4E71C4B1121186801F045F91B4A88
:102DF00003460A2128460FF011FA3846C4F89C50C1
:102E00000AF0CCF80C2369463846ADF80430CDF80A
:102E100000800AF0E0F83146204607F07BFD2046AE
:102E2000394607F077FD204603B0BDE8F08300BFC8
:102E300094190208E03C0208383C020864002800AB
:102E4000743001205017020892170208C0170208B8
:102E50007830012007180208803001208819020804
:102E6000BC0E020841727047407A70477047704745
:102E7000704730B4C26844685510034604EB6200E2
:102E8000D20748BF62599B6830BC48BFD358184727
:102E900043682BB183682BB9C06800F0010070470C
:102EA000184670470120704710B5102104461CF0E9
:102EB000ACFC204610BD10B541F2481104461CF090
:102EC000A4FC204610BD00F53870884208B505D135
:102ED0000CF0FEF8BDE80840FFF7AEB808BD0000F2
:102EE0004FF6FF7238B500230281104A4360C0E9F3
:102EF000033302600446FDF795FD03681B6A98479B
:102F00000B4B1B68B0FA80F5D86C6D0928B10368CB
:102F10001B6A9847002808BF01252DB9054B064AB2
:102F200006482F211CF0A0FC204638BD903702082F
:102F300004300120181A0208761A0208AF1A020893
:102F40002DE9F04F2DED048B044689B00DF034FCD3
:102F500022460025B64BE56342F8403B104608EE9A
:102F6000102AFFF731FD04F16C0304F198071846AD
:102F700009EE103A04F5CC7AFFF726FD384606F044
:102F8000E3F94FF6FF785046ADF81880FFF7A8FF39
:102F9000A84BC4F8983106A904F5E279C4E96D5844
:102FA0005046C4E96B55C4F8BC51A4F8C05108F0B0
:102FB0006DFF84F8A181484604F503780AF0A0FB70
:102FC000404607F05BFB04F5267304F5387B184692
:102FD00008EE903A0AF094FB58460AF091FB964BA3
:102FE000C4E9CA34954B04F54E70C4E9CC354FF4AE
:102FF00061610AF0B1FB4FF4A07318EE100A009360
:103000002A46F0232946FFF7CCFC2A4629462846C3
:10301000FFF73EFD4FF4A073A066009319EE100A6F
:10302000F0232A462946FFF7BCFCD62281215020F6
:10303000FFF72EFD1C22C4F8940011463846FFF716
:10304000A3FCB82300932A462946384606F013F914
:103050002B462946384600954FF4616206F064FA23
:103060005C221146384606F0AFF838465A2106F081
:10307000BFF82946384606F0C5F85A2238466FF0A0
:10308000590106F041F9042306A93846ADF8183075
:1030900006F0F2FA4FF0050306A95046ADF81830D5
:1030A00008F0F4FE5146384606F0C7F8294638467F
:1030B00006F00EF94846E5225A21FFF765FC4FF06D
:1030C000010A06AA05A94846ADF81450ADF818A0A3
:1030D00009F0C0FF0423FF26A4F8FC314846FFF79F
:1030E00087FC324631463046FFF7D2FC3246C4F800
:1030F000000231463046FFF7CBFC2223C4F804021D
:1031000000934046642367224621FFF74AFC2A4683
:1031100029462846FFF7BCFC0146404607F06BF9FC
:10312000474B069306A94FF005034046ADF81C3007
:1031300007F0AEF95146404607F0E2FA2B462A4620
:103140002946404684F83BA207F0DDFA18EE900AC3
:10315000E5221C21FFF718FC06AA05A918EE900A23
:10316000ADF81450ADF818A009F074FF0623A4F8C8
:10317000D03218EE900AFFF73BFC3246314630461B
:10318000FFF786FC3246C4F8D40231463046FFF7DA
:103190007FFCE522C4F8D8029B215846FFF7F4FBD8
:1031A00006AA05A95846ADF81450ADF818A009F0C4
:1031B00051FF0723A4F818335846FFF719FC32468D
:1031C00031463046FFF764FC3246C4F81C033146F2
:1031D0003046FFF75DFC04F54A73C4F8083318EE77
:1031E000101AC4F82003201D039007F093FB19EE7A
:1031F000101A039807F08EFB0398394607F08AFBF4
:103200000398494607F086FB0398414607F082FB86
:1032100018EE901A039807F07DFB0398594607F0C3
:1032200079FB204609B0BDEC048BBDE8F08F00BFF0
:10323000341B0208EC3602081C1B0208C72E0008CB
:10324000BC0E02087047704770477047704730B433
:10325000C26844685510034604EB6200D20748BFB9
:1032600062599B6830BC48BFD358184743682BB19C
:1032700083682BB9C06800F001007047184670479A
:103280000120704710B5102104461CF0BEFA2046FC
:1032900010BD10B54FF4FE7104461CF0B6FA20467E
:1032A00010BD00F59272914210B504D103681B6BFA
:1032B000BDE81040184700F5AE72914202D1036894
:1032C000DB6AF5E700F5D273994205D10BF000FFF8
:1032D000BDE81040FEF7B0BE10BD00002DE9F04F74
:1032E0002DED028B044689B0A24600250DF064FA4C
:1032F000854BE5634AF8403B5046FFF765FB04F118
:103300006C0304F19807184608EE103AFFF75CFBCF
:10331000384607F0B3F940F2011304F5AE797B4A61
:10332000A4F848314FF6FF7304F5D278A4F852316F
:10333000A4F8543184F85631C4F82421A4F8583143
:10334000C4E94A55C4E94C55C4E94E55C4F8405146
:10335000C4F84C5184F8505148460AF0D1F940461F
:103360000AF0CEF96A4BC4E97B346A4BC4E97D3577
:103370004FF4A07300932A46F02329465046FFF7E6
:1033800010FB2A4629462846FFF782FB4FF4A0731C
:10339000A066009318EE100AF0232A462946FFF78C
:1033A00000FBD62281215020FFF772FB4623FF2627
:1033B000C4F8940000933846D42331220E21FFF73D
:1033C000F0FA324631463046FFF762FB0146384696
:1033D00007F011F8504B069306A93846ADF81C507B
:1033E00007F056F83846012107F08AF9032304F55F
:1033F000927B84F8C7302A462B462946384607F088
:1034000082F958467A223821FFF7BEFA0623ADF832
:1034100014300723A4F8583106AA05A95846ADF878
:10342000183009F017FE04F5F673C4F84C3148461D
:10343000BE2238210393FFF7A7FA06AA05A948463A
:10344000ADF81450ADF8185009F004FE0123A4F8AB
:1034500094314846FFF7CCFA324631463046FFF702
:1034600017FB3246C4F8980131463046FFF710FB8F
:10347000039BC4F89C01C4F884314046BE227C21E1
:10348000FFF782FA012305A906AA4046ADF81830D5
:10349000ADF8145009F0DEFD0B22A4F8DC21404603
:1034A000FFF7A6FA324631463046FFF7F1FA3246C8
:1034B000C4F8E00131463046FFF7EAFA039BC4F84E
:1034C000CC31C4F8E4015146201D039007F022FAE4
:1034D00018EE101A039807F01DFA0398394607F002
:1034E00019FA0398594607F015FA0398494607F068
:1034F00011FA0398414607F00DFA204609B0BDECD9
:10350000028BBDE8F08F00BF801B02081C3A020846
:10351000681B0208A3320008BC0E020870477047FF
:1035200010B5B42104461CF070F9204610BD00000F
:103530002DE9F743044626460025FFF7C5FB4D4B12
:10354000A56246F82C3B2946262230461CF018FA84
:103550003046FFF7B9FB4FF0FF09474BE36204F138
:103560006007262229466565A565A4F85C5084F8A5
:10357000529038461CF004FA3846FFF7A5FB4FF688
:10358000FF73A4F88C304FF47F03C4F894303B4BA6
:103590002366DFF814813A4BA3602946C4F89050A3
:1035A000A4F89850C4F89C503046C4F88880FFF7BF
:1035B00079F929463046FFF777F964213046FFF75D
:1035C00075F928213046FFF773F94A4649464846BF
:1035D000FFF75EFAD022114660651046FFF758FAF1
:1035E0000323A4F85C30CB2384F85230254BA0652C
:1035F00063662A4629462846FFF74AFA224BA4F872
:1036000094501B68C4F8900004F1A0052BB91F4B1F
:103610001F4AB1211F481CF027F91F4B1B88102B94
:1036200003D81E4B1A4AB221F4E71D4B102118682B
:1036300000F022FD1B4A03460A2128460EF0EEFD4B
:103640003846C4F89C5009F0A9FC0D236946384659
:10365000ADF80430CDF8008009F0BDFC31462046BD
:1036600007F058F92046394607F054F9204603B0D0
:10367000BDE8F083BC1B0208E03C0208383C0208AD
:103680006400280002000A0074300120501702086C
:1036900092170208C01702087830012007180208A4
:1036A0008030012088190208BC0E0208704770475C
:1036B000704704207047042070477047704700002F
:1036C00038B5074B036004464FF408756359601919
:1036D0001B68B43D984715F1B00FF7D1204638BDAF
:1036E000041E020838B5074B036004464FF4087502
:1036F000635960191B68B43D984715F1B00FF7D1B5
:10370000204638BDEC1D020810B5064B0360044688
:1037100000F2F450FFF7D4FF04F51870FFF7E2FF52
:10372000204610BD4C1E0208F0B4C56846686F10F4
:10373000044606EB6500ED07A46844BFF5592C5913
:10374000A446F0BC604743682BB183682BB9C068BE
:1037500000F001007047184670470120704730B4F0
:10376000C26844685510034604EB6200D20748BFA4
:1037700062599B6830BC48BFD358184743682BB187
:1037800083682BB9C06800F0010070471846704785
:103790000120704710B50446FFF7A4FF20464FF400
:1037A00035711CF032F8204610BD10B50446FFF705
:1037B00087FF20464FF435711CF027F8204610BDD6
:1037C00010B5102104461CF020F8204610BD10B59D
:1037D000102104461CF019F8204610BD10B504460F
:1037E000FFF792FF204640F6E8011CF00EF8204655
:1037F00010BD000008B58BB2032B05D9054B064A56
:10380000064854211CF030F8B42301FB03000430B7
:1038100008BD00BF401C02085B1C0208EF1C020828
:1038200008B58BB2032B05D9054B064A064854212F
:103830001CF01AF8B42301FB0300043008BD00BFDC
:10384000401C02084E1D0208EF1C020870B5044619
:1038500000F5E67006F018F94FF4197540F2345689
:1038600063596019D3F88030B4359847B542F7D121
:1038700004F5AC6006F008F94FF4BF6540F6C806E1
:1038800063596019D3F88030B4359847B542F7D101
:1038900070BD2DE9F0411E4600F5187399420446AB
:1038A0000D4617460AD10B68284611469B68984773
:1038B00023680146DB6A32462046984704F2F453F7
:1038C0009D420CD12B6839469B682846984723684F
:1038D0000146324620461B6BBDE8F0411847BDE863
:1038E000F08100F19803994210B5044605D10BF020
:1038F000EFFBBDE81040FEF79FBB00F1E0039942EB
:1039000009D10BF0E5FBFEF7A7FB236820465B6BB4
:10391000BDE81040184710BD4FF4807181840A49FA
:1039200001600A4981624FF6FF71002281854FF4E0
:103930007F01C0E90122C0E90322C0E90522C2617A
:103940000263416302877047F83A0208BC0E02081E
:103950002DE9F04F2DED068B044687B00CF02CFFBF
:1039600022460023E363D24B42F8403B104608EE68
:10397000102AFFF729F804F16C03184604F198099E
:1039800009EE903A04F1E008FFF71EF8484609F006
:10399000B7FE404609F0B4FE04F59473184608EEED
:1039A000903AFFF7B9FF04F5B273184604F5D077E3
:1039B00009EE103AFFF7B0FF384606F009FA04F5B1
:1039C0001873BC4DC4F8A0510AEE103ABA4BC4F8B3
:1039D000603204F5197A04F2345650460AF1B40AFA
:1039E00000F0CCFBB245F8D1304606F0F1F904F214
:1039F000F4530AEE903AB14BC4F83455C4F8F43598
:103A000004F5BF6504F6C80A2846B43500F08CFCFE
:103A1000AA45F9D1AA4BC4F8C838AA4BC4F8D03883
:103A2000A94BC4F8D83800254FF4A07AA74BC4F8A6
:103A3000D45818EE100AC4F8E038C4F8E458CDF8A9
:103A400000A0F0232A462946C4F8CC48C4F8DC4834
:103A5000FEF7A7FF2A4629462846FFF719F8F02364
:103A6000A066CDF800A019EE900A2A462946FEF776
:103A700098FFD62281215020FFF70AF8F422C4F8DB
:103A8000940023214846FEF77FFF4FF0030A0223EC
:103A900003A904AA4846ADF80C30ADF810A009F00F
:103AA000D9FA0922A4F8D0204846FEF7A1FFFF2248
:103AB00011461046FEF7ECFFFF22C4F8D400114671
:103AC0001046FEF7E5FF04F6C80BC4F8D800C4F8AA
:103AD000C0B04046B8222321FEF756FF022304AAB5
:103AE00003A9ADF810A040464FF00A0AADF80C301B
:103AF00009F0B0FA4046A4F818A1FEF779FFFF22BA
:103B000011461046FEF7C4FFFF22C4F81C011146FF
:103B10001046FEF7BDFFC4F808B1C4F82001062224
:103B200018EE900A1C21FEF72FFF2A462946284648
:103B3000FEF7AEFFDFF89CB1C4F858010E2318EE73
:103B4000900AA4F85C5104A9ADF81430CDF810B077
:103B500009F041FA19EE100A06228F21FEF714FF30
:103B60002A4629462846FEF793FFA4F89851C4F840
:103B700094010F2319EE100A04A9CDF810B0ADF886
:103B8000143009F028FA74232C2200933846642359
:103B90000B21FEF706FF2946384606F087FB29462B
:103BA000384606F0D9FB3846494906F0C3FA514673
:103BB000384606F0C2FA5146384606F0C1FA384691
:103BC0003C2106F033FA2946384605F0F4FF04F6A6
:103BD000D80B38460122282106F0A5FA1AEE101A51
:103BE0005A46384606F0D0FB2A462946384606F0A3
:103BF00095F974232C220093304664238021FEF72C
:103C0000D0FE2946304606F051FB2946304606F0E4
:103C1000A3FB30462E4906F08DFA5146304606F099
:103C20008CFA5146304606F08BFA30463C2106F0BD
:103C3000FDF92946304605F0BEFF30460122282115
:103C400006F071FA1AEE901A5A46304606F09CFBBE
:103C50002A4629463046251D06F060F918EE101A4E
:103C6000284606F057FE19EE901A284606F052FE36
:103C70004946284606F04EFE4146284606F04AFED2
:103C800018EE901A284606F045FE19EE101A28463E
:103C900006F040FE3946284606F03CFE28463146EE
:103CA00006F038FE204607B0BDEC068BBDE8F08F6D
:103CB0004C1E0208182B0208EC1D0208041E020804
:103CC0001C1E0208E3380008341E0208933800085E
:103CD000BD0A0108BC0E02087047000030B5144D43
:103CE0002C78BFF35B8F14F001048BB01DD12846F4
:103CF0001BF08DFDC8B13F2307930E4B06930E4B6F
:103D00000E490F4803940122CDE904430423CDE971
:103D10000132CDE9084414230094FEF799FD2846AA
:103D20001BF081FD07481BF0BDFD05480BB030BD01
:103D3000FC210020AC720208841E0208F06E02080A
:103D400000220020D93C00087047000030B5154D16
:103D50002C78BFF35B8F14F001048BB01FD1284681
:103D60001BF055FDD8B13F2307930F4B06930F4B24
:103D700005930123CDE90343029304220523CDE9F2
:103D800000320B490B4818230B22CDE90844FEF7FB
:103D90005FFD28461BF047FD07481BF083FD0548E3
:103DA0000BB030BD24220020B0720208881E020829
:103DB000006F020828220020493D000870470000DB
:103DC00030B5154D2C78BFF35B8F14F001048BB028
:103DD0001ED128461BF01BFDD0B13F2307930F4B8C
:103DE00006930F4B0F4910480394CDE90443012279
:103DF0000423CDE90132CDE908440D2308220094C3
:103E0000FEF726FD28461BF00EFD08481BF04AFD74
:103E100005480BB030BD00BF4C220020B472020830
:103E20008C1E02089C6F020850220020BD3D000835
:103E30007047000030B5154D2C78BFF35B8F14F040
:103E400001048BB01ED128461BF0E1FCD0B13F230A
:103E500007930F4B06930F4B05930123CDE90343C3
:103E600002930423CDE900330B490C48112320228F
:103E7000CDE90844FEF7ECFC28461BF0D4FC0848CA
:103E80001BF010FD05480BB030BD00BF74220020B0
:103E9000B8720208901E02080C70020878220020F6
:103EA000313E00087047000030B5154D2C78BFF347
:103EB0005B8F14F001048BB01ED128461BF0A7FCC9
:103EC000D0B13F2307930F4B06930F4B0F49104878
:103ED0000394CDE9044301220423CDE90132CDE965
:103EE00008441E2310220094FEF7B2FC28461BF063
:103EF0009AFC08481BF0D6FC05480BB030BD00BF4B
:103F00009C220020C4720208941E0208CC71020890
:103F1000A0220020A53E0008002070470EB403B583
:103F200003AB002153F8042B01930BF06BFF02B09D
:103F30005DF804EB03B070470CB407B504AB53F85D
:103F4000042B01930BF05EFF03B05DF804EB02B0AD
:103F500070470000C36B10B5044673B3038E2BB9D2
:103F6000184B194AC02119481BF07EFCC38D00EB89
:103F700043035B8B0BB30DF097FB238E012B03D810
:103F8000134B144AC521EEE7E28D531C9BB2092B5B
:103F9000194688BFA3F10A0104EB410140F63F1026
:103FA000498B814209D10A2B04EB420228BF00232E
:103FB00004EB4303508B588351832046BDE81040E7
:103FC0000DF056BA981E0208A11E02084C1F0208E6
:103FD000961F0208A41F02080DF004BA10B586B09F
:103FE00002AC84E806001A460AAB05930193099BCC
:103FF00000932146089B0AF0FAFB06B010BD0000B2
:1040000038B518BB124B13481B681349B3B11A6873
:104010009C681A4402605A681A440A601C440F4B98
:1040200000221A8000F038F8054600F033F80C4BF7
:104030001C600C4B1D600C4B188007E00B4B0360A1
:104040000B4B0B600B4B1C68002CE8D138BD00BF3C
:10405000C4220020C8220020CC220020D022002030
:10406000743001207C300120783001201073020868
:10407000C8720208E4730208044B1B6853F821005D
:10408000034B1B6803EB4000704700BFCC220020AD
:10409000C82200201220704700487047D422002018
:1040A00010B5FFF7C7FE074C2060FFF7FDFE60600C
:1040B000FFF786FEA060FFF711FEE060FFF746FE07
:1040C000206110BDD4220020704710B54FF4AC71B0
:1040D00004461BF09AFB204610BD10B50446D0F8EC
:1040E000540100F08AF82046BDE810400AF0C8BE2E
:1040F00010B50446FDF750FF014B2360204610BD6C
:1041000080200208704704387047704710B51021AE
:1041100004461BF07AFB204610BDA0F10400F5E731
:1041200010B500228260044AC16002F10804203206
:104130000460426010BD00BFBC2002087047704799
:10414000FEF7E1BB10B54FF4BA7104461BF05DFBFE
:10415000204610BD10B50446FEF7BCFC014B2360A1
:10416000204610BDEC2002087047FEF7A4BD10B534
:10417000B42104461BF049FB204610BD10B504468F
:10418000FEF7B2FD014B2360204610BD202102083E
:10419000704704387047704710B5102104461BF073
:1041A00034FB204610BDA0F10400F5E710B5002255
:1041B0008260044AC16002F1080420320460426057
:1041C00010BD00BFA421020870477047FEF74FBE24
:1041D00010B541F2481104461BF017FB204610BDF4
:1041E00010B50446FEF7ACFE014B2360204610BD1F
:1041F000D4210208002202607047704770470438DB
:104200007047704710B5102104461BF0FEFA204697
:1042100010BDA0F10400F5E710B500228260044A49
:10422000C16002F1080420320460426010BD00BF8A
:10423000002202087047704790F80C3283F00103A7
:1042400080F80C32704738B5044604F19805FEF743
:10425000FCFF284606F0A0FAC4F80002284606F043
:10426000B4FAC4F80402284606F0B2FAC4F8080208
:1042700038BD0023C0E98033C0F808321A46194619
:10428000983006F040BA10B54FF4047104461BF0A4
:10429000BCFA204610BD90F80C3263B3D0F8FC2174
:1042A0003C210132C0F8FC2192FBF1F301FB132207
:1042B0000ABBD0F8083201333B2BC0F8083208DDC6
:1042C000D0E9803101313B29C0F808220ADCC0F86E
:1042D000041290F8083290F8042290F800129830F6
:1042E00006F011BA0133172BC8BF1346C0F80422D9
:1042F000C0F80032EDE7704710B50446FEF7EEFF58
:10430000034B2360002384F80C32204610BD00BF0D
:10431000302202087047FFF702B910B5B4210446F5
:104320001BF073FA204610BD10B50446FFF700F9E4
:10433000014B2360204610BD6C22020870470438F0
:104340007047704710B5102104461BF05EFA2046F6
:1043500010BDA0F10400F5E710B500228260044A08
:10436000C16002F1080420320460426010BD00BF49
:10437000F02202087047FFF769BA0A231046A031FD
:104380001A460DF013BC0A231046A0311A460DF050
:104390000DBC000010B5064B0360044600F2F4505B
:1043A000FFF78EF904F51870FFF79CF9204610BD51
:1043B0004C1E020810B50446FFF7ECFF204640F6FD
:1043C000E8011BF022FA204610BD000010B504469B
:1043D000FFF7BEFA014B2360204610BD20230208E0
:1043E000F02070474FF4A07070472920FDF738B9CE
:1043F0002820FDF735B908B5FDF706F9CA20FDF705
:104400002FF9C320FDF710F90820FDF70DF9502012
:10441000FDF70AF9CF20FDF723F90020FDF704F995
:10442000C120FDF701F93020FDF7FEF8ED20FDF782
:1044300017F96420FDF7F8F80320FDF7F5F81220CE
:10444000FDF7F2F88120FDF7EFF8E820FDF708F915
:104450008520FDF7E9F80020FDF7E6F87820FDF764
:10446000E3F8CB20FDF7FCF83920FDF7DDF82C2030
:10447000FDF7DAF80020FDF7D7F83420FDF7D4F87F
:104480000220FDF7D1F8F720FDF7EAF82020FDF72C
:10449000CBF8EA20FDF7E4F80020FDF7C5F800208E
:1044A000FDF7C2F8B120FDF7DBF80020FDF7BCF8FE
:1044B0001B20FDF7B9F8B620FDF7D2F80A20FDF76A
:1044C000B3F8A220FDF7B0F8C020FDF7C9F810201E
:1044D000FDF7AAF8C120FDF7C3F81020FDF7A4F8F6
:1044E000C520FDF7BDF84520FDF79EF81520FDF726
:1044F0009BF8C720FDF7B4F89020FDF795F836201B
:10450000FDF7AEF8C820FDF78FF8F220FDF7A8F808
:104510000020FDF789F8B020FDF7A2F8C220FDF7D2
:1045200083F8B620FDF79CF80A20FDF77DF8A72058
:10453000FDF77AF82720FDF777F80420FDF774F8E7
:104540002A20FDF78DF80020FDF76EF80020FDF71A
:104550006BF80020FDF768F8EF20FDF765F82B20D9
:10456000FDF77EF80020FDF75FF80020FDF75CF80E
:104570000120FDF759F83F20FDF756F8F620FDF72A
:104580006FF80120FDF750F80020FDF74DF80620E8
:10459000FDF74AF82C20FDF763F8C820FDF7AEF8C8
:1045A0002620FDF75DF80120FDF73EF8E020FDF73D
:1045B00057F80F20FDF738F82920FDF735F82420AB
:1045C000FDF732F80C20FDF72FF80E20FDF72CF840
:1045D0000920FDF729F84E20FDF726F87820FDF791
:1045E00023F83C20FDF720F80920FDF71DF81320E3
:1045F000FDF71AF80520FDF717F81720FDF714F856
:104600001120FDF711F80020FDF70EF8E120FDF76D
:1046100027F80020FDF708F81620FDF705F81B2005
:10462000FDF702F80420FCF7FFFF1120FCF7FCFF68
:104630000720FCF7F9FF3120FCF7F6FF3320FCF7E9
:10464000F3FF4220FCF7F0FF0520FCF7EDFF0C2004
:10465000FCF7EAFF0A20FCF7E7FF2820FCF7E4FF5D
:104660002F20FCF7E1FF0F20FCF7DEFF1120FCF705
:10467000F7FFC820FDF742F82920FCF7F1FFBDE85D
:1046800008402C20FCF7ECBF08B5FCF7BDFF032168
:10469000D320FDF701F880B208BD10B5C4B20222E4
:1046A00003212046FCF766FF0A20FCF7ABFF2046FB
:1046B00000220321FCF75EFFBDE810400220FCF75A
:1046C000A1BF38B50446E4B2FCF752FF00212046F2
:1046D000FCF768FF012105462046FCF763FF40EA2E
:1046E000052080B238BD10B5C4B240212046FCF789
:1046F00059FF030607D54C212046FCF753FF00382D
:1047000018BF012010BD01224B212046FCF732FFCB
:10471000204600224B21FCF72DFF0020F2E773B565
:104720000423C4B20E461546D7210DEB03022046E2
:10473000FCF752FF019B1BBA1A0DC3F30B23328007
:1047400020462B8001224B21FCF714FF00224B2135
:104750002046FCF70FFF02B070BD000010B50A4BF9
:104760001A78904204460DD0597888420AD00AB18E
:1047700041B901229C54FCF7FBFE2046BDE81040E5
:10478000FFF78BBF10BD00BFE822002010B5C4B2F8
:1047900009212046FCF706FF40F00100C2B20921C2
:1047A0002046BDE81040FCF7E5BE10B5C4B20921B3
:1047B0002046FCF7F7FE092100F0FE022046BDE886
:1047C0001040FCF7D7BE38B5C4B20D4620460A21CA
:1047D000FCF7E8FE40EA0502D2B220460A21BDE815
:1047E0003840FCF7C7BE07B50190FCF7C2FE019840
:1047F0001F21FFF7E8FF019803B05DF804EBFFF716
:10480000C5BF38B5C4B20D4620460A21FCF7CAFE22
:1048100020EA0502D2B220460A21BDE83840FCF762
:10482000A9BE10B50446FFF7C0FF20461F21BDE812
:104830001040FFF7E6BF10B5C0B20C460B21FCF7E5
:10484000B1FE204010BD1F21FFF7F5BF0A46C0B2E0
:104850000B21FCF78FBE1F21FFF7F8BF38B5C4B29C
:104860000D4620461721FCF79DFE20EA0502D2B234
:1048700020461721BDE83840FCF77CBE70B5C4B2B5
:10488000064604212046FCF78DFE042100F0FB02C1
:1048900005462046FCF76EFE3046F021FFF7DEFFAE
:1048A00005F0F80220460421FCF764FE492220218D
:1048B0002046FCF75FFE0220FCF7A4FE2046012202
:1048C0002121FCF757FE20469A224121FCF752FE97
:1048D000204601224A21FCF74DFE204601224B21B1
:1048E000FCF748FE204600224B21FCF743FE204601
:1048F00001225621FCF73EFE204601225821FCF7FA
:1049000039FE204601224021FCF734FE2046FF22DA
:104910000B21FCF72FFEBDE870400220FCF772BEB1
:10492000054BD3F8882042F47002C3F888204FF07A
:1049300000629A60704700BF00ED00E008B50B4BC5
:104940001A6842F400721A601A6842F480621A60AF
:104950001A6842F480721A60032000F02FF80020D9
:10496000FDF70AF9FCF7D6FE002008BD003C024026
:10497000034A044B11681B780B441360704700BF57
:10498000D434012078000020014B1868704700BF24
:10499000D434012038B50446FFF7F6FF631C1CBF72
:1049A000054B1B78054618BFE418FFF7EDFF431BC6
:1049B000A342FAD338BD00BF780000200749CA6877
:1049C00022F4E0620302120403F4E063120C1343C6
:1049D00043F0BF6343F40033CB60704700ED00E069
:1049E000164B30B5DC68C4F30224C4F10705231D5F
:1049F000042D28BF0425062B4FF0FF338CBF033C4A
:104A0000002403FA05F521EA0501A34022EA030286
:104A1000A140002841EA0203ACBF00F16040084A0F
:104A20004FEA0313B8BF00F00F00DBB2AABF00F5D6
:104A30006140135480F8003330BD00BF00ED00E04A
:104A400014ED00E0002808DB4209012300F01F00FC
:104A500003FA00F0014B43F82200704700E100E048
:104A600000280DDB4309012200F01F0002FA00F0CC
:104A70002033044A42F82300BFF34F8FBFF36F8FF8
:104A8000704700BF00E100E010B5044650B1437923
:104A900003F0FF0213B90271FCF75CFE012363719E
:104AA000002010BD0120FCE770B50468049D666C11
:104AB00045EA034306F04046334363644368E263D8
:104AC000B3F5403F30D186681EB1012E03D121F0ED
:104AD0007F41A16370BD022E01F47F0301F47F4585
:104AE000C8B207D1DB0CAD0ADB0243EA451343EA47
:104AF000D001EEE7032E01F07F420AD1DB0CED0A74
:104B00009B0243EA451343EAD003D10F43EAC13184
:104B1000DFE7190D2D0B090241EA051141EA1011D9
:104B2000130F41EA0331D4E7E160D3E710B504463F
:104B300030B390F8393003F0FF021BB980F8382009
:104B4000FCF720FE22686168022384F8393013687C
:104B500023F440330B431360536BA16823F0070326
:104B60000B435363136CE16823F47F5323F03F033B
:104B70000B43136400200123E06384F8393010BD37
:104B80000120FCE773B590F83850012D04464FF032
:104B9000020513D080F839500126069D80F8386050
:104BA0000095FFF781FF23681A6842F40C521A60DF
:104BB0001A6832431A60002002B070BD2846FBE735
:104BC00073B516461A4690F83830012B04464FF05C
:104BD000020517D0012380F83830036880F8395077
:104BE0005E61079B0093069BFFF75EFF23681A68D0
:104BF00042F40C521A601A6842F001021A60002056
:104C000002B070BD2846FBE7026838B5136823F090
:104C1000050343F0040313600446FFF7B5FE0546A1
:104C20002268136813F0010309D1116821F40C51B3
:104C30001160012284F8392084F838300FE0FFF742
:104C4000A3FE401BB0F57A7FEAD9E36B43F0200363
:104C5000E3630022032384F8393084F838201846AF
:104C600038BD70B505682A6842F004022A6001293F
:104C7000044614BF24351C35FFF786FE06462B6814
:104C800013F020030AD121680A6822F464520A60F2
:104C9000012284F8392084F838300FE0FFF774FEE1
:104CA000801BB0F57A7FEAD9E36B43F02003E3631E
:104CB0000022032384F8393084F83820184670BD68
:104CC00038B5054608B9012038BD164B1B6B1902D3
:104CD00013D42B6800243F221C6028469A601C6174
:104CE0009C61DC615C625C63FCF76EFDEC6385F8E3
:104CF000384085F839402046E6E70368196811F026
:104D0000010104D0FFF780FF0028E2D0DBE75A6AF8
:104D1000920602D5FFF7A5FFF6E7DB699B06D8D51B
:104D20000121F7E70038024070477047036870B50B
:104D30005E681D68F207044614D5E90512D51A68A5
:104D400022F480721A60C26B42F00102C263012237
:104D50009A60042380F83930002380F838304369A2
:104D600003B19847B20616D5AB0414D523681A6868
:104D700022F400521A6020229A60E36B43F002038F
:104D8000E363042384F83930002384F838306369FE
:104D90000BB120469847300716D5290514D523684E
:104DA0001A6822F400621A6008229A60E36B43F0EA
:104DB0000403E363042384F83930002384F8383093
:104DC00063690BB12046984772070BD56B0509D56F
:104DD00023681A6822F480621A6004229A602046CE
:104DE000FFF7A2FFB00714D5A90512D523681A68EA
:104DF00022F400721A6002229A60E36BE3630123DB
:104E000084F83930002384F8383023690BB1204608
:104E10009847F20613D5EB0411D523681A6822F4DB
:104E200080521A6010229A60E36BE363012384F8D6
:104E30003930002384F838302046FFF776FF70BD04
:104E4000F0B590F83830012B4FF002032BD001223F
:104E500080F8393080F8382000EB0113D3E907429D
:104E60005D6A184F44EA0242093C012C9CBF05F0E0
:104E70007F431A434FEA0116036888BF42EA05627E
:104E800099B9596A39400A435A62012C82699A6178
:104E900003D8426A22F07F429A62012380F83930B7
:104EA000002380F838301846F0BDD96939400A43EC
:104EB000DA618219012C92691A619CBF25F07F4545
:104EC0001D62EAE7F0FFFC002DE9F74FDFF8C4812F
:104ED0006E4ADFF8C49100230D6801249C4004EA67
:104EE0000506AC4340F0B8804C6824F0100C4FEA43
:104EF000430E03250CF1FF3705FA0EF5012F6FEA7B
:104F0000050511D8876807EA050ACF6807FA0EF782
:104F100047EA0A078760476827EA060AC4F30017CA
:104F20009F4047EA0A074760C76807EA050A8F6893
:104F300007FA0EF747EA0A07BCF1020FC76016D15D
:104F40004FEAD30A00EB8A0A03F0070BDAF8207065
:104F50004FEA8B0B4FF00F0C0CFA0BFC27EA0C0CF2
:104F60000F6907FA0BF747EA0C07CAF820700768C1
:104F70003D4004F0030707FA0EFE4EEA0505056002
:104F8000E50069D54FF0000BCDF804B0D8F84470B7
:104F90003F4D47F48047C8F84470D8F8447007F490
:104FA00080470197019F23F0030707F1804707F52A
:104FB0009C3703F0030ED7F808A04FEA8E0E4FF08F
:104FC0000F0C0CFA0EFCA8422AEA0C0C4BD005F58B
:104FD0008065A84249D005F58065A84247D005F50F
:104FE0008065A84245D005F58065A84243D0484574
:104FF00043D005F50065A84241D005F58065A8427B
:105000003FD005F58065A8423DD005F58065A842F2
:105010000CBF09250A2505FA0EF545EA0C05BD6009
:105020001568F74314F4803F0CBF3D4035431560CD
:10503000556814F4003F0CBF3D40354355609568FA
:1050400014F4801F0CBF3D4035439560D568A40221
:1050500054BF3D403543D5600133102B7FF43CAF46
:1050600003B0BDE8F08F5D46D5E70125D3E7022503
:10507000D1E70325CFE70425CDE70525CBE70625B6
:10508000C9E70725C7E70825C5E700BF003C014081
:105090000000024000380240001402400AB1816161
:1050A00070470904FBE701684B6913F480634FF014
:1050B000000210D06FF480634B612023026380F8FC
:1050C0003D3080F83E20036C80F83C2043F0040320
:1050D000036401207047184670472DE9F0410446EB
:1050E0000F46164698462568686927EA000080B290
:1050F000B8B16B695A0516D52B6843F400732B6061
:105100006FF480636B6120220023236384F83D20C9
:1051100084F83E30226C42F00402226484F83C3071
:105120000120BDE8F081731CDED0FFF72DFCA0EB61
:105130000800B04201D8002ED5D1002320222363DD
:1051400084F83D2084F83E30226C42F02002E4E7EF
:1051500070B504460D46164623685B695B0701D5AA
:10516000002070BD2046FFF79EFFA8B96A1CF3D04F
:10517000FFF70AFC801BA84201D8002DECD10023C8
:105180002022236384F83D2084F83E30226C84F88A
:105190003C3042F0200222640120E2E770B5044670
:1051A0000D46164621684B6913F0400301D00020DC
:1051B00010E04A69D2060ED56FF010024A61202233
:1051C000236384F83D2084F83E30226C226484F806
:1051D0003C30012070BDFFF7D7FB801BA84201D8EF
:1051E000002DDFD100232022236384F83D2084F8A2
:1051F0003E30226C42F02002E8E72DE9F8460646F0
:105200000F4691461D464FEA114A3368BAF1010F25
:105210000CBF5C699C6927EA0404A4B2B4FA84F464
:105220006409A14501D0002017E06A1CEED0FFF709
:10523000ABFB089BC01AA84201D8002DE5D1002382
:105240002022336386F83D2086F83E30326C86F8A3
:105250003C3042F0200232640120BDE8F88670B58F
:1052600004460D46164623685B691B0601D50020DF
:1052700070BD2046FFF717FFA8B96A1CF3D0FFF7EF
:1052800083FB801BA84201D8002DECD100232022F3
:10529000236384F83D2084F83E30226C84F83C304F
:1052A00042F0200222640120E2E700002DE9F043F1
:1052B0001546026885B0DDE90C789946136843F419
:1052C000807313600E463B46CDF8008000224FF0FD
:1052D00001110446FFF791FF236838B11B68DB0515
:1052E00002D54FF40073236403200AE006F0FE06A3
:1052F0001E61194943463A462046FFF7EEFE18B1B3
:10530000012005B0BDE8F083236803905A69039239
:105310009B690393424639462046039BFFF79FFF54
:1053200040B1236C042B01BF2268136843F400735F
:105330001360E5E7B9F1010F236802D1EDB21D61F9
:10534000DFE72A0A1A61394642462046FFF787FFFF
:105350000028E6D12368F1E7020001002DE9FF47AC
:105360009A46036815461A6842F480621A601A6801
:10537000DDE90C7842F480721A600E463B46CDF8A7
:10538000008000224FF001110446FFF736FF23682A
:1053900048B11B68DB0502D54FF40073236403207A
:1053A00004B0BDE8F0875FFA86F906F0FE061E61DC
:1053B0002A4943463A462046FFF78FFE08B10120AE
:1053C000EEE7236803905A6903929B690393424670
:1053D00039462046039BFFF742FF40B1236C042B64
:1053E00001BF2268136843F400731360E7E7BAF162
:1053F000010F23681AD1EDB21D614246394620469D
:10540000FFF72DFF0028E9D12268136843F4807369
:1054100013604FF001110246CDF800803B46204654
:10542000FFF7EBFE226860B11368B3E72A0A1A613E
:10543000394642462046FFF712FF0028CED12368A6
:10544000D9E749F001031361044943463A4620462F
:10545000FFF743FE003818BF0120A1E7020001005A
:1054600070B5044608B9012070BD90F83D3003F0D6
:10547000FF021BB980F83C20FCF7B8F9242384F81C
:105480003D3023681A6822F001021A601A6842F45B
:1054900000421A601A6822F400421A6000F06CFEA2
:1054A0003F4A6368934294BF3E4A3F4A90428CBF52
:1054B00000220122002AD6D121683C4E4A68B0FB66
:1054C000F6F622F03F0232434A60354A0D6A9342B3
:1054D00084BF4FF49672724325F03F0591BF721C52
:1054E0004FF47A76B2FBF6F201322A430A62CD69B2
:1054F000421E2B4825F44F45834225F0FF0532D844
:105500005B00B2FBF3F340F6FC720133134242D06E
:10551000C3F30B032B43CB61D4E907300A68034381
:1055200022F0C00213430B608A68D4E9030322F41B
:105530000342034322F0FF0213438B60D4E905309A
:10554000CA68034322F0FF021343CB600B6843F0A9
:1055500001030B6000202023206484F83D30206389
:1055600084F83E0080E7A06850B903EB4303B2FB28
:10557000F3F30133C3F30B037BB143F40043C9E7F7
:1055800019204343B2FBF3F30133C3F30B0323B1FD
:1055900043F44043BEE70423BCE70123BAE700BF5E
:1055A000A08601007F841E00FF083D0040420F00DE
:1055B0002DE9F743044699460C9E0F469046FFF7A7
:1055C000E3F994F83D30202B054603D0022003B0C8
:1055D000BDE8F08300903C49192301222046FFF7E3
:1055E0000CFE0028F2D194F83C30012BEED020685C
:1055F000012384F83C300368D9075EBF036843F099
:1056000001030360036823F400630360212384F82B
:105610003D30402384F83E30002323640A9B6362BC
:10562000BDF82C306385638D2385284BE362CDE97B
:1056300000654B46424639462046FFF737FE0028B4
:105640002AD00120C3E7FFF70AFE40B1236C042BE8
:1056500001BF2268136843F400731360F1E7636AC3
:1056600027681A4612F8011B39616262628D218D2A
:10567000013A92B262857A69481E80B2520720854B
:105680000AD548B15A783A6102336362638D013BAF
:1056900002399BB221856385238D2A4631462046F7
:1056A000002BD0D1FFF754FD0028CFD1226813681A
:1056B00043F400731360202384F83D3084F83C00E9
:1056C00084F83E0083E700BF020010000000FFFFE7
:1056D0002DE9F043044687B09946109F0D46904649
:1056E000FFF752F994F83D30202B064604D00225EE
:1056F000284607B0BDE8F0830090764919230122BF
:105700002046FFF77AFD0028F1D194F83C30012BB8
:10571000EDD02068012384F83C300368DB075EBFCE
:10572000036843F001030360036823F4006303602C
:10573000222384F83D30402384F83E300023236444
:105740000E9B6362BDF83C306385638D2385624B9D
:10575000E3622946CDE900764B4642462046FFF7F4
:10576000FDFD054608B10125C2E7228D2368B2B9C7
:1057700002905A6902929A690292029A1A6842F455
:1057800000721A60DFF85481238D002B2CD1202267
:1057900084F83D2084F83C3084F83E30A8E7012AA4
:1057A0000AD11A6822F480621A6003905A6903923F
:1057B0009A690392039AE1E7022A0ED11A6822F449
:1057C00080621A601A6842F400621A6004905A6992
:1057D00004929B690493049BD4E705905A6905924F
:1057E0009B690593059BCDE7032B56D8012B15D15B
:1057F000324639462046FFF7D1FC0028B3D1236852
:105800001A69636A1A70636A01336362238D013B0C
:105810002385638D013B9BB26385B5E7022B009620
:105820003B464FF000024146204619D1FFF7E5FC08
:10583000002898D123681A6842F400721A601A6925
:10584000636A1A70626A531C6362238D013B23856D
:10585000638D013B9BB2638523681B695370D2E75C
:10586000FFF7CBFC00287FF47EAF23681A6822F490
:1058700080621A601A69636A1A70636A009601335B
:105880006362238D013B2385638D013B9BB263855E
:1058900002463B4641462046C8E732463946204646
:1058A000FFF77CFC00287FF45EAF23681A69636A07
:1058B0001A70626A531C6362238D013B2385638DDA
:1058C000013B9BB263852368596949077FF55CAF4B
:1058D000C3E700BF020010000000FFFF040001004A
:1058E00010B590F83D30202BDCB216D1242380F87F
:1058F0003D3003681A6822F001021A605A6A22F0E9
:1059000010025A625A6A114359621A6842F001023F
:105910001A6080F83D40002010BD0220FCE730B541
:1059200090F83D30202BDCB216D10268242380F899
:105930003D30136823F001031360556A4FF6F0738E
:105940002B40194389B25162136843F0010313607D
:1059500080F83D40002030BD0220FCE72DE9F043F7
:10596000D20104684F68E568D1F800C0D1F81890FA
:105970008432A3180CF10106586800F47040586096
:10598000E068C5F30B45C0F30B4030443D4440EAAA
:1059900005405860E068CD68C0F30A000544986887
:1059A00000F470409860E6688868C6F30A06013023
:1059B000304440EA0540986018690E6920F00700FD
:1059C00018614FF0000E1E619D6991F8320091F848
:1059D0003180C3F818E091F8305045EA096545EA8E
:1059E000082545EA00459D61586920F0FF0058618F
:1059F00048695861D86920F4E06020F00700D86158
:105A0000D1E907500543DD61986A486AC3F828E088
:105A100098621EB3012E23D0B01E022822D9072E71
:105A20000CBF02200120DD6A05F0E025DD628D6AF1
:105A3000C96AA7EB0C0745437843033040EA0540A9
:105A4000D862186B20F4FF6020F007001863196318
:105A5000A35843F00103A350BDE8F0830420E2E71C
:105A60000320E0E70220DEE738B50446002863D0D3
:105A700090F8A13003F0FF021BB980F8A020FBF7DB
:105A800011FF022384F8A13023689A6922F0704242
:105A90009A61D4E901200243E068996902432069D0
:105AA00002430A439A619A68244960690A409A60ED
:105AB0009A6842EA0042A06902439A60DA68E069A3
:105AC0000A40DA60DA6842EA0042206A0243DA6099
:105AD0001A69606A0A401A611A6942EA0042A06AB9
