:020000040800F2
:100000000000032089050008F51B0008F71B000805
:10001000F91B0008FB1B0008FD1B00080000000086
:10002000000000000000000000000000717C0008DB
:10003000FF1B000800000000017D0008657D00082E
:10004000D9050008D9050008D9050008D905000818
:10005000D9050008D9050008D9050008D905000808
:10006000D9050008D9050008D9050008D9050008F8
:10007000D9050008D9050008D9050008D9050008E8
:10008000D9050008D9050008D9050008D9050008D8
:10009000D9050008D9050008D9050008D9050008C8
:1000A000D9050008D9050008D9050008D9050008B8
:1000B000D9050008D9050008D9050008D9050008A8
:1000C000D9050008D9050008D9050008D905000898
:1000D000D9050008D9050008D9050008D905000888
:1000E000D9050008D9050008D9050008D905000878
:1000F000D9050008D9050008D9050008D905000868
:10010000D9050008D9050008D9050008D905000857
:10011000D9050008D9050008011C0008D905000808
:10012000D9050008D9050008D9050008D905000837
:10013000D9050008D9050008D9050008D905000827
:10014000D9050008D9050008D9050008D905000817
:10015000D9050008D9050008D9050008D905000807
:10016000D9050008D9050008D9050008D9050008F7
:10017000D9050008D9050008D905000800000000CD
:10018000D9050008D9050008D9050008D9050008D7
:10019000D9050008D9050008D9050008D9050008C7
:0C01A0000D1C0008D9050008191C0008FF
:1001B00010B5054C237833B9044B13B10448AFF3A1
:1001C00000800123237010BD6401002000000000A6
:1001D0008013020808B5034B1BB103490348AFF372
:1001E000008008BD000000006801002080130208A4
:1001F00001F0FF01102A2BDB10F0070F08D010F8D8
:10020000013B013A8B422DD010F0070F42B3F6D1DB
:10021000F0B441EA012141EA014122F007047FF0F4
:1002200000070023F0E80256083C85EA010586EA4B
:10023000010685FA47F5A3FA87F586FA47F6A5FA87
:1002400087F68EB9EED1F0BC01F0FF0102F0070293
:1002500032B110F8013B013A83EA010313B1F8D13E
:100260000020704701387047002D06BF354603381F
:10027000073815F0010F07D1013015F4807F02BF58
:10028000013015F4C03F0130F0BC0138704700BFA9
:1002900053B94AB9002908BF00281CBF4FF0FF31ED
:1002A0004FF0FF3000F06EB9ADF1080C6DE904CEEF
:1002B00000F006F8DDF804E0DDE9022304B0704741
:1002C0002DE9F047089D04468C46002B40F08380C2
:1002D0008A42174647D9B2FA82F242B1C2F12000EF
:1002E00024FA00F09140974040EA010C94404FEA14
:1002F0001748230CBCFBF8F61FFA87FE08FB16C153
:1003000043EA014306FB0EF1994209D9FB1806F1B5
:10031000FF3080F01981994240F21681023E3B4441
:100320005B1AA4B2B3FBF8F008FB103344EA0344B1
:1003300000FB0EFEA64509D93C1900F1FF3380F001
:100340000581A64540F2028102383C4440EA06405D
:10035000A4EB0E0400261DB1D4400023C5E90043E0
:100360003146BDE8F08702B9FFDEB2FA82F2002A18
:1003700050D1CB1B4FEA174E1FFA87F80126B3FB6B
:10038000FEFC210C0EFB1C3341EA034108FB0CF37D
:100390008B4207D979180CF1FF3002D28B4200F260
:1003A000E9808446C91AA3B2B1FBFEF00EFB10111E
:1003B00043EA014408FB00F8A04507D93C1900F1C5
:1003C000FF3302D2A04500F2D9801846A4EB0804FE
:1003D00040EA0C40BFE78B4209D9002D00F0B18004
:1003E0000026C5E9000130463146BDE8F087B3FA82
:1003F00083F6002E4AD18B4202D3824200F2B880AB
:10040000841A61EB030101208C46002DA8D0C5E9B8
:10041000004CA5E7C2F1200320FA03F6974001FA49
:1004200002F04FEA174ED9403043030CB1FBFEF601
:100430001FFA87F80EFB161143EA014306FB08F189
:10044000994204FA02F409D9FB1806F1FF3C80F046
:100450008D80994240F28A80023E3B445B1A81B211
:10046000B3FBFEF00EFB103341EA034100FB08F33F
:100470008B4207D9791800F1FF3C73D28B4271D9B6
:1004800002383944CB1A40EA064678E7C6F1200C18
:1004900003FA06F422FA0CF31C4320FA0CF701FAD3
:1004A00006F34FEA144E21FA0CF11F433B0CB1FB4B
:1004B000FEF91FFA84F80EFB191143EA014109FB0A
:1004C00008FA8A4502FA06F200FA06F308D961181A
:1004D00009F1FF3048D28A4546D9A9F102092144E1
:1004E000A1EB0A01BFB2B1FBFEF00EFB101147EA0F
:1004F000014700FB08F8B84507D9E71900F1FF31BB
:100500002ED2B8452CD90238274440EA0940A7EB3F
:100510000807A0FB02894F45C64649461AD317D0A3
:100520005DB1B3EB0E0267EB010707FA0CFCF2407A
:100530004CEA0202F740C5E9002700263146BDE833
:10054000F0872E4628460BE70646E9E61846FDE604
:100550004345E5D2B8EB020E69EB04010138DFE751
:100560000846D2E760468DE78146B9E7664675E7FB
:1005700030464AE7ACF1020C394413E702383C44F8
:1005800024E700BF704700BFDFF834D0002103E04C
:100590000C4B5B58435004310B480C4B42189A42A9
:1005A000F6D30B4A02E0002342F8043B094B9A427F
:1005B000F9D304F005FD1FF0B3FE00F021FE7047F3
:1005C00000000320389F080800000020640100207C
:1005D0006401002000350120FEE700F027BC00F098
:1005E00095BC704710B5042104461FF020FE20463C
:1005F00010BD000038B50C4B0C4C18800C4B822001
:1006000019806368984740F6110398420AD1094D52
:1006100023682C60822098472B688220DB689847EB
:10062000002038BD0120FCE7800100204C000020A4
:1006300082010020840100204FF4A071F020FFF718
:10064000D9BF0000F7B52D4D2B6804461B698220E9
:10065000984780B22080002843D02B680DF1060215
:100660005B6901A982209847BDF80620A2F5B47203
:1006700092B20A2A37D90B23B2FBF3F2204B1B8824
:100680009A4201D95A1E92B2BDF8043040F6B831F0
:100690008B422AD8C3F571630E339BB20F21B3FB93
:1006A000F1F3184909888B4201D94B1E9BB2164EB3
:1006B000164D30682F68834281B28CBF591AC91A0F
:1006C000B8B2BA428CBF101A801A89B280B2014403
:1006D0000529C8BF33603368C8BF2A6063802B68B0
:1006E000A38003B0F0BD0022CEE7C3F56D630833ED
:1006F0009BB20E2BD2D80023D9E700BF8401002083
:100700008201002080010020880100208C0100204F
:1007100037B568460D461446FFF794FFBDF8000054
:1007200048B1BDF802302B60BDF80430C3F59F73AB
:1007300001332360012003B030BD7047704770471C
:10074000012380F8741080F87530704700207047DE
:1007500000207047836B0BB10846184770474FF66F
:10076000FF707047406803689B691847704770477F
:10077000704708B5036804469B6E98472368204677
:100780001B6E984700F0DAF8236820469B6D984767
:10079000292000F065FF00F0D1F8236820469B6D0A
:1007A0009847F8E710B504460BF08CFC2368204608
:1007B000D3F89030BDE81040184700F03BBC00F083
:1007C0003FBC00F045BC00F011BC00F045BC00F09F
:1007D0004DBC00F015BC000008B531B90A4B0B4AFE
:1007E0000B4840F26B211FF051FDC0E90F12003A97
:1007F0000849436418BF01220A70003B064A18BF2B
:100800000123137008BD00BFF8130208301402085A
:100810007E140208DA2F0120DB2F01200AF0CCBE63
:1008200010B57C2104461FF002FD204610BD90F853
:1008300077301BB1406803681B681847184670473B
:1008400030B590F8341090F87440104B8C421A7800
:100850000DD05AB90E4A0F490F4814880F4D0C801D
:10086000018811802980048001221A7030BD002A7D
:10087000FCD00948074A01881180054A074D1488B1
:100880002C80118004800022EFE700BFD42F0120CC
:10089000D02F0120D62F0120D22F0120D82F0120C8
:1008A00000F0F8BB012108B50022084606F0B6FEAC
:1008B0000A4B186028B90A4B0A4A25210A481FF03A
:1008C000E5FC00220421012006F06EFF074B1860B2
:1008D00018B9074B034A2921F0E708BD940100200D
:1008E00080150208C9150208F815020890010020B9
:1008F0003C160208024B4FF0FF31186806F0E4BEC8
:1009000094010020014B186806F018BF94010020E4
:10091000024B0021186806F0D7BE00BF94010020EA
:10092000FFF7F0BF03480449006800231A4606F0A9
:1009300081BF00BF900100200400002013B5084CC7
:1009400000231A4601A9206806F0B6FF20684FF080
:10095000FF33002201A906F0AFFF02B010BD00BFB7
:100960009001002003685B6C184700207047036803
:100970009B6A184740F2EF107047000010B5074C13
:10098000074B2360204604F021FC064B2361064BF5
:100990006361064B4FF080629A6010BDF83301200E
:1009A00000B00240CD090008B109000800E100E0F4
:1009B00008B5034A034B044836211FF067FC00BF0B
:1009C0007E160208A65C0208B1160208024B1B68DC
:1009D000586803685B691847DC2F0120084B10B585
:1009E00003600446074804F0BBFC074B4FF08062ED
:1009F000C3F88820BFF34F8FBFF36F8F204610BD21
:100A0000FC160208F833012000E100E010B50446AE
:100A1000FFF7E4FF20464FF442611FF008FC204638
:100A200010BD0000044B1B6893F876200AB1D86C07
:100A300000B99868704700BFDC2F01202DE9F7430B
:100A40000D68202D0C4600F09F80402D00F09C800A
:100A50002A1F56425641802D00F09880A5F58073DC
:100A60005D425D41FFF7DEFF0368DB69984723685D
:100A7000802B014600F09C8000F28A80202B00F041
:100A80009A80402B00F09780042B00F0888010297A
:100A90000CBF4FF0020C4FF0010C00224D4BB4F88C
:100AA0001080D3F800E0E78ADEF800905A60102941
:100AB00029F440390CBF02200120A7EB080749EABE
:100AC00002029860DF60CEF80020DEF83420C3F820
:100AD0002CC022F007020243CEF83420DEF840207A
:100AE00022F47F5222F03F023A43CEF84020A28AFD
:100AF000A2EB08029A6206B99DB3227FFF2A15BFB6
:100B00004FF0020C4FF0000CC3E90CC2C3F830C028
:100B10000DB310294FEA026E50D1A1694FF01F08A2
:100B200001EA0802C1F3C42CC2EB0222B2FBF8F2C4
:100B300042EA0E02CCEB0C2CC1F34511BCFBF8FCD5
:100B400042EA0C42C1EB01214FF03F0CB1FBFCF13A
:100B500042EA01225A63C3E9067000211D4804F0ED
:100B6000BFFC1C48012104F0BBFC238A628A06B941
:100B700045B3CDE90032E368616816481A4604F0CF
:100B80006FFB03B0BDE8F083012667E7012569E745
:100B9000B3F5807F7FF47BAF4FF0090C05E01028A0
:100BA0000CBF4FF0020C4FF0010C4FF4003275E710
:100BB0004FF00A0CF9E74FF0000CF6E7A2694EEA95
:100BC0000202C7E700926168E268024804F02AFB6B
:100BD000D7E700BFF8330120F7B50D46FFF722FF36
:100BE0000368DB6998471028297F68D1AA6902F059
:100BF0001F03C3EB03231F20B3FBF0F4C2F3C42392
:100C000044EA0164C3EB0323C2F34512B3FBF0F3E0
:100C100044EA0344C2EB02223F230221B2FBF3F277
:100C200044EA02242B682848EE8A0268082B2B8AA3
:100C3000A6EB03061368C6600CBF4FF400374FF4F1
:100C4000403723F440333B43C0E901711360536BD9
:100C500023F007030B435363136C23F47F5323F0F8
:100C60003F033343B7F5003F13641CD10123C0E9B0
:100C70000C340923C0E90661C362002104F030FC92
:100C80000121114804F02CFCB7F5003F2A8A698A3B
:100C90000DD1EB680C48CDE900211A46194604F045
:100CA000DFFA03B0F0BD0023C1628362E8E7009180
:100CB00013462146EA68044804F0B4FAF1E7AC6947
:100CC00044EA01640121ADE7F833012070B5044620
:100CD00025460A4B0C30002660602672667245F885
:100CE000203B602229460BF01DFB04F54263AE61F8
:100CF0002035AB42FBD1204670BD00BFFC16020878
:100D00000120704754207047542303FB0100083032
:100D10007047542303FB01000830704701207047DF
:100D200041F21810704741F2181303FB010008301C
:100D3000704741F2181303FB01000830704701208F
:100D400070471020704700EB01100830704700EB2F
:100D5000011008307047084601F05EB910B5034B2A
:100D60000360044608F076FD204610BDB417020863
:100D700010B50446FFF7F2FF20465C211FF057FA3A
:100D8000204610BD10B5034B0360044608F062FD19
:100D9000204610BD8017020810B50446FFF7F2FF89
:100DA00020464FF489511FF042FA204610BD000042
:100DB00010B5034B0360044608F04CFD204610BDFF
:100DC0004C17020810B50446FFF7F2FF2046182121
:100DD0001FF02DFA204610BD10B5094B03600446E4
:100DE00000F58A500C30FFF7B9FF04F12C00FFF733
:100DF000C9FF04F11400FFF7DBFF204610BD00BF60
:100E0000E817020808B50248FFF7E6FF08BD00BF73
:100E10009C01002010B50446FFF7DEFF204641F29A
:100E20000C311FF004FA204610BD00002DE9F341FB
:100E300000F06EFF054600F06FFF002401462346D8
:100E400028462246009411F0C7FF254B254A264D1F
:100E50001A60204603F05EFB244811F0FFFE2B7859
:100E6000BFF35B8FDB0734D428461FF0E2F980B371
:100E70001F4C204B236004F1140004F12C0800F5F2
:100E80008D5608F589576060C4F80880E7602661D0
:100E900008F0E2FC184B6361404608F0DDFC174B9C
:100EA000E362384608F0D8FC154B3B60A6F10C0015
:100EB00003F0ACFC2246A6F10C01304603F0A2FB85
:100EC000304601F0A9F828461FF0BFF90D481FF081
:100ED000FBF90D4802B0BDE8F041FFF7E1BC00BFEF
:100EE00058300120482100209801002008000020EF
:100EF0009C010020E81702084C170208801702081E
:100F0000B4170208050E0008CC2000200148FFF7A6
:100F100030BC00BFCC20002070B5244C244E254BA3
:100F2000254D23603046FFF7D1FE284614F0E0FF40
:100F3000224B2348DC600022C3E9190221481A85AC
:100F40000360214883F82A20C3E90165F0241F4D7E
:100F500004804FF4A0704FF4807128801C4DA3F8DA
:100F60004810A3F876100121C3E90422C3E9062240
:100F7000C3E90822C3E90E22C3E91022C3E9132200
:100F8000DA621A8683F84A205A6583F86C201A6759
:100F900083F8752083F878102A700E4A83F834108D
:100FA00014800D4A10800D4A1A6070BDA8140020EC
:100FB000AC140020E81302084C210020CC200020B3
:100FC00001000001DC2F0120D02F0120D22F0120B1
:100FD000D42F0120D62F0120D82F0120CC140208B5
:100FE0000148FFF7FBBC00BFAC140020034B90226C
:100FF00083F85A2383F85823704700BF00E100E0CC
:10100000094A0A49D3680A48C3F30A03013B9BB261
:101010000B801169C1F30A01013901801364536B1C
:1010200043F001035363704700680140C62100206C
:10103000C4210020014B986A704700BF84680140BA
:10104000024B0122996243F8602C7047846801408A
:101050000AF0B8BA0AF0DDBB034B4FF080629A6029
:101060004FF080729A60704700E100E0084B4FF04B
:101070008062C3F88820BFF34F8FBFF36F8F4FF0AC
:101080008072C3F88820BFF34F8FBFF36F8F704714
:1010900000E100E070B504460AF08CFD2368DD6CC9
:1010A0000EF028FD01462046A8472368044A1D6F1C
:1010B0002046AC460023BDE87040A2F516316047DB
:1010C000005802D0134B144A1B6C11888B4210B588
:1010D000124C13D1124B198805F00EF9226892F8C0
:1010E0006630013382F86630FFF71CFC20680AF096
:1010F000E9FFBDE810400020FFF71FBB05F0FCF83A
:101100000020FFF71BFB20680368BDE810409B69C7
:10111000184700BF00680140C6210020DC2F0120D5
:10112000C421002007B5064BADF806001B68054832
:1011300001220DF1060105F0DEFD03B05DF804FBB0
:1011400010000020EC320120F0B5A1B010220021E7
:101150000AA81FF027F91422002103A81FF022F982
:101160000021302214A81FF01DF90024224B019405
:101170001A6C42F080521A641B6C03F08053019386
:10118000019B1E4B02941A6842F440421A601B688D
:1011900003F4404302930122029B4FF48033CDE9D4
:1011A000082302254FF48003CDE90E5308274FF49E
:1011B000A873042608A8CDE910731295139605F0BC
:1011C000B9F80F23CDE903354FF4A0514FF4805304
:1011D000CDE9061303A80521059405F081FAC02383
:1011E000189314A84FF4003314971A961D9305F022
:1011F00041FB21B0F0BD00BF00380240007000404C
:1012000080B5A4B003F0EAFEFFF79EFF1422002190
:1012100017A800241FF0C6F8C04B01941A6BC048F1
:10122000C04D42F020021A631A6B02F020020192B4
:10123000019A02941A6B42F080021A631A6B02F050
:1012400080020292029A03941A6B42F004021A631B
:101250001A6B02F004020392039A04941A6B42F090
:1012600001021A631A6B02F001020492049A0594B7
:101270001A6B42F002021A631A6B02F00202059224
:10128000059A06941A6B42F040021A631A6B02F038
:1012900040020692069A07941A6B42F010021A63F3
:1012A0001A6B02F010020792079A08941A6B42F028
:1012B00008021A631B6B03F00803089322460421FB
:1012C000089B04F03BFA224697484FF4405104F043
:1012D00035FA012602274FF004089148199417A9FE
:1012E000CDE917861A9704F03FF917A94FF4405338
:1012F0008D48CDE91736CDE9194704F035F98B480B
:101300008B4B036003F010FF8A4A8B4B2C62C5E9BC
:10131000002328464FF48043C5E90434C5E902445C
:10132000C5E9064404F0ECFB1021284604F028FE31
:101330002146284604F043FE8048814984624FF4E8
:101340008273C0E900134FF400751823C0E90653F7
:101350000A237C4DC362C0E90244C0E90444C0E9E9
:10136000084405F08BFC784B17974FF0100CC5E93B
:1013700000364023C5E904C34FF4C073C5E9063401
:101380004FF40063C5E908344FF40053AB624FF0EB
:10139000030A072317A92846CDE918381A934FF0F6
:1013A0000809C5E90248CDE91BA71D9705F08CFB8C
:1013B0004FF6FF720AA92846CDE90B9609940A96C2
:1013C0000D9405F0A1FB304603F034FE4FF6FF729A
:1013D0000AA92846CDE90A79CDE90C6405F094FB09
:1013E0004FF6FF720AA92846CDE90AA9CDE90C8477
:1013F00005F08AFB4FF40C730993099B0D934FF68C
:10140000FF720AA92846CDE90A890C9605F07CFBF3
:1014100040F26A51284605F08EFB342221460AA884
:101420001EF0C0FF3422214617A81EF0BBFF474D17
:10143000474BAC86C5E900340923C5E905361D23B1
:1014400040F20D1EC5E9073A40F24313C5E909E32E
:1014500040F2171840F247132846C5E90B83C5E947
:1014600002442C6185F8364004F04EFEF022FF2144
:101470004FF4A073CDE90B24CDE90F14CDE913424D
:101480004FF480694FF0050822460AA92846CDE9A5
:101490000D371593CDE911980A94ADF858408DF8A1
:1014A0005A4004F0FCFE324617A92846CDE91744FD
:1014B000284D2294CDE91944CDE91C44CDE91E986C
:1014C000CDE92044ADF88C408DF88E4004F0E7FE65
:1014D000214B2B601B6898472B68204DDB68984791
:1014E0001F4BC5E90A47C5E90C442846C5E9003445
:1014F000C5E9027403F06AFE3146284603F0F0FFA6
:10150000FFF76BF805F0FAFF164A1748214606F078
:101510002FF8164B186006F00BF8FEE70038024073
:101520000008024098320120000C024044330120A0
:1015300000300240005C0040A0860100EC32012037
:101540000050014038340120400100A04C330120FC
:1015500000680140C821002014000020F833012059
:1015600000B0024000180208DF050008F433012033
:10157000704770477FB5094B8DF817201B680293A1
:101580000DF117020123009201930A460146044817
:1015900004F05EFB07B05DF804FB00BF0C00002008
:1015A000983201207FB500238DF81730084B1B6857
:1015B00002930A4601230DF11701009101930146A0
:1015C000044804F0D5FB9DF8170007B05DF804FB54
:1015D0000C000020983201201FB5084C24680092AE
:1015E000CDE901340A4601230146054804F0C0FB59
:1015F000003818BF012004B010BD00BF0C0000204F
:101600009832012003F016BD08B5064800220421D7
:1016100004F094F8BDE8084002480122042104F0D7
:101620008DB800BF0008024038B50B4D04460122BA
:101630000A484FF4005104F081F8002204212846A2
:1016400004F07CF82046FFF76DFD28460122BDE836
:101650003840042104F072B800080240000C024037
:1016600038B50B4D044600220A484FF4005104F0EF
:1016700065F800220421284604F060F82046FFF7B0
:1016800051FD28460122BDE83840042104F056B837
:1016900000080240000C0240F7B5144E144F0546F6
:1016A0000C4630460022042104F048F800224FF492
:1016B0000051384604F042F82846FFF733FD0D4B41
:1016C0000D481B68224601A905F0A8FC38460122F6
:1016D0004FF40051019C04F031F8304601220421FE
:1016E00004F02CF8204603B0F0BD00BF0008024013
:1016F000000C024010000020EC32012003F09ABCE4
:101700000268034B9A4201D103F082BC704700BFCC
:101710000010004082B00E4B00220092596C41F440
:1017200080415964596C01F4804100910099019203
:10173000196C41F0805119641B6C03F080530193C4
:10174000019B0F216FF0010002B003F099BC00BFB4
:10175000003802400268094B9A4282B00BD1002344
:101760000193074B1A6B42F480521A631B6B03F40C
:1017700080530193019B02B0704700BF00300240CC
:101780000038024007B50F4B02689A4216D100227A
:10179000A3F5F0430192196B41F4000119631B6B2F
:1017A00003F40003019305215A20019B03F068FC18
:1017B0005A2003B05DF804EB03F094BC03B05DF86D
:1017C00004FB00BF00B002400268064B9A4207D1FA
:1017D000054A136B23F4000313635A2003F090BCF3
:1017E000704700BF00B00240003802402DE9F043CE
:1017F000044689B01422002103A81EF0D3FD2268FC
:10180000244B9A4243D1244C244800250095236B55
:1018100043F004032363236B03F004030093009B52
:101820000195236B43F001032363236B03F0010352
:101830000193019B4FF012094FF400734FF0010820
:101840000327042603A9CDE90339CDE905870796C7
:1018500003F08AFE4FF480731148079603A9CDE97F
:101860000339CDE9058703F07FFE0295236C43F42D
:1018700000032364236C03F400030293029B236A96
:1018800043F400032362236A23F40003236209B0B4
:10189000BDE8F083005C00400038024000080240D0
:1018A00000000240F0B504468DB01422002107A8C4
:1018B0001EF078FD2268574B9A4240F0A98003F54C
:1018C0005043002400945A6C534842F080625A649A
:1018D0005A6C02F080620092009A01941A6B42F0F6
:1018E00020021A631A6B02F020020192019A0294FC
:1018F0001A6B42F001021A631A6B02F001020292A3
:10190000029A03941A6B42F002021A631A6B02F0F5
:1019100002020392039A04941A6B42F040021A6383
:101920001A6B02F040020492049A05941A6B42F07A
:1019300004021A631A6B02F004020592059A0694D7
:101940001A6B42F008021A631B6B03F0080306933C
:1019500002250E26069B0B964FF4806307A9CDE95E
:101960000735CDE9094503F0FFFD41F658032B4843
:101970000B9607A9CDE907350927CDE9094503F0FD
:10198000F3FD032326480B9707A9CDE90735CDE9D9
:10199000094503F0E9FD4FF4706321480B9607A950
:1019A000CDE90735CDE9094503F0DEFD4FF40C63C1
:1019B0001C480B9607A9CDE90735CDE9094503F089
:1019C000D3FDC02318480B9607A9CDE90735CDE90B
:1019D000094503F0C9FD082314480B9607A9CDE972
:1019E0000735CDE9094503F0BFFD4FF4A0530D487D
:1019F0000B9707A9CDE90735CDE9094503F0B4FDFB
:101A000058202246052103F03BFB582003F06AFBD7
:101A10000DB0F0BD0068014000140240000002401B
:101A2000000402400018024000080240000C02407E
:101A300010B5044688B01422002103A81EF0B2FCA1
:101A40002268154B9A4224D103F568430022019283
:101A5000596C41F480115964596C01F48011019161
:101A600001990292196B41F0200119631B6B0592D9
:101A700003F0200302934FF46071029B0223CDE92F
:101A8000031303200523CDE9060303A9034803F04C
:101A90006BFD08B010BD00BF0050014000140240B3
:101AA0002DE9F0412C4B1C6886B0002C50D14FF032
:101AB0000108C3F80080294B00949A6B284842EA39
:101AC00008029A639B6B039403EA080300930227BE
:101AD00003260C25009B01A94FF63F03CDE90137F2
:101AE000CDE9046503F040FD1E48059501A9CDE947
:101AF0000187CDE9034603F037FD48F233131A4856
:101B0000059501A9CDE90137CDE9034603F02CFD88
:101B10004FF683731548059501A9CDE90137CDE945
:101B2000034603F021FD4CF203731148059501A90A
:101B3000CDE90137CDE9034603F016FD60230D48DA
:101B4000059501A9CDE90137CDE9034603F00CFD68
:101B500006B0BDE8F08100BFCC2100200038024073
:101B60000014024000080240001802400010024029
:101B7000000C02400004024030B5014689B000224A
:101B8000362003F07DFA362003F0ACFA0025154B21
:101B900002951A6C144C42F010021A641B6C03F08C
:101BA0001003029301A903A8029B04F045FE04F070
:101BB00033FE0E4B236040F2E733E36040000C4BF2
:101BC000B0FBF3F00138606020462561A56005F0A8
:101BD000D9FB20B9204605F0B9FA09B030BD012083
:101BE000FBE700BF003802406C34012000100040C9
:101BF00040420F007047FEE7FEE7FEE7FEE7704752
:101C0000014805F0B7BA00BF6C340120014804F068
:101C1000E9BA00BF4C330120014803F0D7BB00BF35
:101C2000F83301200120704708B51EF061FB162330
:101C300003604FF0FF3008BD08B51EF059FB1623B6
:101C40000360FEE770B50E4614460025A54201DB91
:101C5000204670BDAFF3008070550135F6E770B5D2
:101C60000E4614460025A54201DB204670BD705D7E
:101C7000AFF300800135F6E74FF0FF3070474FF4C7
:101C800000534B60002070470120704700207047D0
:101C900008B50A4B1968024609B90949196018685C
:101CA000694602448A4206D91EF022FB0C230360D7
:101CB0004FF0FF3008BD1A60FCE700BFD0210020C4
:101CC00000350120704710B5042104461EF0AFFA1C
:101CD000204610BD08B5042918D8DFE801F0030735
:101CE0000B0F130002F062FC006808BD02F05EFCFE
:101CF0004068FAE702F05AFC8068F6E702F056FC0A
:101D0000C068F2E702F052FC0069EEE70020ECE761
:101D100000487047381802080820704713B500249F
:101D200051B1036801948DF8034001AA9C680DF13C
:101D30000303A04702B010BD0846FBE74089704787
:101D4000808970478088704783798088184480B282
:101D50007047C07900F07F007047C079C0097047B4
:101D6000704710B5082104461EF061FA204610BDE8
:101D7000704700F596730868496803C37047704759
:101D80007047416070477047012303727047704786
:101D9000034610B49A6B8A42084608D00A68B3F921
:101DA0005010146D002223465DF8044B18475DF86F
:101DB000044B704770477047704700000B68084637
:101DC00002491B6DB1F9001000221847D02F0120E5
:101DD00030B4C26844685510034604EB6200D20771
:101DE00048BF62599B6830BC48BFD3581847436806
:101DF0002BB183682BB9C06800F00100704718460A
:101E000070470120704710B4C268416854100346FF
:101E100001EB6200D20748BF0A599B685DF8044B8A
:101E200048BFD358184743682BB183682BB9C068A3
:101E300000F001007047184670470120704710B548
:101E40000C2104461EF0F3F9204610BD10B51021F8
:101E500004461EF0ECF9204610BD10B54FF4AC71ED
:101E600004461EF0E4F9204610BD10B55421044686
:101E70001EF0DDF9204610BD10B5102104461EF0FD
:101E8000D6F9204610BD10B50DF034FE0368BDE84C
:101E900010401B6B18470000054B1B7801462BB107
:101EA000406818B103680C311B6E1847704700BFBB
:101EB000DB2F01201F4B1B7810B5044613B90123FB
:101EC000037210BD90F84D0094F84C300130C0B250
:101ED000984284F84D0024D8B4F94E2000210FF028
:101EE0003FFB10F0010283B221D04FF6FF710028B2
:101EF000D8BF0A461344A4F85030B4F85010238ACF
:101F0000C91A09B2A4F8501004F10C0000220EF016
:101F1000C4FD6068036804F13C015B6FBDE81040DC
:101F2000184701232372002384F84D30C9E7A4F831
:101F30005000E2E7DB2F012010B50446D0F83C0149
:101F400058B10368DB68984738B1D4F83C0103689E
:101F50009B6898470023C4F83C3110BD1FB50C4B5B
:101F60001B7804468BB10B4B1C22CDE900300123BA
:101F7000CDE902234068036869465B6F9847606853
:101F8000036804F10C01DB6D984704B010BD00BF7D
:101F9000DB2F0120E4200208F8B5044617460E4660
:101FA0000DF010FE104B0025C4E954760F4E1C6056
:101FB000C4E952550E4B306823600E4BC4E95035CE
:101FC000036801219B68C4E94E559847284602F0F2
:101FD000A1FA336893F876200AB1D86C00B99868F2
:101FE00015F0E7FB2046F8BD48300120DC2F01202A
:101FF0007C20020864200208064BC0F84831002308
:10200000C0F84C3100F5A073C0F84401C0F83C3171
:10201000704700BFC1230008064BC0F848310023B9
:10202000C0F84C3100F5A073C0F84401C0F83C3151
:10203000704700BFD9210008064BC0F84831002383
:10204000C0F84C3100F5A073C0F84401C0F83C3131
:10205000704700BF19250008064BC0F8483100231F
:10206000C0F84C3100F5A073C0F84401C0F83C3111
:10207000704700BF71260008064BC0F848310023A6
:10208000C0F84C3100F5A073C0F84401C0F83C31F1
:10209000704700BFC92700082DE9F84F0746906830
:1020A000DDF828A0994603681B6A884614469847BD
:1020B000B0F5BA7F05D2424B424AA72142481EF0F2
:1020C000E5F8606803681B6A98470F2803D83F4B00
:1020D0003C4AA821F2E7E06803681B6A98470B288E
:1020E00003D83B4B374AA921E8E70DF003FD0DF07B
:1020F0004FFDD9F8000010B10368DB689847D9F8A4
:10210000000010B103681B689847386810B1036875
:102110005B699847D8F8000010B103685B6898477E
:10212000386810B103681B689847D8F8000010B1F0
:1021300003689B689847E068036800215B6A9847DA
:102140004FF0000B234B03600546C0F804B080F845
:1021500008B0A068036859465B6A9847064602F0D3
:1021600083FA6068036859465B6A984731460446BB
:1021700002F060FAC9F80050C8F800403E60E4B1CF
:10218000231DCAF808303368C4F808A03046DB685D
:10219000F4639847236820461B68984729463046D1
:1021A0000FF097F92B6828461B6998472B6828463B
:1021B0005B6998472046BDE8F88F2346E1E700BFFA
:1021C000E818020876190208741A0208BB1A0208F5
:1021D0005E1B0208C020020807B5D0F854310093F6
:1021E000D0F85021044B00F59C710448FFF754FFD0
:1021F00003B05DF804FB00BF3C3001203830012003
:1022000003685B6A184700002DE9F0410546002687
:102210001A4B4660067245F80C3B044628460F46AA
:102220000BF0ECF9164BA563C4E90F34202201230F
:10223000C4E91123134B84F84C701B7884F84D606B
:10224000A4F85060B3B1104B104FB3F90080E368AD
:10225000B7F900105B6B266128469847E368414652
:102260009B6B2846984728460BF043F93B885B4216
:10227000A4F84E302046BDE8F08100BFFC200208E3
:10228000E4200208DB2F0120D22F0120D02F0120D3
:102290002DE9F04707469068DDF820A099460368CD
:1022A0001B6A884614469847B0F5047F05D23F4B19
:1022B0003F4AA7213F481DF0E9FF606803681B6A99
:1022C00098470F2803D83C4B394AA821F2E7E06829
:1022D00003681B6A9847532803D8384B344AA9210E
:1022E000E8E70DF007FC0DF053FCD9F8000010B141
:1022F0000368DB689847D9F8000010B103681B68D1
:102300009847386810B103685B699847D8F80000AF
:1023100010B103685B689847386810B103681B68A0
:102320009847D8F8000010B103689B689847E068A8
:102330000021FFF765FF14210546FFF765FFA06840
:10234000036800215B6A9847064602F0E3FA60687A
:10235000036800215B6A98473146044602F06AFA36
:10236000C9F80050C8F800403E60E4B1231DCAF827
:1023700008303368C4F808A03046DB68F463984737
:10238000236820461B689847294630460FF0A1F87D
:102390002B6828461B6998472B6828465B69984735
:1023A0002046BDE8F0872346E1E700BFE8180208B1
:1023B000011C0208741A0208BB1A02085E1B0208FC
:1023C00007B5D0F854310093D0F85021044B00F5F4
:1023D0009C710448FFF75CFF03B05DF804FB00BF8D
:1023E0003C300120383001202DE9F0470746906845
:1023F000DDF820A0994603681B6A88461446984772
:10240000B0F5BA7F05D23F4B3F4AA7213F481DF0A8
:102410003DFF606803681B6A98470F2803D83C4B50
:10242000394AA821F2E7E06803681B6A98475328F5
:1024300003D8384B344AA921E8E70DF05BFB0DF0D7
:10244000A7FBD9F8000010B10368DB689847D9F8FA
:10245000000010B103681B689847386810B1036822
:102460005B699847D8F8000010B103685B6898472B
:10247000386810B103681B689847D8F8000010B19D
:1024800003689B689847E0680021FFF7B9FE1421B4
:102490000546FFF7B9FEA068036800215B6A98470C
:1024A000064602F0E1F86068036800215B6A98471D
:1024B0003146044602F0BEF8C9F80050C8F80040A2
:1024C0003E60E4B1231DCAF808303368C4F808A0A0
:1024D0003046DB68F4639847236820461B689847BA
:1024E000294630460EF0F5FF2B6828461B699847B1
:1024F0002B6828465B6998472046BDE8F08723464D
:10250000E1E700BFE8180208181D0208741A020863
:10251000BB1A02085E1B020807B5D0F854310093BD
:10252000D0F85021044B00F59C710448FFF75CFF84
:1025300003B05DF804FB00BF3C30012038300120BF
:102540002DE9F04707469068DDF820A0994603681A
:102550001B6A88461446984741F21713984205D8DB
:102560003E4B3F4AA7213F481DF090FE606803683C
:102570001B6A98470F2803D83B4B394AA821F2E73A
:10258000E06803681B6A9847532803D8374B344ADE
:10259000A921E8E70DF0AEFA0DF0FAFAD9F800003B
:1025A00010B10368DB689847D9F8000010B10368E0
:1025B0001B689847386810B103685B699847D8F87A
:1025C000000010B103685B689847386810B1036871
:1025D0001B689847D8F8000010B103689B689847BB
:1025E000E0680021FFF70CFE14210546FFF70CFE02
:1025F000A068036800215B6A9847064602F0ECF881
:102600006068036800215B6A98473146044602F01F
:1026100057F8C9F80050C8F800403E60E4B1231DE7
:10262000CAF808303368C4F808A03046DB68F463A1
:102630009847236820461B689847294630460EF085
:1026400048FF2B6828461B6998472B6828465B691A
:1026500098472046BDE8F0872346E1E7E8180208DE
:10266000291E0208741A0208BB1A02085E1B02081F
:1026700007B5D0F854310093D0F85021044B00F541
:102680009C710448FFF75CFF03B05DF804FB00BFDA
:102690003C300120383001202DE9F0470746906892
:1026A000DDF820A0994603681B6A884614469847BF
:1026B000B0F56A6F05D23F4B3F4AA7213F481DF056
:1026C000E5FD606803681B6A98470F2803D83C4BF8
:1026D000394AA821F2E7E06803681B6A9847532843
:1026E00003D8384B344AA921E8E70DF003FA0DF07E
:1026F0004FFAD9F8000010B10368DB689847D9F8A1
:10270000000010B103681B689847386810B103686F
:102710005B699847D8F8000010B103685B68984778
:10272000386810B103681B689847D8F8000010B1EA
:1027300003689B689847E0680021FFF761FD14215A
:102740000546FFF761FDA068036800215B6A9847B2
:10275000064602F08BF96068036800215B6A9847BF
:102760003146044602F02EF9C9F80050C8F800407E
:102770003E60E4B1231DCAF808303368C4F808A0ED
:102780003046DB68F4639847236820461B68984707
:10279000294630460EF09DFE2B6828461B69984757
:1027A0002B6828465B6998472046BDE8F08723469A
:1027B000E1E700BFE8180208421F0208741A020885
:1027C000BB1A02085E1B020807B5D0F8543100930B
:1027D000D0F85021044B00F59C710448FFF75CFFD2
:1027E00003B05DF804FB00BF3C300120383001200D
:1027F000006A704770478B8880690A68DB0A50F866
:1028000023001044704710B5C2B1137BB3B1547BA1
:10281000D27A240204F4E0641443C26998B202EB51
:10282000840213888B4202D192F9020010BD05D8B0
:10283000013880B204320028F3D1F7E70020F5E731
:1028400010B5242104461DF0F2FC204610BD000006
:1028500030B589B00446BDF850500695BDF84C50CF
:1028600005959DF8405004959DF83C5003959DF8C2
:10287000385002959DF8345001959DF830500095E0
:102880000EF09CF9054B2360119BA361129BE36141
:10289000159B2362204609B030BD00BF28210208E5
:1028A0000020704781807047C18070470181704768
:1028B000418170477047704770477047704710B448
:1028C000C4880368121B84881B6D091B12B25DF853
:1028D000044B09B218474FF6FF7383814FF0FF3363
:1028E00003621368C3611060704770477047704798
:1028F0007047704790F825201AB190F8242002B153
:102900001860704770477047704730B4C2684468B9
:102910005510034604EB6200D20748BF62599B681A
:1029200030BC48BFD358184743682BB183682BB9D4
:10293000C06800F0010070471846704701207047DA
:1029400010B5102104461DF072FC204610BD10B5D4
:102950004FF4BA7104461DF06AFC204610BD08B55C
:1029600000F19803994205D10DF0C4F8BDE8084084
:10297000FFF742BBE030814205D10DF0BBF8BDE866
:102980000840FFF779BB08BD70B503680446DB6AF1
:10299000154698472368294620461B6BBDE87040C2
:1029A000184770B504461D46BDF91060FFF7ECFFEF
:1029B0002368294620465B6B9847236831462046AA
:1029C0009B6BBDE870401847084901604FF4807167
:1029D00000228184FF21C0E90122C0E90322C0E96D
:1029E0000522C26180F8261082627047804A020880
:1029F00073B5018F4FF6FF739942064633D01C4BD7
:102A00001B682BB91B4B1C4AB1211C481DF03EFC16
:102A10001B4A12888A4203D81A4B174AB221F4E79C
:102A200013F81120184B1B6853F82250174B1868E5
:102A300001F0ACFD2B68019001469B6A284698473F
:102A40002B6801991B6C0446284698472B6801990E
:102A50005B6A14FB00F428469847E4B2044486F805
:102A6000454002B070BD002380F84530F9E700BF53
:102A70004C30012074210208B6210208E42102082A
:102A8000503001202B220208543001205830012000
:102A900013460C4A70B515682DB90B4B0B4A0C4800
:102AA00035211DF0F3FB95F876200AB1EC6C04B9E2
:102AB000AC682268956A0A46AC4601462046BDE8E5
:102AC00070406047DC2F01207D220208C0220208EE
:102AD0001C2302082DE9F04F044689B0A0460025CA
:102AE0000EF07CFB6D4BE56348F8403B04F16C0A4B
:102AF0004046FFF769FF04F198075046FFF764FF6F
:102B000004F1E00638460BF00DFB30460BF00AFBF3
:102B10004FF48073A4F84C31614BC4F82831614BF9
:102B2000C4F850314FF6FF73A4F854314FF47F03CB
:102B3000C4F85C315C4BC4F84451C4E959345B4B74
:102B4000C4F858514FF4A07BC4E95B35CDF800B010
:102B5000F0232A4629464046C4E94B55C4E94D5561
:102B6000C4E94F55A4F86051FFF71BFF2A462946D8
:102B70002846FFF78DFFF023A066CDF800B02A4667
:102B800029465046FFF70DFFD62281215020FFF73E
:102B90007FFFA022C4F8940023213846FFF7F4FEFB
:102BA0004FF003024FF0020B05A9ADF8182038468C
:102BB00006AAADF814B00AF05FFFA4F8D0B038460A
:102BC000FFF716FFFF2211461046FFF761FFFF22B5
:102BD000C4F8D40011461046FFF75AFF04F5B2734B
:102BE000C4F8C030C4F8D800E9223046232103934A
:102BF000FFF7CAFE06AA05A9ADF814B030464FF09B
:102C0000030BADF818B00AF037FF3046A4F818B13E
:102C1000FFF7EEFEFF2211461046FFF739FFFF22B5
:102C2000C4F81C0111461046FFF732FF04F59479F1
:102C3000039BC4F80831C4F82001412248462F21E3
:102C4000FFF7A2FE2A4629462846FFF721FF154B2B
:102C5000C4F85801069306A907234846A4F85C5116
:102C6000ADF81C300AF0C9FE201D4146039008F063
:102C700063FB0398514608F05FFB0398394608F060
:102C80005BFB0398314608F057FB0398494608F070
:102C900053FB204609B0BDE8F08F00BF8023020837
:102CA000D8490208E0180208682302085F290008D2
:102CB000806A70477047704710B5B42104461DF014
:102CC000B6FA204610BD0000064A02600022C0E9A4
:102CD0000122C0E90322C0E90522C2614FF48072DB
:102CE00082847047285002082DE9F743044626469F
:102CF0000025FFF7E9FF4E4BA56246F82C3B29461D
:102D0000262230461DF04EFB3046FFF7DDFF4FF028
:102D1000FF09484BE36204F16007262229466565F6
:102D2000A565A4F85C5084F8529038461DF03AFB33
:102D30003846FFF7C9FF4FF6FF73A4F88C304FF405
:102D40007F03C4F894303C4B2366DFF814813B4B7F
:102D5000A3602946C4F89050A4F89850C4F89C5039
:102D60003046C4F88880FFF79DFD29463046FFF7BE
:102D70009BFD64213046FFF799FD28213046FFF77F
:102D800097FD4A4649464846FFF782FED022114643
:102D900060651046FFF77CFE0323A4F85C30CB236C
:102DA00084F852304FF42023A06563662A462946F2
:102DB0002846FFF76DFE224BA4F894501B68C4F818
:102DC000900004F1A0052BB91E4B1F4AB1211F48EA
:102DD0001DF05CFA1E4B1B880F2B03D81D4B1A4AA3
:102DE000B221F4E71C4B0F21186801F0CFFB1B4AFE
:102DF00003460A2128460FF023FF3846C4F89C50AA
:102E00000AF0DEFD0B2369463846ADF80430CDF8F4
:102E100000800AF0F2FD3146204608F08DFA204687
:102E2000394608F089FA204603B0BDE8F08300BFB8
:102E3000B8230208C04B0208184B0208640028009F
:102E40004C30012074210208B6210208E421020856
:102E5000503001202B22020858300120AC230208F8
:102E6000E018020841727047407A70477047704717
:102E7000704730B4C26844685510034604EB6200E2
:102E8000D20748BF62599B6830BC48BFD358184727
:102E900043682BB183682BB9C06800F0010070470C
:102EA000184670470120704710B5102104461DF0E8
:102EB000BEF9204610BD10B54FF4885104461DF0F0
:102EC000B6F9204610BD08B500F51473994205D136
:102ED0000CF010FEBDE80840FFF7CEB800F52670F4
:102EE000814205D10CF006FEBDE80840FFF7A4B80A
:102EF00008BD00004FF6FF7238B500230281104A6A
:102F00004360C0E9033302600446FDF78BFD0368AC
:102F10001B6A98470B4B1B68B0FA80F5D86C6D099B
:102F200028B103681B6A9847002808BF01252DB9FE
:102F3000054B064A06482F211DF0A8F9204638BD4A
:102F400070460208DC2F01203C2402089A24020863
:102F5000D32402082DE9F04F2DED028B044689B0F1
:102F60000EF03CF922460025A04BE56342F8403BB9
:102F7000104608EE102AFFF727FD04F16C0304F158
:102F80009806184608EE903A04F5CC7AFFF71CFD37
:102F9000304606F029FD4FF6FF785046ADF8188010
:102FA000FFF7A8FF924BC4F8983106A9C4E96D5801
:102FB0005046C4E96B55C4F8BC51A4F8C05109F09F
:102FC00077FC84F8A18104F5E27804F51479404691
:102FD00008F066F804F5267B48460BF0A3F858463F
:102FE0000BF0A0F8834BC4E9B834834B04F53C7074
:102FF000C4E9BA354FF461610BF0C0F84FF4A07327
:1030000018EE100A00932A46F0232946FFF7C9FC60
:103010002A4629462846FFF73BFD4FF4A073A066D9
:10302000009318EE900AF0232A462946FFF7B9FCD0
:10303000D62281215020FFF72BFD1C22C4F89400DA
:1030400011463046FFF7A0FCB82300932A462946D4
:10305000304606F060FC2B462946304600954FF47A
:10306000616206F0B1FD5C221146304606F0FCFBC1
:1030700030465A2106F00CFC2946304606F012FC78
:103080004FF4B4722946304606F08EFC4FF004032C
:1030900006A93046ADF8183006F03EFE4FF00502A6
:1030A00006A95046ADF8182009F002FC51463046FA
:1030B00006F013FC2946304606F05AFC2223009302
:1030C00040468E2367223121FFF76BFC2A462946B2
:1030D0002846FFF7DDFC0146404607F09FFE474BC0
:1030E000069306A94FF004034046ADF81C3007F0E4
:1030F000E1FE4046012108F015F8032384F8F3317E
:103100002A462B462946404608F00FF84846E52255
:103110001C21FFF739FC0123ADF8183006AB1A4625
:1031200005A94846ADF814500AF0A6FC4FF0050278
:10313000FF27A4F888224846FFF75AFC3A4639464A
:103140003846FFF7A5FC3A46C4F88C0239463846A3
:10315000FFF79EFC04F5387AC4F89002C4F878A210
:103160005846E5229B21FFF70FFC06AA05A901237B
:103170005846ADF81830ADF814500AF07DFC06231F
:10318000A4F8D0325846FFF733FC3A463946384661
:10319000FFF77EFC3A46C4F8D40239463846FFF7BA
:1031A00077FC18EE101AC4F8D802C4F8C0A2201D8B
:1031B000039008F0C1F818EE901A039808F0BCF8D4
:1031C0000398314608F0B8F80398414608F0B4F87F
:1031D0000398494608F0B0F80398594608F0ACF84F
:1031E000204609B0BDEC028BBDE8F08F58250208DF
:1031F000CC45020840250208C72E0008E018020846
:103200007047704770477047704730B4C268446871
:103210005510034604EB6200D20748BF62599B6811
:1032200030BC48BFD358184743682BB183682BB9CB
:10323000C06800F0010070471846704701207047D1
:1032400010B5102104461CF0F2FF204610BD10B549
:103250004FF4FE7104461CF0EAFF204610BD00F555
:103260009272914210B504D103681B6BBDE8104007
:10327000184700F5AE72914202D10368DB6AF5E7A8
:1032800000F5D273994205D10CF034FCBDE8104032
:10329000FEF7D2BE10BD00002DE9F04F2DED028BE0
:1032A000044689B0A24600250DF098FF854BE563E2
:1032B0004AF8403B5046FFF787FB04F16C0304F1EA
:1032C0009807184608EE103AFFF77EFB384607F0DD
:1032D000E7FE40F2011304F5AE797B4AA4F84831C9
:1032E0004FF6FF7304F5D278A4F85231A4F85431A4
:1032F00084F85631C4F82421A4F85831C4E94A5559
:10330000C4E94C55C4E94E55C4F84051C4F84C5179
:1033100084F8505148460AF005FF40460AF002FF83
:103320006A4BC4E97B346A4BC4E97D354FF4A07322
:1033300000932A46F02329465046FFF732FB2A46DF
:1033400029462846FFF7A4FB4FF4A073A06600931C
:1033500018EE100AF0232A462946FFF722FBD62250
:1033600081215020FFF794FB4623FF26C4F89400E8
:1033700000933846D42331220E21FFF712FB324648
:1033800031463046FFF784FB0146384607F046FDDC
:10339000504B069306A93846ADF81C5007F08AFD3D
:1033A0003846012107F0BEFE032304F5927B84F822
:1033B000C7302A462B462946384607F0B6FE5846FF
:1033C0007A223821FFF7E0FA0623ADF814300723FC
:1033D000A4F8583106AA05A95846ADF818300AF0E5
:1033E0004BFB04F5F673C4F84C314846BE22382135
:1033F0000393FFF7C9FA06AA05A94846ADF8145089
:10340000ADF818500AF038FB0123A4F8943148466F
:10341000FFF7EEFA324631463046FFF739FB3246C7
:10342000C4F8980131463046FFF732FB039BC4F8DD
:103430009C01C4F884314046BE227C21FFF7A4FAE7
:10344000012305A906AA4046ADF81830ADF814507E
:103450000AF012FB0A22A4F8DC214046FFF7C8FA62
:10346000324631463046FFF713FB3246C4F8E001DE
:1034700031463046FFF70CFB039BC4F8CC31C4F84F
:10348000E4015146201D039007F056FF18EE101A74
:10349000039807F051FF0398394607F04DFF039852
:1034A000594607F049FF0398494607F045FF03983E
:1034B000414607F041FF204609B0BDEC028BBDE854
:1034C000F08F00BFA4250208FC4802088C250208E2
:1034D0005F320008E01802087047704710B5B42149
:1034E00004461CF0A4FE204610BD00002DE9F74361
:1034F000044626460025FFF7E7FB4D4BA56246F83C
:103500002C3B2946262230461CF04CFF3046FFF764
:10351000DBFB4FF0FF09474BE36204F16007262213
:1035200029466565A565A4F85C5084F85290384634
:103530001CF038FF3846FFF7C7FB4FF6FF73A4F8BF
:103540008C304FF47F03C4F894303B4B2366DFF894
:1035500014813A4BA3602946C4F89050A4F89850BF
:10356000C4F89C503046C4F88880FFF79BF9294680
:103570003046FFF799F964213046FFF797F9282183
:103580003046FFF795F94A4649464846FFF780FA24
:10359000D022114660651046FFF77AFA0323A4F89B
:1035A0005C30CB2384F85230254BA06563662A46F5
:1035B00029462846FFF76CFA224BA4F894501B6862
:1035C000C4F8900004F1A0052BB91F4B1F4AB1218C
:1035D0001F481CF05BFE1F4B1B88102B03D81E4B93
:1035E0001A4AB221F4E71D4B1021186800F0CEFFF3
:1035F0001B4A03460A2128460FF022FB3846C4F82E
:103600009C500AF0DDF90C2369463846ADF80430C9
:10361000CDF800800AF0F1F93146204607F08CFE23
:103620002046394607F088FE204603B0BDE8F08307
:10363000E0250208C04B0208184B0208640028006D
:1036400002000A004C30012074210208B621020851
:10365000E4210208503001202B22020858300120BA
:10366000AC230208E01802087047704710B5B42177
:1036700004461CF0DCFD204610BD00002DE9F74398
:10368000044626460025FFF71FFB4D4BA56246F872
:103690002C3B2946262230461CF084FE3046FFF79C
:1036A00013FB4FF0FF09474BE36204F1600726224A
:1036B00029466565A565A4F85C5084F852903846A3
:1036C0001CF070FE3846FFF7FFFA4FF6FF73A4F8C0
:1036D0008C304FF47F03C4F894303B4B2366DFF803
:1036E00014813A4BA3602946C4F89050A4F898502E
:1036F000C4F89C503046C4F88880FFF7D3F82946B8
:103700003046FFF7D1F864213046FFF7CFF8282183
:103710003046FFF7CDF84A4649464846FFF7B8F924
:103720006D22114660657020FFF7B2F90323A4F8FB
:103730005C30CB2384F85230254BA06563662A4663
:1037400029462846FFF7A4F9224BA4F894501B6899
:10375000C4F8900004F1A0052BB91F4B1F4AB121FA
:103760001F481CF093FD1F4B1B88122B03D81E4BC8
:103770001A4AB221F4E71D4B1221186800F006FF27
:103780001B4A03460A2128460FF05AFA3846C4F865
:103790009C500AF015F9112369463846ADF80430FB
:1037A000CDF800800AF029F93146204607F0C4FD23
:1037B0002046394607F0C0FD204603B0BDE8F0833F
:1037C0006C260208C04B0208184B0208640028004F
:1037D000FCFF0A004C30012074210208B6210208C7
:1037E000E4210208503001202B2202085830012029
:1037F000AC230208E01802087047704710B5B421E6
:1038000004461CF014FD204610BD00002DE9F743CE
:10381000044626460025FFF757FA4D4BA56246F8A9
:103820002C3B2946262230461CF0BCFD3046FFF7D3
:103830004BFA4FF0FF09474BE36204F16007262281
:1038400029466565A565A4F85C5084F85290384611
:103850001CF0A8FD3846FFF737FA4FF6FF73A4F8BF
:103860008C304FF47F03C4F894303B4B2366DFF871
:1038700014813A4BA3602946C4F89050A4F898509C
:10388000C4F89C503046C4F88880FFF70BF82946EE
:103890003046FFF709F864213046FFF707F8282182
:1038A0003046FFF705F84A4649464846FFF7F0F824
:1038B0006D22114660657020FFF7EAF80323A4F833
:1038C0005C30CB2384F85230254BA06563662A46D2
:1038D00029462846FFF7DCF8224BA4F894501B68D1
:1038E000C4F8900004F1A0052BB91F4B1F4AB12169
:1038F0001F481CF0CBFC1F4B1B88142B03D81E4BFE
:103900001A4AB221F4E71D4B1421186800F03EFE5C
:103910001B4A03460A2128460FF092F93846C4F89C
:103920009C500AF04DF8132369463846ADF8043030
:10393000CDF800800AF061F83146204607F0FCFC23
:103940002046394607F0F8FC204603B0BDE8F08376
:10395000F8260208C04B0208184B02086400280031
:10396000FCFF0A004C30012074210208B621020835
:10397000E4210208503001202B2202085830012097
:10398000AC230208E0180208704770477047704780
:1039900070472DE9F0411E4600F5467399420446F2
:1039A0000D4617461BD10B6828469B681146984761
:1039B0002368DB6A014632462046984704F68413A2
:1039C0009D4219D12B6839469B6828469847236841
:1039D0005B6B014632462046BDE8F041184700F5D2
:1039E000D4639942EAD10B6828469B6811469847F0
:1039F000236801461B6BDEE704F60C539D4208D199
:103A00002B6839469B6828469847236801469B6B7C
:103A1000E0E7BDE8F08105207047022070470520EF
:103A200070470220704770477047000038B5054660
:103A3000074B45F8043BD0F8B83004461B68B83053
:103A40009847636828461B689847204638BD00BFE2
:103A50009C2B020838B5074B036004464FF43575BC
:103A6000635960191B68B43D984715F1B00FF7D141
:103A7000204638BD842B020838B50546074B45F86B
:103A8000043BD0F8B83004461B68B83098476368E8
:103A900028461B689847204638BD00BF6C2B02089B
:103AA00038B5074B036004464FF435756359601908
:103AB0001B68B43D984715F1B00FF7D1204638BDCB
:103AC000542B020810B50A4B0360044600F60C5054
:103AD000FFF7ACFF04F68410FFF7BCFF04F5D460D9
:103AE000FFF7CAFF04F54670FFF7DAFF204610BD66
:103AF000E42B02087047F0B4C56846686F100446AE
:103B000006EB6500ED07A46844BFF5592C59A4469F
:103B1000F0BC604743682BB183682BB9C06800F0E4
:103B200001007047184670470120704730B4C268E2
:103B300044685510034604EB6200D20748BF62593F
:103B40009B6830BC48BFD358184743682BB1836883
:103B50002BB9C06800F0010070471846704701207B
:103B6000704710B50446FFF79BFF20464FF4627183
:103B70001CF05DFB204610BD10B50446FFF77CFF2E
:103B800020464FF4B6711CF052FB204610BD10B514
:103B90000446FFF75FFF20464FF462711CF047FBBD
:103BA000204610BD10B50446FFF740FF20464FF4F5
:103BB000B6711CF03CFB204610BD10B54FF4BC7133
:103BC00004461CF034FB204610BD10B510210446FD
:103BD0001CF02DFB204610BD10B5102104461CF032
:103BE00026FB204610BD10B50446FFF76BFF2046AC
:103BF00040F698611CF01BFB204610BD08B58BB247
:103C0000042B05D9054B064A064854211CF03EFBFF
:103C1000B42301FB0300043008BD00BF7C27020869
:103C2000972702082B28020808B58BB2012B05D96B
:103C3000054B064A064854211CF028FBB42301FB1F
:103C40000300043008BD00BF7C2702088A28020850
:103C50002B28020808B58BB2042B05D9054B064A60
:103C6000064854211CF012FBB42301FB030004306E
:103C700008BD00BF7C270208252902082B2802085E
:103C800008B58BB2012B05D9054B064A06485421CD
:103C90001CF0FCFAB42301FB0300043008BD00BF94
:103CA0007C270208B82902082B28020810B5044610
:103CB0002C3006F03CFA04F1C40006F038FA04F5A2
:103CC0008870BDE8104006F032BA70B5044600F5C1
:103CD000D070FFF7EBFF4FF4477563596019D3F8C5
:103CE0008030B4359847B5F5D46FF6D104F2A460AE
:103CF00000F033FED4F8583704F5EB60D3F8803089
:103D0000984704F60C00FFF7D1FF40F6881540F6FF
:103D10000C5663596019D3F88030B4359847B542D2
:103D2000F7D104F5516000F02CFED4F8C43D04F640
:103D3000C450D3F88030BDE87040184770B50446D1
:103D40000D4606F0C9FBD4F8740160B10368DB6866
:103D5000984740B1D4F8740103682A4621469B680D
:103D6000BDE87040184770BD00F19802914208B557
:103D700005D10BF0BFFEBDE80840FEF75DB900F1CC
:103D8000E002914208D10368DB6B98470BF0B2FE6A
:103D9000BDE80840FEF760B908BD00004FF480712F
:103DA00081840A4901600A4981624FF6FF7100224D
:103DB00081854FF47F01C0E90122C0E90322C0E9F7
:103DC0000522C2610263416302877047D849020835
:103DD000E01802082DE9F04F2DED068B044689B05E
:103DE000A3460DF0FBF90025EF4BE5634BF8403B94
:103DF0005846FEF7E9FD04F16C03184604F19809F2
:103E000009EE103A04F1E008FEF7DEFD48460AF03C
:103E100089F940460AF086F904F59473184608EECD
:103E2000103AFFF7BBFF04F5B273184604F5D077DC
:103E300008EE903AFFF7B2FF384606F051FCDB4B34
:103E4000C4F8A031012384F8C43104F5467309EEA7
:103E5000903AD74BC4F8183304F5D463C4F814531C
:103E6000039304F54775284600F012FC039BB43514
:103E70009D42F8D1CF4BC4F8A03604F2A46000F004
:103E800075FD04F60C0604F5EB6000F06FFD30469E
:103E900006F026FCC54BC4F80C380023C4F8803962
:103EA000012384F8303804F684130AEE103AC24B2A
:103EB000C4F8843904F6881504F60C5A2846B4353B
:103EC00000F040FD5545F9D1BC4BC4F80C3D04F55C
:103ED000516004F60C530AEE903A00F05BFD04F6D4
:103EE000C45000F057FDB64BC4F8783EB54BC4F84B
:103EF000803EB54BC4F8883E00254FF4A07AB34B02
:103F0000C4F8845EC4F8903EC4F8945ECDF800A076
:103F1000F0232A4629465846C4F87C4EC4F88C4EF5
:103F2000FEF73FFD2A4629462846FEF7B1FDF0235D
:103F3000A066CDF800A019EE100A2A462946FEF721
:103F400030FDD62281215020FEF7A2FDFC22C4F8CC
:103F5000940023214846FEF717FD4FF0030A022381
:103F600005A906AA4846ADF81430ADF818A009F026
:103F700083FD0822A4F8D0204846FEF739FDFF2231
:103F800011461046FEF784FDFF22C4F8D400114606
:103F90001046FEF77DFD04F67863C4F8D800C4F837
:103FA000C0304046C02223210293FEF7EDFC06AA52
:103FB00005A902234046ADF81430ADF818A009F069
:103FC0005BFD0923A4F818314046FEF711FDFF22DE
:103FD00011461046FEF75CFDFF22C4F81C01114695
:103FE0001046FEF755FD029BC4F80831C4F82001C5
:103FF000062218EE100A1C21FEF7C6FC2A462946A6
:104000002846FEF745FDDFF8CCA1C4F858010D2382
:1040100018EE100AA4F85C5106A9ADF81C30CDF8D2
:1040200018A009F0EAFC18EE900A06228F21FEF78C
:10403000ABFC2A4629462846FEF72AFDA4F89851EB
:10404000C4F894010E2318EE900A06A9CDF818A022
:10405000ADF81C3009F0D1FC74232C2200933846B3
:1040600064230B21FEF79DFC2946384606F02EFC02
:104070003846012106F0D0FA3846554906F091FD40
:1040800038460A2106F090FD38460A2106F08FFDD9
:1040900038463C2106F0D1FA38461F2106F02AFCAA
:1040A0002A462946384606F02EFC2A462946384636
:1040B00006F02FFC04F6886A38460122282106F013
:1040C0002EFC039BCDF800A019EE901A52463846FC
:1040D00006F043FC2A462946384606F056FC74236F
:1040E0002C220093304664238021FEF75AFC294697
:1040F000304606F0EBFB3046012106F08DFA3046E3
:10410000334906F04EFD30460A2106F04DFD30469B
:104110000A2106F04CFD30463C2106F08EFA30466E
:104120001F2106F0E7FB2A462946304606F0EBFB46
:104130002A462946304606F0ECFB3046012228216B
:1041400006F0EDFB1AEE903A1AEE101A524630467F
:10415000CDF800A006F001FC2A4629463046251D70
:1041600006F013FC5946284607F0E6F819EE101A37
:10417000284607F0E1F84946284607F0DDF84146B1
:10418000284607F0D9F818EE101A284607F0D4F898
:1041900018EE901A284607F0CFF83946284607F05F
:1041A000CBF8284618E000BFE42B02085C2A02087E
:1041B000542B02086C2B0208842B02089C2B02084B
:1041C000B42B0208693D0008CC2B02089339000883
:1041D000E1140108E0180208314607F0ADF8204666
:1041E00009B0BDEC068BBDE8F08F00BF7047000042
:1041F00030B5144D2C78BFF35B8F14F001048BB0F5
:104200001DD128461CF015F8C8B13F2307930E4B6B
:1042100006930E4B0E490F4803940122CDE9044347
:104220000423CDE90132CDE9084414230094FEF7BC
:104230000FFB28461CF009F807481CF045F8054814
:104240000BB030BDD421002088800208242C020845
:10425000E87C0208D8210020ED41000870470000EA
:1042600030B5154D2C78BFF35B8F14F001048BB083
:104270001FD128461BF0DDFFD8B13F2307930F4B1A
:1042800006930F4B05930123CDE9034302930422C8
:104290000523CDE900320B490B4818230A22CDE94A
:1042A0000844FEF7D5FA28461BF0CFFF07481CF05C
:1042B0000BF805480BB030BDFC2100208C800208B3
:1042C000282C0208F87C0208002200205D42000829
:1042D0007047000030B5154D2C78BFF35B8F14F09C
:1042E00001048BB01ED128461BF0A3FFD0B13F23A1
:1042F00007930F4B06930F4B0F4910480394CDE9DA
:10430000044301220423CDE90132CDE908440D2301
:1043100008220094FEF79CFA28461BF096FF0848F6
:104320001BF0D2FF05480BB030BD00BF2422002097
:10433000908002082C2C0208847D0208282200208C
:10434000D14200087047000030B5154D2C78BFF3FE
:104350005B8F14F001048BB01ED128461BF069FF5F
:10436000D0B13F2307930F4B06930F4B05930123C7
:10437000CDE9034302930423CDE900330B490C48F4
:1043800011231F22CDE90844FEF762FA28461BF0EC
:104390005CFF08481BF098FF05480BB030BD00BF1C
:1043A0004C22002094800208302C0208F47D020880
:1043B00050220020454300087047000030B5154DDD
:1043C0002C78BFF35B8F14F001048BB01ED128460C
:1043D0001BF02FFFD0B13F2307930F4B06930F4BDA
:1043E0000F4910480394CDE9044301220423CDE989
:1043F0000132CDE908441E2310220094FEF728FA6A
:1044000028461BF022FF08481BF05EFF05480BB052
:1044100030BD00BF74220020A0800208342C0208A6
:10442000A87F020878220020B943000800207047C6
:104430000EB403B503AB002153F8042B01930CF029
:10444000F3F902B05DF804EB03B070470CB407B5A4
:1044500004AB53F8042B01930CF0E6F903B05DF8BC
:1044600004EB02B070470000C36B10B5044673B391
:10447000038E2BB9184B194AC02119481BF006FFAF
:10448000C38D00EB43035B8B0BB30DF01FFE238E3C
:10449000012B03D8134B144AC521EEE7E28D531CC0
:1044A0009BB2092B194688BFA3F10A0104EB410115
:1044B00040F63F10498B814209D10A2B04EB42029E
:1044C00028BF002304EB4303508B588351832046BD
:1044D000BDE810400DF0DEBC382C0208412C02086B
:1044E000EC2C0208362D0208442D02080DF08CBC7D
:1044F00010B586B002AC84E806001A460AAB0593F4
:104500000193099B00932146089B0AF082FE06B0A6
:1045100010BD000038B518BB124B13481B68134977
:10452000B3B11A689C681A4402605A681A440A6057
:104530001C440F4B00221A8000F038F8054600F0AA
:1045400033F80C4B1C600C4B1D600C4B188007E0C3
:104550000B4B03600B4B0B600B4B1C68002CE8D122
:1045600038BD00BF9C220020A0220020A4220020F1
:10457000A82200204C30012054300120503001206E
:10458000F8800208A4800208D0810208044B1B684E
:1045900053F82100034B1B6803EB4000704700BF3A
:1045A000A4220020A0220020152070470048704758
:1045B000AC22002010B5FFF7C7FE074C2060FFF7C4
:1045C000FDFE6060FFF786FEA060FFF711FEE06071
:1045D000FFF746FE206110BDAC220020704710B5E9
:1045E0004FF4AC7104461BF022FE204610BD10B5FE
:1045F0000446D0F8540100F00EF92046BDE8104002
:104600000BF050B910B50446FDF7C6FC014B236012
:10461000204610BD202E02087047043870477047AE
:1046200010B5102104461BF002FE204610BDA0F17B
:104630000400F5E710B500228260044AC16002F16F
:10464000080420320460426010BD00BF5C2E0208E6
:1046500070477047FEF757B910B54FF4BA7104466A
:104660001BF0E5FD204610BD10B50446FEF732FAFA
:10467000014B2360204610BD8C2E02087047FEF7C8
:104680001ABB10B5B42104461BF0D1FD204610BD65
:1046900010B50446FEF728FB014B2360204610BDF1
:1046A000C02E0208704704387047704710B51021BB
:1046B00004461BF0BCFD204610BDA0F10400F5E748
:1046C00010B500228260044AC16002F10804203261
:1046D0000460426010BD00BF442F0208704770475D
:1046E00010B50446FEF7C3FBE36B9B6841F204116F
:1046F0001A68625041F208115B686350013A013B4D
:104700003C2101FB03234FF4616292FBF3F341F27E
:104710001412A35010BD2DE9F34700F19809044687
:1047200041F21018484605F0B3F914F8083007466E
:10473000002B46D004F5885A41F20415DAF800300F
:1047400041F208160133CAF800306359A25941F208
:104750000C11013B013A615C04F5E270DBB2D2B2AC
:10476000019006F0E2FCDAF800103C2291FBF2F333
:1047700002FB13132BBB6359013B6351BBB9A55912
:104780000198013DA55175B92B462A46294606F0E8
:10479000CCFC14F80830A55183F0010304F808306C
:1047A00041F21113E55441F204133C22E25041F26C
:1047B00014134846E158394402B0BDE8F04705F00B
:1047C000D7B802B0BDE8F08710B541F21811044621
:1047D0001BF02DFD204610BD10B50446FEF7BAFBB8
:1047E000094B236041F204120023A35041F2081246
:1047F0002046A35041F20C12A35041F2101340F294
:104800000112E25210BD00BF742F02080022C0E95D
:1048100000228260704770477047043870477047C5
:1048200010B5102104461BF002FD204610BDA0F17A
:104830000400F5E710B500228260044AC16002F16D
:10484000080420320460426010BD00BFA02F02089F
:104850007047704790F80C3283F0010380F80C32F7
:10486000704738B5044604F19805FEF7CCFC28469D
:1048700006F0A4FCC4F80002284606F0B8FCC4F810
:104880000402284606F0B6FCC4F8080238BD00232E
:10489000C0E98033C0F808321A461946983006F04D
:1048A00044BC10B54FF4047104461BF0C0FC204614
:1048B00010BD90F80C3263B3D0F8FC213C210132DA
:1048C000C0F8FC2192FBF1F301FB13220ABBD0F8E4
:1048D000083201333B2BC0F8083208DDD0E98031C3
:1048E00001313B29C0F808220ADCC0F8041290F814
:1048F000083290F8042290F80012983006F015BCA7
:104900000133172BC8BF1346C0F80422C0F8003289
:10491000EDE7704710B50446FEF7BEFC034B23607D
:10492000002384F80C32204610BD00BFD02F0208AF
:104930007047FEF7D2BD10B5B42104461BF077FCDA
:10494000204610BD10B50446FEF7D0FD014B236094
:10495000204610BD0C3002087047FEF786BE10B529
:10496000B42104461BF063FC204610BD10B504467C
:10497000FEF784FE014B2360204610BD98300208EC
:104980007047FEF73ABF10B5B42104461BF04FFC48
:10499000204610BD10B50446FEF738FF014B2360DA
:1049A000204610BD24310208704704387047704714
:1049B00010B5102104461BF03AFC204610BDA0F1B2
:1049C0000400F5E710B500228260044AC16002F1DC
:1049D000080420320460426010BD00BFA831020804
:1049E0007047C36BD0F8982E9B685A60D0F89C2E05
:1049F0001A607047FFF769B90A231046A0311A46BA
:104A00000DF0E6BD38B5144605460A231A46A03116
:104A100020460DF0DDFDC5F8984E38BD0A2310463E
:104A2000A0311A460DF0D4BD38B5144605460A2308
:104A30001A46A03120460DF0CBFDC5F89C4E38BD7E
:104A400010B5034B03600446FFF73CF8204610BD49
:104A5000D831020810B50446FFF7F2FF20464FF4A4
:104A60006A611BF0E4FB204610BD000010B504464F
:104A7000FFF7B0F9014B2360204610BDD831020882
:104A8000F02070474FF4A07070472920FCF7E8BD74
:104A90002820FCF7E5BD08B5FCF7B6FDCA20FCF7F9
:104AA000DFFDC320FCF7C0FD0820FCF7BDFD502052
:104AB000FCF7BAFDCF20FCF7D3FD0020FCF7B4FDD6
:104AC000C120FCF7B1FD3020FCF7AEFDED20FCF776
:104AD000C7FD6420FCF7A8FD0320FCF7A5FD12200C
:104AE000FCF7A2FD8120FCF79FFDE820FCF7B8FD54
:104AF0008520FCF799FD0020FCF796FD7820FCF757
:104B000093FDCB20FCF7ACFD3920FCF78DFD2C206C
:104B1000FCF78AFD0020FCF787FD3420FCF784FDBC
:104B20000220FCF781FDF720FCF79AFD2020FCF71E
:104B30007BFDEA20FCF794FD0020FCF775FD0020CA
:104B4000FCF772FDB120FCF78BFD0020FCF76CFD3B
:104B50001B20FCF769FDB620FCF782FD0A20FCF75C
:104B600063FDA220FCF760FDC020FCF779FD10205A
:104B7000FCF75AFDC120FCF773FD1020FCF754FD33
:104B8000C520FCF76DFD4520FCF74EFD1520FCF718
:104B90004BFDC720FCF764FD9020FCF745FD362057
:104BA000FCF75EFDC820FCF73FFDF220FCF758FD46
:104BB0000020FCF739FDB020FCF752FDC220FCF7C5
:104BC00033FDB620FCF74CFD0A20FCF72DFDA72095
:104BD000FCF72AFD2720FCF727FD0420FCF724FD25
:104BE0002A20FCF73DFD0020FCF71EFD0020FCF70D
:104BF0001BFD0020FCF718FDEF20FCF715FD2B2016
:104C0000FCF72EFD0020FCF70FFD0020FCF70CFD4B
:104C10000120FCF709FD3F20FCF706FDF620FCF71C
:104C20001FFD0120FCF700FD0020FCF7FDFC062025
:104C3000FCF7FAFC2C20FCF713FDC820FCF75EFD06
:104C40002620FCF70DFD0120FCF7EEFCE020FCF730
:104C500007FD0F20FCF7E8FC2920FCF7E5FC2420E9
:104C6000FCF7E2FC0C20FCF7DFFC0E20FCF7DCFC80
:104C70000920FCF7D9FC4E20FCF7D6FC7820FCF785
:104C8000D3FC3C20FCF7D0FC0920FCF7CDFC132022
:104C9000FCF7CAFC0520FCF7C7FC1720FCF7C4FC96
:104CA0001120FCF7C1FC0020FCF7BEFCE120FCF762
:104CB000D7FC0020FCF7B8FC1620FCF7B5FC1B2045
:104CC000FCF7B2FC0420FCF7AFFC1120FCF7ACFCB5
:104CD0000720FCF7A9FC3120FCF7A6FC3320FCF7E9
:104CE000A3FC4220FCF7A0FC0520FCF79DFC0C2057
:104CF000FCF79AFC0A20FCF797FC2820FCF794FCB0
:104D00002F20FCF791FC0F20FCF78EFC1120FCF704
:104D1000A7FCC820FCF7F2FC2920FCF7A1FCBDE8A9
:104D200008402C20FCF79CBC08B5FCF76DFC032167
:104D3000D320FCF7B1FC80B208BD10B5C4B202228A
:104D400003212046FCF716FC0A20FCF75BFC2046FA
:104D500000220321FCF70EFCBDE810400220FCF706
:104D600051BC38B50446E4B2FCF702FC00212046F1
:104D7000FCF718FC012105462046FCF713FC40EA2D
:104D8000052080B238BD10B5C4B240212046FCF7E2
:104D900009FC030607D54C212046FCF703FC00382C
:104DA00018BF012010BD01224B212046FCF7E2FB79
:104DB000204600224B21FCF7DDFB0020F2E773B513
:104DC0000423C4B20E461546D7210DEB030220463C
:104DD000FCF702FC019B1BBA1A0DC3F30B233280B4
:104DE00020462B8001224B21FCF7C4FB00224B21E3
:104DF0002046FCF7BFFB02B070BD000010B50A4BA7
:104E00001A78904204460DD0597888420AD00AB1E7
:104E100041B901229C54FCF7ABFB2046BDE8104091
:104E2000FFF78BBF10BD00BFC022002010B5C4B279
:104E300009212046FCF7B6FB40F00100C2B209216F
:104E40002046BDE81040FCF795BB10B5C4B209215F
:104E50002046FCF7A7FB092100F0FE022046BDE832
:104E60001040FCF787BB38B5C4B20D4620460A2176
:104E7000FCF798FB40EA0502D2B220460A21BDE8C1
:104E80003840FCF777BB07B50190FCF772FB01983F
:104E90001F21FFF7E8FF019803B05DF804EBFFF76F
:104EA000C5BF38B5C4B20D4620460A21FCF77AFBCF
:104EB00020EA0502D2B220460A21BDE83840FCF7BC
:104EC00059BB10B50446FFF7C0FF20461F21BDE8BF
:104ED0001040FFF7E6BF10B5C0B20C460B21FCF73F
:104EE00061FB204010BD1F21FFF7F5BF0A46C0B28D
:104EF0000B21FCF73FBB1F21FFF7F8BF38B5C4B249
:104F00000D4620461721FCF74DFB20EA0502D2B2E0
:104F100020461721BDE83840FCF72CBB70B5C4B261
:104F2000064604212046FCF73DFB042100F0FB026D
:104F300005462046FCF71EFB3046F021FFF7DEFF5A
:104F400005F0F80220460421FCF714FB4922202139
:104F50002046FCF70FFB0220FCF754FB2046012201
:104F60002121FCF707FB20469A224121FCF702FB96
:104F7000204601224A21FCF7FDFA204601224B215E
:104F8000FCF7F8FA204600224B21FCF7F3FA204602
:104F900001225621FCF7EEFA204601225821FCF7A7
:104FA000E9FA204601224021FCF7E4FA2046FF22DC
:104FB0000B21FCF7DFFABDE870400220FCF722BBB2
:104FC000054BD3F8882042F47002C3F888204FF0D4
:104FD00000629A60704700BF00ED00E008B50B4B1F
:104FE0001A6842F400721A601A6842F480621A6009
:104FF0001A6842F480721A60032000F02FF8002033
:10500000FCF7BAFDFCF786FB002008BD003C02401F
:10501000034A044B11681B780B441360704700BFB0
:10502000AC34012078000020014B1868704700BFA5
:10503000AC34012038B50446FFF7F6FF631C1CBFF3
:10504000054B1B78054618BFE418FFF7EDFF431B1F
:10505000A342FAD338BD00BF780000200749CA68D0
:1050600022F4E0620302120403F4E063120C13431F
:1050700043F0BF6343F40033CB60704700ED00E0C2
:10508000164B30B5DC68C4F30224C4F10705231DB8
:10509000042D28BF0425062B4FF0FF338CBF033CA3
:1050A000002403FA05F521EA0501A34022EA0302E0
:1050B000A140002841EA0203ACBF00F16040084A69
:1050C0004FEA0313B8BF00F00F00DBB2AABF00F530
:1050D0006140135480F8003330BD00BF00ED00E0A4
:1050E00014ED00E0002808DB4209012300F01F0056
:1050F00003FA00F0014B43F82200704700E100E0A2
:1051000000280DDB4309012200F01F0002FA00F025
:105110002033044A42F82300BFF34F8FBFF36F8F51
:10512000704700BF00E100E010B5044650B143797C
:1051300003F0FF0213B90271FCF70CFB012363714A
:10514000002010BD0120FCE770B50468049D666C6A
:1051500045EA034306F04046334363644368E26331
:10516000B3F5403F30D186681EB1012E03D121F046
:105170007F41A16370BD022E01F47F0301F47F45DE
:10518000C8B207D1DB0CAD0ADB0243EA451343EAA0
:10519000D001EEE7032E01F07F420AD1DB0CED0ACD
:1051A0009B0243EA451343EAD003D10F43EAC131DE
:1051B000DFE7190D2D0B090241EA051141EA101133
:1051C000130F41EA0331D4E7E160D3E710B5044699
:1051D00030B390F8393003F0FF021BB980F8382063
:1051E000FCF7D0FA22686168022384F8393013682A
:1051F00023F440330B431360536BA16823F0070380
:105200000B435363136CE16823F47F5323F03F0394
:105210000B43136400200123E06384F8393010BD90
:105220000120FCE773B590F83850012D04464FF08B
:10523000020513D080F839500126069D80F83860A9
:105240000095FFF781FF23681A6842F40C521A6038
:105250001A6832431A60002002B070BD2846FBE78E
:1052600073B516461A4690F83830012B04464FF0B5
:10527000020517D0012380F83830036880F83950D0
:105280005E61079B0093069BFFF75EFF23681A6829
:1052900042F40C521A601A6842F001021A600020AF
:1052A00002B070BD2846FBE7026838B5136823F0EA
:1052B000050343F0040313600446FFF7B5FE0546FB
:1052C0002268136813F0010309D1116821F40C510D
:1052D0001160012284F8392084F838300FE0FFF79C
:1052E000A3FE401BB0F57A7FEAD9E36B43F02003BD
:1052F000E3630022032384F8393084F83820184609
:1053000038BD70B505682A6842F004022A60012998
:10531000044614BF24351C35FFF786FE06462B686D
:1053200013F020030AD121680A6822F464520A604B
:10533000012284F8392084F838300FE0FFF774FE3A
:10534000801BB0F57A7FEAD9E36B43F02003E36377
:105350000022032384F8393084F83820184670BDC1
:1053600038B5054608B9012038BD164B1B6B19022C
:1053700013D42B6800243F221C6028469A601C61CD
:105380009C61DC615C625C63FCF71EFAEC6385F88F
:10539000384085F839402046E6E70368196811F07F
:1053A000010104D0FFF780FF0028E2D0DBE75A6A52
:1053B000920602D5FFF7A5FFF6E7DB699B06D8D575
:1053C0000121F7E70038024070477047036870B565
:1053D0005E681D68F207044614D5E90512D51A68FF
:1053E00022F480721A60C26B42F00102C263012291
:1053F0009A60042380F83930002380F838304369FC
:1054000003B19847B20616D5AB0414D523681A68C1
:1054100022F400521A6020229A60E36B43F00203E8
:10542000E363042384F83930002384F83830636957
:105430000BB120469847300716D5290514D52368A7
:105440001A6822F400621A6008229A60E36B43F043
:105450000403E363042384F83930002384F83830EC
:1054600063690BB12046984772070BD56B0509D5C8
:1054700023681A6822F480621A6004229A60204627
:10548000FFF7A2FFB00714D5A90512D523681A6843
:1054900022F400721A6002229A60E36BE363012334
:1054A00084F83930002384F8383023690BB1204662
:1054B0009847F20613D5EB0411D523681A6822F435
:1054C00080521A6010229A60E36BE363012384F830
:1054D0003930002384F838302046FFF776FF70BD5E
:1054E000F0B590F83830012B4FF002032BD0012299
:1054F00080F8393080F8382000EB0113D3E90742F7
:105500005D6A184F44EA0242093C012C9CBF05F039
:105510007F431A434FEA0116036888BF42EA0562D7
:1055200099B9596A39400A435A62012C82699A61D1
:1055300003D8426A22F07F429A62012380F8393010
:10554000002380F838301846F0BDD96939400A4345
:10555000DA618219012C92691A619CBF25F07F459E
:105560001D62EAE7F0FFFC002DE9F74FDFF8C48188
:105570006E4ADFF8C49100230D6801249C4004EAC0
:105580000506AC4340F0B8804C6824F0100C4FEA9C
:10559000430E03250CF1FF3705FA0EF5012F6FEAD4
:1055A000050511D8876807EA050ACF6807FA0EF7DC
:1055B00047EA0A078760476827EA060AC4F3001724
:1055C0009F4047EA0A074760C76807EA050A8F68ED
:1055D00007FA0EF747EA0A07BCF1020FC76016D1B7
:1055E0004FEAD30A00EB8A0A03F0070BDAF82070BF
:1055F0004FEA8B0B4FF00F0C0CFA0BFC27EA0C0C4C
:105600000F6907FA0BF747EA0C07CAF8207007681A
:105610003D4004F0030707FA0EFE4EEA050505605B
:10562000E50069D54FF0000BCDF804B0D8F8447010
:105630003F4D47F48047C8F84470D8F8447007F4E9
:1056400080470197019F23F0030707F1804707F583
:105650009C3703F0030ED7F808A04FEA8E0E4FF0E8
:105660000F0C0CFA0EFCA8422AEA0C0C4BD005F5E4
:105670008065A84249D005F58065A84247D005F568
:105680008065A84245D005F58065A84243D04845CD
:1056900043D005F50065A84241D005F58065A842D4
:1056A0003FD005F58065A8423DD005F58065A8424C
:1056B0000CBF09250A2505FA0EF545EA0C05BD6063
:1056C0001568F74314F4803F0CBF3D403543156027
:1056D000556814F4003F0CBF3D4035435560956854
:1056E00014F4801F0CBF3D4035439560D568A4027B
:1056F00054BF3D403543D5600133102B7FF43CAFA0
:1057000003B0BDE8F08F5D46D5E70125D3E702255C
:10571000D1E70325CFE70425CDE70525CBE706250F
:10572000C9E70725C7E70825C5E700BF003C0140DA
:105730000000024000380240001402400AB18161BA
:1057400070470904FBE701684B6913F480634FF06D
:10575000000210D06FF480634B612023026380F855
:105760003D3080F83E20036C80F83C2043F0040379
:10577000036401207047184670472DE9F041044644
:105780000F46164698462568686927EA000080B2E9
:10579000B8B16B695A0516D52B6843F400732B60BA
:1057A0006FF480636B6120220023236384F83D2023
:1057B00084F83E30226C42F00402226484F83C30CB
:1057C0000120BDE8F081731CDED0FFF72DFCA0EBBB
:1057D0000800B04201D8002ED5D100232022236337
:1057E00084F83D2084F83E30226C42F02002E4E749
:1057F00070B504460D46164623685B695B0701D504
:10580000002070BD2046FFF79EFFA8B96A1CF3D0A8
:10581000FFF70AFC801BA84201D8002DECD1002321
:105820002022236384F83D2084F83E30226C84F8E3
:105830003C3042F0200222640120E2E770B50446C9
:105840000D46164621684B6913F0400301D0002035
:1058500010E04A69D2060ED56FF010024A6120228C
:10586000236384F83D2084F83E30226C226484F85F
:105870003C30012070BDFFF7D7FB801BA84201D848
:10588000002DDFD100232022236384F83D2084F8FB
:105890003E30226C42F02002E8E72DE9F846064649
:1058A0000F4691461D464FEA114A3368BAF1010F7F
:1058B0000CBF5C699C6927EA0404A4B2B4FA84F4BE
:1058C0006409A14501D0002017E06A1CEED0FFF763
:1058D000ABFB089BC01AA84201D8002DE5D10023DC
:1058E0002022336386F83D2086F83E30326C86F8FD
:1058F0003C3042F0200232640120BDE8F88670B5E9
:1059000004460D46164623685B691B0601D5002038
:1059100070BD2046FFF717FFA8B96A1CF3D0FFF748
:1059200083FB801BA84201D8002DECD1002320224C
:10593000236384F83D2084F83E30226C84F83C30A8
:1059400042F0200222640120E2E700002DE9F0434A
:105950001546026885B0DDE90C789946136843F472
:10596000807313600E463B46CDF8008000224FF056
:1059700001110446FFF791FF236838B11B68DB056E
:1059800002D54FF40073236403200AE006F0FE06FC
:105990001E61194943463A462046FFF7EEFE18B10C
:1059A000012005B0BDE8F083236803905A69039293
:1059B0009B690393424639462046039BFFF79FFFAE
:1059C00040B1236C042B01BF2268136843F40073B9
:1059D0001360E5E7B9F1010F236802D1EDB21D6153
:1059E000DFE72A0A1A61394642462046FFF787FF59
:1059F0000028E6D12368F1E7020001002DE9FF4706
:105A00009A46036815461A6842F480621A601A685A
:105A1000DDE90C7842F480721A600E463B46CDF800
:105A2000008000224FF001110446FFF736FF236883
:105A300048B11B68DB0502D54FF4007323640320D3
:105A400004B0BDE8F0875FFA86F906F0FE061E6135
:105A50002A4943463A462046FFF78FFE08B1012007
:105A6000EEE7236803905A6903929B6903934246C9
:105A700039462046039BFFF742FF40B1236C042BBD
:105A800001BF2268136843F400731360E7E7BAF1BB
:105A9000010F23681AD1EDB21D61424639462046F6
:105AA000FFF72DFF0028E9D12268136843F48073C3
:105AB00013604FF001110246CDF800803B462046AE
:105AC000FFF7EBFE226860B11368B3E72A0A1A6198
:105AD000394642462046FFF712FF0028CED1236800
