:020000040800F2
:100000000000032089050008F51B0008F71B000805
:10001000F91B0008FB1B0008FD1B00080000000086
:10002000000000000000000000000000617C0008EB
:10003000FF1B000800000000F17C0008557D00084F
:10004000D9050008D9050008D9050008D905000818
:10005000D9050008D9050008D9050008D905000808
:10006000D9050008D9050008D9050008D9050008F8
:10007000D9050008D9050008D9050008D9050008E8
:10008000D9050008D9050008D9050008D9050008D8
:10009000D9050008D9050008D9050008D9050008C8
:1000A000D9050008D9050008D9050008D9050008B8
:1000B000D9050008D9050008D9050008D9050008A8
:1000C000D9050008D9050008D9050008D905000898
:1000D000D9050008D9050008D9050008D905000888
:1000E000D9050008D9050008D9050008D905000878
:1000F000D9050008D9050008D9050008D905000868
:10010000D9050008D9050008D9050008D905000857
:10011000D9050008D9050008011C0008D905000808
:10012000D9050008D9050008D9050008D905000837
:10013000D9050008D9050008D9050008D905000827
:10014000D9050008D9050008D9050008D905000817
:10015000D9050008D9050008D9050008D905000807
:10016000D9050008D9050008D9050008D9050008F7
:10017000D9050008D9050008D905000800000000CD
:10018000D9050008D9050008D9050008D9050008D7
:10019000D9050008D9050008D9050008D9050008C7
:0C01A0000D1C0008D9050008191C0008FF
:1001B00010B5054C237833B9044B13B10448AFF3A1
:1001C00000800123237010BD6401002000000000A6
:1001D0007013020808B5034B1BB103490348AFF382
:1001E000008008BD000000006801002070130208B4
:1001F00001F0FF01102A2BDB10F0070F08D010F8D8
:10020000013B013A8B422DD010F0070F42B3F6D1DB
:10021000F0B441EA012141EA014122F007047FF0F4
:1002200000070023F0E80256083C85EA010586EA4B
:10023000010685FA47F5A3FA87F586FA47F6A5FA87
:1002400087F68EB9EED1F0BC01F0FF0102F0070293
:1002500032B110F8013B013A83EA010313B1F8D13E
:100260000020704701387047002D06BF354603381F
:10027000073815F0010F07D1013015F4807F02BF58
:10028000013015F4C03F0130F0BC0138704700BFA9
:1002900053B94AB9002908BF00281CBF4FF0FF31ED
:1002A0004FF0FF3000F06EB9ADF1080C6DE904CEEF
:1002B00000F006F8DDF804E0DDE9022304B0704741
:1002C0002DE9F047089D04468C46002B40F08380C2
:1002D0008A42174647D9B2FA82F242B1C2F12000EF
:1002E00024FA00F09140974040EA010C94404FEA14
:1002F0001748230CBCFBF8F61FFA87FE08FB16C153
:1003000043EA014306FB0EF1994209D9FB1806F1B5
:10031000FF3080F01981994240F21681023E3B4441
:100320005B1AA4B2B3FBF8F008FB103344EA0344B1
:1003300000FB0EFEA64509D93C1900F1FF3380F001
:100340000581A64540F2028102383C4440EA06405D
:10035000A4EB0E0400261DB1D4400023C5E90043E0
:100360003146BDE8F08702B9FFDEB2FA82F2002A18
:1003700050D1CB1B4FEA174E1FFA87F80126B3FB6B
:10038000FEFC210C0EFB1C3341EA034108FB0CF37D
:100390008B4207D979180CF1FF3002D28B4200F260
:1003A000E9808446C91AA3B2B1FBFEF00EFB10111E
:1003B00043EA014408FB00F8A04507D93C1900F1C5
:1003C000FF3302D2A04500F2D9801846A4EB0804FE
:1003D00040EA0C40BFE78B4209D9002D00F0B18004
:1003E0000026C5E9000130463146BDE8F087B3FA82
:1003F00083F6002E4AD18B4202D3824200F2B880AB
:10040000841A61EB030101208C46002DA8D0C5E9B8
:10041000004CA5E7C2F1200320FA03F6974001FA49
:1004200002F04FEA174ED9403043030CB1FBFEF601
:100430001FFA87F80EFB161143EA014306FB08F189
:10044000994204FA02F409D9FB1806F1FF3C80F046
:100450008D80994240F28A80023E3B445B1A81B211
:10046000B3FBFEF00EFB103341EA034100FB08F33F
:100470008B4207D9791800F1FF3C73D28B4271D9B6
:1004800002383944CB1A40EA064678E7C6F1200C18
:1004900003FA06F422FA0CF31C4320FA0CF701FAD3
:1004A00006F34FEA144E21FA0CF11F433B0CB1FB4B
:1004B000FEF91FFA84F80EFB191143EA014109FB0A
:1004C00008FA8A4502FA06F200FA06F308D961181A
:1004D00009F1FF3048D28A4546D9A9F102092144E1
:1004E000A1EB0A01BFB2B1FBFEF00EFB101147EA0F
:1004F000014700FB08F8B84507D9E71900F1FF31BB
:100500002ED2B8452CD90238274440EA0940A7EB3F
:100510000807A0FB02894F45C64649461AD317D0A3
:100520005DB1B3EB0E0267EB010707FA0CFCF2407A
:100530004CEA0202F740C5E9002700263146BDE833
:10054000F0872E4628460BE70646E9E61846FDE604
:100550004345E5D2B8EB020E69EB04010138DFE751
:100560000846D2E760468DE78146B9E7664675E7FB
:1005700030464AE7ACF1020C394413E702383C44F8
:1005800024E700BF704700BFDFF834D0002103E04C
:100590000C4B5B58435004310B480C4B42189A42A9
:1005A000F6D30B4A02E0002342F8043B094B9A427F
:1005B000F9D304F0FFFC1FF0ABFE00F021FE704702
:1005C0000000032034A0080800000020640100207F
:1005D0006401002044350120FEE700F027BC00F054
:1005E00095BC704710B5042104461FF018FE204644
:1005F00010BD000038B50C4B0C4C18800C4B822001
:1006000019806368984740F6110398420AD1094D52
:1006100023682C60822098472B688220DB689847EB
:10062000002038BD0120FCE7800100204C000020A4
:1006300082010020840100204FF4A071F020FFF718
:10064000D9BF0000F7B52D4D2B6804461B698220E9
:10065000984780B22080002843D02B680DF1060215
:100660005B6901A982209847BDF80620A2F5B47203
:1006700092B20A2A37D90B23B2FBF3F2204B1B8824
:100680009A4201D95A1E92B2BDF8043040F6B831F0
:100690008B422AD8C3F571630E339BB20F21B3FB93
:1006A000F1F3184909888B4201D94B1E9BB2164EB3
:1006B000164D30682F68834281B28CBF591AC91A0F
:1006C000B8B2BA428CBF101A801A89B280B2014403
:1006D0000529C8BF33603368C8BF2A6063802B68B0
:1006E000A38003B0F0BD0022CEE7C3F56D630833ED
:1006F0009BB20E2BD2D80023D9E700BF8401002083
:100700008201002080010020880100208C0100204F
:1007100037B568460D461446FFF794FFBDF8000054
:1007200048B1BDF802302B60BDF80430C3F59F73AB
:1007300001332360012003B030BD7047704770471C
:10074000012380F8741080F87530704700207047DE
:1007500000207047836B0BB10846184770474FF66F
:10076000FF707047406803689B691847704770477F
:10077000704708B5036804469B6E98472368204677
:100780001B6E984700F0DAF8236820469B6D984767
:10079000292000F065FF00F0D1F8236820469B6D0A
:1007A0009847F8E710B504460BF084FC2368204610
:1007B000D3F89030BDE81040184700F03BBC00F083
:1007C0003FBC00F045BC00F011BC00F045BC00F09F
:1007D0004DBC00F015BC000008B531B90A4B0B4AFE
:1007E0000B4840F26B211FF049FDC0E90F12003A9F
:1007F0000849436418BF01220A70003B064A18BF2B
:100800000123137008BD00BFE8130208201402087A
:100810006E1402081E3001201F3001200AF0C4BEF1
:1008200010B57C2104461FF0FAFC204610BD90F85C
:1008300077301BB1406803681B681847184670473B
:1008400030B590F8341090F87440104B8C421A7800
:100850000DD05AB90E4A0F490F4814880F4D0C801D
:10086000018811802980048001221A7030BD002A7D
:10087000FCD00948074A01881180054A074D1488B1
:100880002C80118004800022EFE700BF1830012087
:10089000143001201A300120163001201C300120B4
:1008A00000F0F8BB012108B50022084606F0B0FEB2
:1008B0000A4B186028B90A4B0A4A25210A481FF03A
:1008C000DDFC00220421012006F068FF074B1860C0
:1008D00018B9074B034A2921F0E708BD940100200D
:1008E00070150208B9150208E815020890010020E9
:1008F0002C160208024B4FF0FF31186806F0DEBEDE
:1009000094010020014B186806F012BF94010020EA
:10091000024B0021186806F0D1BE00BF94010020F0
:10092000FFF7F0BF03480449006800231A4606F0A9
:100930007BBF00BF900100200400002013B5084CCD
:1009400000231A4601A9206806F0B0FF20684FF086
:10095000FF33002201A906F0A9FF02B010BD00BFBD
:100960009001002003685B6C184700207047036803
:100970009B6A184740F2EF107047000010B5074C13
:10098000074B2360204604F01BFC064B2361064BFB
:100990006361064B4FF080629A6010BD3C340120C9
:1009A00000B00240CD090008B109000800E100E0F4
:1009B00008B5034A034B044836211FF05FFC00BF13
:1009C0006E160208965C0208A1160208024B1B680C
:1009D000586803685B69184720300120084B10B540
:1009E00003600446074804F0B5FC074B4FF08062F3
:1009F000C3F88820BFF34F8FBFF36F8F204610BD21
:100A0000EC1602083C34012000E100E010B5044679
:100A1000FFF7E4FF20464FF442611FF000FC204640
:100A200010BD0000044B1B6893F876200AB1D86C07
:100A300000B99868704700BF203001202DE9F743C6
:100A40000D68202D0C4600F09F80402D00F09C800A
:100A50002A1F56425641802D00F09880A5F58073DC
:100A60005D425D41FFF7DEFF0368DB69984723685D
:100A7000802B014600F09C8000F28A80202B00F041
:100A80009A80402B00F09780042B00F0888010297A
:100A90000CBF4FF0020C4FF0010C00224D4BB4F88C
:100AA0001080D3F800E0E78ADEF800905A60102941
:100AB00029F440390CBF02200120A7EB080749EABE
:100AC00002029860DF60CEF80020DEF83420C3F820
:100AD0002CC022F007020243CEF83420DEF840207A
:100AE00022F47F5222F03F023A43CEF84020A28AFD
:100AF000A2EB08029A6206B99DB3227FFF2A15BFB6
:100B00004FF0020C4FF0000CC3E90CC2C3F830C028
:100B10000DB310294FEA026E50D1A1694FF01F08A2
:100B200001EA0802C1F3C42CC2EB0222B2FBF8F2C4
:100B300042EA0E02CCEB0C2CC1F34511BCFBF8FCD5
:100B400042EA0C42C1EB01214FF03F0CB1FBFCF13A
:100B500042EA01225A63C3E9067000211D4804F0ED
:100B6000B9FC1C48012104F0B5FC238A628A06B94D
:100B700045B3CDE90032E368616816481A4604F0CF
:100B800069FB03B0BDE8F083012667E7012569E74B
:100B9000B3F5807F7FF47BAF4FF0090C05E01028A0
:100BA0000CBF4FF0020C4FF0010C4FF4003275E710
:100BB0004FF00A0CF9E74FF0000CF6E7A2694EEA95
:100BC0000202C7E700926168E268024804F024FB71
:100BD000D7E700BF3C340120F7B50D46FFF722FFF1
:100BE0000368DB6998471028297F68D1AA6902F059
:100BF0001F03C3EB03231F20B3FBF0F4C2F3C42392
:100C000044EA0164C3EB0323C2F34512B3FBF0F3E0
:100C100044EA0344C2EB02223F230221B2FBF3F277
:100C200044EA02242B682848EE8A0268082B2B8AA3
:100C3000A6EB03061368C6600CBF4FF400374FF4F1
:100C4000403723F440333B43C0E901711360536BD9
:100C500023F007030B435363136C23F47F5323F0F8
:100C60003F033343B7F5003F13641CD10123C0E9B0
:100C70000C340923C0E90661C362002104F02AFC98
:100C80000121114804F026FCB7F5003F2A8A698A41
:100C90000DD1EB680C48CDE900211A46194604F045
:100CA000D9FA03B0F0BD0023C1628362E8E7009186
:100CB00013462146EA68044804F0AEFAF1E7AC694D
:100CC00044EA01640121ADE73C34012070B50446DB
:100CD00025460A4B0C30002660602672667245F885
:100CE000203B602229460BF015FB04F54263AE6100
:100CF0002035AB42FBD1204670BD00BFEC16020888
:100D00000120704754207047542303FB0100083032
:100D10007047542303FB01000830704701207047DF
:100D200041F25C10704741F25C1303FB0100083094
:100D3000704741F25C1303FB01000830704701204B
:100D400070471020704700EB01100830704700EB2F
:100D5000011008307047084601F05EB910B5034B2A
:100D60000360044608F06EFD204610BDA41702087B
:100D700010B50446FFF7F2FF20465C211FF04FFA42
:100D8000204610BD10B5034B0360044608F05AFD21
:100D9000204610BD7017020810B50446FFF7F2FF99
:100DA000204641F264111FF03AFA204610BD0000BF
:100DB00010B5034B0360044608F044FD204610BD07
:100DC0003C17020810B50446FFF7F2FF2046182131
:100DD0001FF025FA204610BD10B5094B03600446EC
:100DE00000F58C501030FFF7B9FF04F12C00FFF72D
:100DF000C9FF04F11400FFF7DBFF204610BD00BF60
:100E0000D817020808B50248FFF7E6FF08BD00BF83
:100E10009C01002010B50446FFF7DEFF204641F29A
:100E200050311FF0FCF9204610BD00002DE9F341C0
:100E300000F06EFF054600F06FFF002401462346D8
:100E400028462246009411F0BFFF244B244A254D2A
:100E50001A60204603F090FB234811F0F7FE2B7830
:100E6000BFF35B8FDB0733D428461FF0DAF978B382
:100E70001E4C1F4F1F4B236007F1680604F114003E
:100E800004F12C086060C4F80880E760266108F06F
:100E9000DBFC194B6361404608F0D6FC174BE3625C
:100EA000384608F0D1FC164B3B6007F15C0003F0BC
:100EB000A7FC224607F15C01304603F0D5FB304623
:100EC00001F0AAF828461FF0B8F90E481FF0F4F90F
:100ED0000D4802B0BDE8F041FFF7E2BC9C300120B4
:100EE0008C21002098010020080000209C01002097
:100EF0002C130020D81702083C17020870170208AC
:100F0000A4170208050E0008102100200148FFF771
:100F100030BC00BF1021002070B5244C244E254B5E
:100F2000254D23603046FFF7D1FE284614F0D8FF48
:100F3000224B2348DC600022C3E9190221481A85AC
:100F40000360214883F82A20C3E90165F0241F4D7E
:100F500004804FF4A0704FF4807128801C4DA3F8DA
:100F60004810A3F876100121C3E90422C3E9062240
:100F7000C3E90822C3E90E22C3E91022C3E9132200
:100F8000DA621A8683F84A205A6583F86C201A6759
:100F900083F8752083F878102A700E4A83F834108D
:100FA00014800D4A10800D4A1A6070BDEC140020A8
:100FB000F0140020D81302089021002010210020F6
:100FC00001000001203001201430012016300120E2
:100FD000183001201A3001201C300120BC140208F6
:100FE0000148FFF7FBBC00BFF0140020034B902228
:100FF00083F85A2383F85823704700BF00E100E0CC
:10100000094A0A49D3680A48C3F30A03013B9BB261
:101010000B801169C1F30A01013901801364536B1C
:1010200043F0010353637047006801400A22002027
:1010300008220020014B986A704700BF8468014075
:10104000024B0122996243F8602C7047846801408A
:101050000AF0B0BA0AF0D5BB034B4FF080629A6039
:101060004FF080729A60704700E100E0084B4FF04B
:101070008062C3F88820BFF34F8FBFF36F8F4FF0AC
:101080008072C3F88820BFF34F8FBFF36F8F704714
:1010900000E100E070B504460AF084FD2368DD6CD1
:1010A0000EF020FD01462046A8472368044A1D6F24
:1010B0002046AC460023BDE87040A2F516316047DB
:1010C000005802D0134B144A1B6C11888B4210B588
:1010D000124C13D1124B198805F008F9226892F8C6
:1010E0006630013382F86630FFF71CFC20680AF096
:1010F000E1FFBDE810400020FFF71FBB05F0F6F848
:101100000020FFF71BFB20680368BDE810409B69C7
:10111000184700BF006801400A220020203001204B
:101120000822002007B5064BADF806001B680548ED
:1011300001220DF1060105F0D8FD03B05DF804FBB6
:101140001000002030330120F0B5A1B010220021A2
:101150000AA81FF01FF91422002103A81FF01AF992
:101160000021302214A81FF015F90024224B01940D
:101170001A6C42F080521A641B6C03F08053019386
:10118000019B1E4B02941A6842F440421A601B688D
:1011900003F4404302930122029B4FF48033CDE9D4
:1011A000082302254FF48003CDE90E5308274FF49E
:1011B000A873042608A8CDE910731295139605F0BC
:1011C000B3F80F23CDE903354FF4A0514FF480530A
:1011D000CDE9061303A80521059405F07BFAC02389
:1011E000189314A84FF4003314971A961D9305F022
:1011F0003BFB21B0F0BD00BF003802400070004052
:1012000080B5A4B003F0E4FEFFF79EFF1422002196
:1012100017A800241FF0BEF8C04B01941A6BC048F9
:10122000C04D42F020021A631A6B02F020020192B4
:10123000019A02941A6B42F080021A631A6B02F050
:1012400080020292029A03941A6B42F004021A631B
:101250001A6B02F004020392039A04941A6B42F090
:1012600001021A631A6B02F001020492049A0594B7
:101270001A6B42F002021A631A6B02F00202059224
:10128000059A06941A6B42F040021A631A6B02F038
:1012900040020692069A07941A6B42F010021A63F3
:1012A0001A6B02F010020792079A08941A6B42F028
:1012B00008021A631B6B03F00803089322460421FB
:1012C000089B04F035FA224697484FF4405104F049
:1012D0002FFA012602274FF004089148199417A904
:1012E000CDE917861A9704F039F917A94FF440533E
:1012F0008D48CDE91736CDE9194704F02FF98B4811
:101300008B4B036003F00AFF8A4A8B4B2C62C5E9C2
:10131000002328464FF48043C5E90434C5E902445C
:10132000C5E9064404F0E6FB1021284604F022FE3D
:101330002146284604F03DFE8048814984624FF4EE
:101340008273C0E900134FF400751823C0E90653F7
:101350000A237C4DC362C0E90244C0E90444C0E9E9
:10136000084405F085FC784B17974FF0100CC5E941
:1013700000364023C5E904C34FF4C073C5E9063401
:101380004FF40063C5E908344FF40053AB624FF0EB
:10139000030A072317A92846CDE918381A934FF0F6
:1013A0000809C5E90248CDE91BA71D9705F086FB92
:1013B0004FF6FF720AA92846CDE90B9609940A96C2
:1013C0000D9405F09BFB304603F02EFE4FF6FF72A6
:1013D0000AA92846CDE90A79CDE90C6405F08EFB0F
:1013E0004FF6FF720AA92846CDE90AA9CDE90C8477
:1013F00005F084FB4FF40C730993099B0D934FF692
:10140000FF720AA92846CDE90A890C9605F076FBF9
:1014100040F26A51284605F088FB342221460AA88A
:101420001EF0B8FF3422214617A81EF0B3FF474D27
:10143000474BAC86C5E900340923C5E905361D23B1
:1014400040F20D1EC5E9073A40F24313C5E909E32E
:1014500040F2171840F247132846C5E90B83C5E947
:1014600002442C6185F8364004F048FEF022FF214A
:101470004FF4A073CDE90B24CDE90F14CDE913424D
:101480004FF480694FF0050822460AA92846CDE9A5
:101490000D371593CDE911980A94ADF858408DF8A1
:1014A0005A4004F0F6FE324617A92846CDE9174403
:1014B000284D2294CDE91944CDE91C44CDE91E986C
:1014C000CDE92044ADF88C408DF88E4004F0E1FE6B
:1014D000214B2B601B6898472B68204DDB68984791
:1014E0001F4BC5E90A47C5E90C442846C5E9003445
:1014F000C5E9027403F064FE3146284603F0EAFFB2
:10150000FFF76BF805F0F4FF164A1748214606F07E
:1015100029F8164B186006F005F8FEE7003802407F
:1015200000080240DC320120000C02408833012018
:1015300000300240005C0040A086010030330120F2
:10154000005001407C340120400100A09033012074
:10155000006801400C220020140000203C340120CF
:1015600000B00240F0170208DF05000838340120FF
:10157000704770477FB5094B8DF817201B680293A1
:101580000DF117020123009201930A460146044817
:1015900004F058FB07B05DF804FB00BF0C0000200E
:1015A000DC3201207FB500238DF81730084B1B6813
:1015B00002930A4601230DF11701009101930146A0
:1015C000044804F0CFFB9DF8170007B05DF804FB5A
:1015D0000C000020DC3201201FB5084C246800926A
:1015E000CDE901340A4601230146054804F0BAFB5F
:1015F000003818BF012004B010BD00BF0C0000204F
:10160000DC32012003F010BD08B506480022042199
:1016100004F08EF8BDE8084002480122042104F0DD
:1016200087B800BF0008024038B50B4D04460122C0
:101630000A484FF4005104F07BF8002204212846A8
:1016400004F076F82046FFF76DFD28460122BDE83C
:101650003840042104F06CB800080240000C02403D
:1016600038B50B4D044600220A484FF4005104F0EF
:101670005FF800220421284604F05AF82046FFF7BC
:1016800051FD28460122BDE83840042104F050B83D
:1016900000080240000C0240F7B5144E144F0546F6
:1016A0000C4630460022042104F042F800224FF498
:1016B0000051384604F03CF82846FFF733FD0D4B47
:1016C0000D481B68224601A905F0A2FC38460122FC
:1016D0004FF40051019C04F02BF830460122042104
:1016E00004F026F8204603B0F0BD00BF0008024019
:1016F000000C0240100000203033012003F094BCA5
:101700000268034B9A4201D103F07CBC704700BFD2
:101710000010004082B00E4B00220092596C41F440
:1017200080415964596C01F4804100910099019203
:10173000196C41F0805119641B6C03F080530193C4
:10174000019B0F216FF0010002B003F093BC00BFBA
:10175000003802400268094B9A4282B00BD1002344
:101760000193074B1A6B42F480521A631B6B03F40C
:1017700080530193019B02B0704700BF00300240CC
:101780000038024007B50F4B02689A4216D100227A
:10179000A3F5F0430192196B41F4000119631B6B2F
:1017A00003F40003019305215A20019B03F062FC1E
:1017B0005A2003B05DF804EB03F08EBC03B05DF873
:1017C00004FB00BF00B002400268064B9A4207D1FA
:1017D000054A136B23F4000313635A2003F08ABCF9
:1017E000704700BF00B00240003802402DE9F043CE
:1017F000044689B01422002103A81EF0CBFD226804
:10180000244B9A4243D1244C244800250095236B55
:1018100043F004032363236B03F004030093009B52
:101820000195236B43F001032363236B03F0010352
:101830000193019B4FF012094FF400734FF0010820
:101840000327042603A9CDE90339CDE905870796C7
:1018500003F084FE4FF480731148079603A9CDE985
:101860000339CDE9058703F079FE0295236C43F433
:1018700000032364236C03F400030293029B236A96
:1018800043F400032362236A23F40003236209B0B4
:10189000BDE8F083005C00400038024000080240D0
:1018A00000000240F0B504468DB01422002107A8C4
:1018B0001EF070FD2268574B9A4240F0A98003F554
:1018C0005043002400945A6C534842F080625A649A
:1018D0005A6C02F080620092009A01941A6B42F0F6
:1018E00020021A631A6B02F020020192019A0294FC
:1018F0001A6B42F001021A631A6B02F001020292A3
:10190000029A03941A6B42F002021A631A6B02F0F5
:1019100002020392039A04941A6B42F040021A6383
:101920001A6B02F040020492049A05941A6B42F07A
:1019300004021A631A6B02F004020592059A0694D7
:101940001A6B42F008021A631B6B03F0080306933C
:1019500002250E26069B0B964FF4806307A9CDE95E
:101960000735CDE9094503F0F9FD41F658032B4849
:101970000B9607A9CDE907350927CDE9094503F0FD
:10198000EDFD032326480B9707A9CDE90735CDE9DF
:10199000094503F0E3FD4FF4706321480B9607A956
:1019A000CDE90735CDE9094503F0D8FD4FF40C63C7
:1019B0001C480B9607A9CDE90735CDE9094503F089
:1019C000CDFDC02318480B9607A9CDE90735CDE911
:1019D000094503F0C3FD082314480B9607A9CDE978
:1019E0000735CDE9094503F0B9FD4FF4A0530D4883
:1019F0000B9707A9CDE90735CDE9094503F0AEFD01
:101A000058202246052103F035FB582003F064FBE3
:101A10000DB0F0BD0068014000140240000002401B
:101A2000000402400018024000080240000C02407E
:101A300010B5044688B01422002103A81EF0AAFCA9
:101A40002268154B9A4224D103F568430022019283
:101A5000596C41F480115964596C01F48011019161
:101A600001990292196B41F0200119631B6B0592D9
:101A700003F0200302934FF46071029B0223CDE92F
:101A8000031303200523CDE9060303A9034803F04C
:101A900065FD08B010BD00BF0050014000140240B9
:101AA0002DE9F0412C4B1C6886B0002C50D14FF032
:101AB0000108C3F80080294B00949A6B284842EA39
:101AC00008029A639B6B039403EA080300930227BE
:101AD00003260C25009B01A94FF63F03CDE90137F2
:101AE000CDE9046503F03AFD1E48059501A9CDE94D
:101AF0000187CDE9034603F031FD48F233131A485C
:101B0000059501A9CDE90137CDE9034603F026FD8E
:101B10004FF683731548059501A9CDE90137CDE945
:101B2000034603F01BFD4CF203731148059501A910
:101B3000CDE90137CDE9034603F010FD60230D48E0
:101B4000059501A9CDE90137CDE9034603F006FD6E
:101B500006B0BDE8F08100BF10220020003802402E
:101B60000014024000080240001802400010024029
:101B7000000C02400004024030B5014689B000224A
:101B8000362003F077FA362003F0A6FA0025154B2D
:101B900002951A6C144C42F010021A641B6C03F08C
:101BA0001003029301A903A8029B04F03FFE04F076
:101BB0002DFE0E4B236040F2E733E36040000C4BF8
:101BC000B0FBF3F00138606020462561A56005F0A8
:101BD000D3FB20B9204605F0B3FA09B030BD01208F
:101BE000FBE700BF00380240B03401200010004085
:101BF00040420F007047FEE7FEE7FEE7FEE7704752
:101C0000014805F0B1BA00BFB0340120014804F02A
:101C1000E3BA00BF90330120014803F0D1BB00BFFD
:101C20003C3401200120704708B51EF059FB1623F3
:101C300003604FF0FF3008BD08B51EF051FB1623BE
:101C40000360FEE770B50E4614460025A54201DB91
:101C5000204670BDAFF3008070550135F6E770B5D2
:101C60000E4614460025A54201DB204670BD705D7E
:101C7000AFF300800135F6E74FF0FF3070474FF4C7
:101C800000534B60002070470120704700207047D0
:101C900008B50A4B1968024609B90949196018685C
:101CA000694602448A4206D91EF01AFB0C230360DF
:101CB0004FF0FF3008BD1A60FCE700BF142200207F
:101CC00048350120704710B5042104461EF0A7FADC
:101CD000204610BD08B5042918D8DFE801F0030735
:101CE0000B0F130002F094FC006808BD02F090FC9A
:101CF0004068FAE702F08CFC8068F6E702F088FCA6
:101D0000C068F2E702F084FC0069EEE70020ECE72F
:101D100000487047281802080820704713B50024AF
:101D200051B1036801948DF8034001AA9C680DF13C
:101D30000303A04702B010BD0846FBE74089704787
:101D4000808970478088704783798088184480B282
:101D50007047C07900F07F007047C079C0097047B4
:101D6000704710B5082104461EF059FA204610BDF0
:101D7000704700F596730868496803C37047704759
:101D80007047416070477047012303727047704786
:101D9000034610B49A6B8A42084608D00A68B3F921
:101DA0005010146D002223465DF8044B18475DF86F
:101DB000044B704770477047704700000B68084637
:101DC00002491B6DB1F900100022184714300120A0
:101DD00030B4C26844685510034604EB6200D20771
:101DE00048BF62599B6830BC48BFD3581847436806
:101DF0002BB183682BB9C06800F00100704718460A
:101E000070470120704710B4C268416854100346FF
:101E100001EB6200D20748BF0A599B685DF8044B8A
:101E200048BFD358184743682BB183682BB9C068A3
:101E300000F001007047184670470120704710B548
:101E40000C2104461EF0EBF9204610BD10B5102100
:101E500004461EF0E4F9204610BD10B54FF4AC71F5
:101E600004461EF0DCF9204610BD10B5542104468E
:101E70001EF0D5F9204610BD10B5102104461EF005
:101E8000CEF9204610BD10B50DF02CFE0368BDE85C
:101E900010401B6B18470000054B1B7801462BB107
:101EA000406818B103680C311B6E1847704700BFBB
:101EB0001F3001201F4B1B7810B5044613B90123B6
:101EC000037210BD90F84D0094F84C300130C0B250
:101ED000984284F84D0024D8B4F94E2000210FF028
:101EE00037FB10F0010283B221D04FF6FF710028BA
:101EF000D8BF0A461344A4F85030B4F85010238ACF
:101F0000C91A09B2A4F8501004F10C0000220EF016
:101F1000BCFD6068036804F13C015B6FBDE81040E4
:101F2000184701232372002384F84D30C9E7A4F831
:101F30005000E2E71F30012010B50446D0F83C0104
:101F400058B10368DB68984738B1D4F83C0103689E
:101F50009B6898470023C4F83C3110BD1FB50C4B5B
:101F60001B7804468BB10B4B1C22CDE900300123BA
:101F7000CDE902234068036869465B6F9847606853
:101F8000036804F10C01DB6D984704B010BD00BF7D
:101F90001F300120D4200208F8B5044617460E462B
:101FA0000DF008FE104B0025C4E954760F4E1C605E
:101FB000C4E952550E4B306823600E4BC4E95035CE
:101FC000036801219B68C4E94E559847284602F0F2
:101FD000D3FA336893F876200AB1D86C00B99868C0
:101FE00015F0DFFB2046F8BD8C30012020300120A9
:101FF0006C20020854200208064BC0F84831002328
:10200000C0F84C3100F5A073C0F84401C0F83C3171
:10201000704700BFC1230008064BC0F848310023B9
:10202000C0F84C3100F5A073C0F84401C0F83C3151
:10203000704700BFD9210008064BC0F84831002383
:10204000C0F84C3100F5A073C0F84401C0F83C3131
:10205000704700BF19250008064BC0F8483100231F
:10206000C0F84C3100F5A073C0F84401C0F83C3111
:10207000704700BF71260008064BC0F848310023A6
:10208000C0F84C3100F5A073C0F84401C0F83C31F1
:10209000704700BFC92700082DE9F84F0746906830
:1020A000DDF828A0994603681B6A884614469847BD
:1020B000B0F5BA7F05D2424B424AA72142481EF0F2
:1020C000DDF8606803681B6A98470F2803D83F4B08
:1020D0003C4AA821F2E7E06803681B6A98470B288E
:1020E00003D83B4B374AA921E8E70DF0FBFC0DF084
:1020F00047FDD9F8000010B10368DB689847D9F8AC
:10210000000010B103681B689847386810B1036875
:102110005B699847D8F8000010B103685B6898477E
:10212000386810B103681B689847D8F8000010B1F0
:1021300003689B689847E068036800215B6A9847DA
:102140004FF0000B234B03600546C0F804B080F845
:1021500008B0A068036859465B6A9847064602F0D3
:10216000B5FA6068036859465B6A98473146044689
:1021700002F092FAC9F80050C8F800403E60E4B19D
:10218000231DCAF808303368C4F808A03046DB685D
:10219000F4639847236820461B68984729463046D1
:1021A0000FF08FF92B6828461B6998472B68284643
:1021B0005B6998472046BDE8F88F2346E1E700BFFA
:1021C000D818020866190208641A0208AB1A020835
:1021D0004E1B0208B020020807B5D0F85431009316
:1021E000D0F85021044B00F59C710448FFF754FFD0
:1021F00003B05DF804FB00BF803001207C3001207B
:1022000003685B6A184700002DE9F0410546002687
:102210001A4B4660067245F80C3B044628460F46AA
:102220000BF0E4F9164BA563C4E90F342022012317
:10223000C4E91123134B84F84C701B7884F84D606B
:10224000A4F85060B3B1104B104FB3F90080E368AD
:10225000B7F900105B6B266128469847E368414652
:102260009B6B2846984728460BF03BF93B885B421E
:10227000A4F84E302046BDE8F08100BFEC200208F3
:10228000D42002081F300120163001201430012014
:102290002DE9F04707469068DDF820A099460368CD
:1022A0001B6A884614469847B0F5047F05D23F4B19
:1022B0003F4AA7213F481DF0E1FF606803681B6AA1
:1022C00098470F2803D83C4B394AA821F2E7E06829
:1022D00003681B6A9847532803D8384B344AA9210E
:1022E000E8E70DF0FFFB0DF04BFCD9F8000010B152
:1022F0000368DB689847D9F8000010B103681B68D1
:102300009847386810B103685B699847D8F80000AF
:1023100010B103685B689847386810B103681B68A0
:102320009847D8F8000010B103689B689847E068A8
:102330000021FFF765FF14210546FFF765FFA06840
:10234000036800215B6A9847064602F0DDFA606880
:10235000036800215B6A98473146044602F064FA3C
:10236000C9F80050C8F800403E60E4B1231DCAF827
:1023700008303368C4F808A03046DB68F463984737
:10238000236820461B689847294630460FF099F885
:102390002B6828461B6998472B6828465B69984735
:1023A0002046BDE8F0872346E1E700BFD8180208C1
:1023B000F11B0208641A0208AB1A02084E1B02083D
:1023C00007B5D0F854310093D0F85021044B00F5F4
:1023D0009C710448FFF75CFF03B05DF804FB00BF8D
:1023E000803001207C3001202DE9F04707469068BD
:1023F000DDF820A0994603681B6A88461446984772
:10240000B0F5BA7F05D23F4B3F4AA7213F481DF0A8
:1024100035FF606803681B6A98470F2803D83C4B58
:10242000394AA821F2E7E06803681B6A98475328F5
:1024300003D8384B344AA921E8E70DF053FB0DF0DF
:102440009FFBD9F8000010B10368DB689847D9F802
:10245000000010B103681B689847386810B1036822
:102460005B699847D8F8000010B103685B6898472B
:10247000386810B103681B689847D8F8000010B19D
:1024800003689B689847E0680021FFF7B9FE1421B4
:102490000546FFF7B9FEA068036800215B6A98470C
:1024A000064602F013F96068036800215B6A9847EA
:1024B0003146044602F0F0F8C9F80050C8F8004070
:1024C0003E60E4B1231DCAF808303368C4F808A0A0
:1024D0003046DB68F4639847236820461B689847BA
:1024E000294630460EF0EDFF2B6828461B699847B9
:1024F0002B6828465B6998472046BDE8F08723464D
:10250000E1E700BFD8180208081D0208641A020893
:10251000AB1A02084E1B020807B5D0F854310093DD
:10252000D0F85021044B00F59C710448FFF75CFF84
:1025300003B05DF804FB00BF803001207C30012037
:102540002DE9F04707469068DDF820A0994603681A
:102550001B6A88461446984741F25B13984205D897
:102560003E4B3F4AA7213F481DF088FE6068036844
:102570001B6A98470F2803D83B4B394AA821F2E73A
:10258000E06803681B6A9847532803D8374B344ADE
:10259000A921E8E70DF0A6FA0DF0F2FAD9F800004B
:1025A00010B10368DB689847D9F8000010B10368E0
:1025B0001B689847386810B103685B699847D8F87A
:1025C000000010B103685B689847386810B1036871
:1025D0001B689847D8F8000010B103689B689847BB
:1025E000E0680021FFF70CFE14210546FFF70CFE02
:1025F000A068036800215B6A9847064602F0E8F885
:102600006068036800215B6A98473146044602F01F
:1026100089F8C9F80050C8F800403E60E4B1231DB5
:10262000CAF808303368C4F808A03046DB68F463A1
:102630009847236820461B689847294630460EF085
:1026400040FF2B6828461B6998472B6828465B6922
:1026500098472046BDE8F0872346E1E7D8180208EE
:10266000191E0208641A0208AB1A02084E1B02085F
:1026700007B5D0F854310093D0F85021044B00F541
:102680009C710448FFF75CFF03B05DF804FB00BFDA
:10269000803001207C3001202DE9F047074690680A
:1026A000DDF820A0994603681B6A884614469847BF
:1026B000B0F56A6F05D23F4B3F4AA7213F481DF056
:1026C000DDFD606803681B6A98470F2803D83C4B00
:1026D000394AA821F2E7E06803681B6A9847532843
:1026E00003D8384B344AA921E8E70DF0FBF90DF087
:1026F00047FAD9F8000010B10368DB689847D9F8A9
:10270000000010B103681B689847386810B103686F
:102710005B699847D8F8000010B103685B68984778
:10272000386810B103681B689847D8F8000010B1EA
:1027300003689B689847E0680021FFF761FD14215A
:102740000546FFF761FDA068036800215B6A9847B2
:10275000064602F085F96068036800215B6A9847C5
:102760003146044602F028F9C9F80050C8F8004084
:102770003E60E4B1231DCAF808303368C4F808A0ED
:102780003046DB68F4639847236820461B68984707
:10279000294630460EF095FE2B6828461B6998475F
:1027A0002B6828465B6998472046BDE8F08723469A
:1027B000E1E700BFD8180208321F0208641A0208B5
:1027C000AB1A02084E1B020807B5D0F8543100932B
:1027D000D0F85021044B00F59C710448FFF75CFFD2
:1027E00003B05DF804FB00BF803001207C30012085
:1027F000006A704770478B8880690A68DB0A50F866
:1028000023001044704710B5C2B1137BB3B1547BA1
:10281000D27A240204F4E0641443C26998B202EB51
:10282000840213888B4202D192F9020010BD05D8B0
:10283000013880B204320028F3D1F7E70020F5E731
:1028400010B5242104461DF0EAFC204610BD00000E
:1028500030B589B00446BDF850500695BDF84C50CF
:1028600005959DF8405004959DF83C5003959DF8C2
:10287000385002959DF8345001959DF830500095E0
:102880000EF094F9054B2360119BA361129BE36149
:10289000159B2362204609B030BD00BF18210208F5
:1028A0000020704781807047C18070470181704768
:1028B000418170477047704770477047704710B448
:1028C000C4880368121B84881B6D091B12B25DF853
:1028D000044B09B218474FF6FF7383814FF0FF3363
:1028E00003621368C3611060704770477047704798
:1028F0007047704790F825201AB190F8242002B153
:102900001860704770477047704730B4C2684468B9
:102910005510034604EB6200D20748BF62599B681A
:1029200030BC48BFD358184743682BB183682BB9D4
:10293000C06800F0010070471846704701207047DA
:1029400010B5102104461DF06AFC204610BD10B5DC
:102950004FF4BA7104461DF062FC204610BD08B564
:1029600000F19803994205D10DF0BCF8BDE808408C
:10297000FFF742BBE030814205D10DF0B3F8BDE86E
:102980000840FFF779BB08BD70B503680446DB6AF1
:10299000154698472368294620461B6BBDE87040C2
:1029A000184770B504461D46BDF91060FFF7ECFFEF
:1029B0002368294620465B6B9847236831462046AA
:1029C0009B6BBDE870401847084901604FF4807167
:1029D00000228184FF21C0E90122C0E90322C0E96D
:1029E0000522C26180F8261082627047704A020890
:1029F00073B5018F4FF6FF739942064633D01C4BD7
:102A00001B682BB91B4B1C4AB1211C481DF036FC1E
:102A10001B4A12888A4203D81A4B174AB221F4E79C
:102A200013F81120184B1B6853F82250174B1868E5
:102A300001F0DEFD2B68019001469B6A284698470D
:102A40002B6801991B6C0446284698472B6801990E
:102A50005B6A14FB00F428469847E4B2044486F805
:102A6000454002B070BD002380F84530F9E700BF53
:102A70009030012064210208A6210208D421020816
:102A8000943001201B220208983001209C30012044
:102A900013460C4A70B515682DB90B4B0B4A0C4800
:102AA00035211DF0EBFB95F876200AB1EC6C04B9EA
:102AB000AC682268956A0A46AC4601462046BDE8E5
:102AC00070406047203001206D220208B0220208C9
:102AD0000C2302082DE9F04F044689B0A0460025DA
:102AE0000EF074FB6D4BE56348F8403B04F16C0A53
:102AF0004046FFF769FF04F198075046FFF764FF6F
:102B000004F1E00638460BF005FB30460BF002FB03
:102B10004FF48073A4F84C31614BC4F82831614BF9
:102B2000C4F850314FF6FF73A4F854314FF47F03CB
:102B3000C4F85C315C4BC4F84451C4E959345B4B74
:102B4000C4F858514FF4A07BC4E95B35CDF800B010
:102B5000F0232A4629464046C4E94B55C4E94D5561
:102B6000C4E94F55A4F86051FFF71BFF2A462946D8
:102B70002846FFF78DFFF023A066CDF800B02A4667
:102B800029465046FFF70DFFD62281215020FFF73E
:102B90007FFFA022C4F8940023213846FFF7F4FEFB
:102BA0004FF003024FF0020B05A9ADF8182038468C
:102BB00006AAADF814B00AF057FFA4F8D0B0384612
:102BC000FFF716FFFF2211461046FFF761FFFF22B5
:102BD000C4F8D40011461046FFF75AFF04F5B2734B
:102BE000C4F8C030C4F8D800E9223046232103934A
:102BF000FFF7CAFE06AA05A9ADF814B030464FF09B
:102C0000030BADF818B00AF02FFF3046A4F818B146
:102C1000FFF7EEFEFF2211461046FFF739FFFF22B5
:102C2000C4F81C0111461046FFF732FF04F59479F1
:102C3000039BC4F80831C4F820013F2248462321F1
:102C4000FFF7A2FE2A4629462846FFF721FF154B2B
:102C5000C4F85801069306A908234846A4F85C5115
:102C6000ADF81C300AF0C1FE201D4146039008F06B
:102C70005BFB0398514608F057FB0398394608F070
:102C800053FB0398314608F04FFB0398494608F080
:102C90004BFB204609B0BDE8F08F00BF702302084F
:102CA000C8490208D0180208582302085F29000802
:102CB000806A70477047704710B5B42104461DF014
:102CC000AEFA204610BD0000064A02600022C0E9AC
:102CD0000122C0E90322C0E90522C2614FF48072DB
:102CE00082847047185002082DE9F74304462646AF
:102CF0000025FFF7E9FF4E4BA56246F82C3B29461D
:102D0000262230461DF046FB3046FFF7DDFF4FF030
:102D1000FF09484BE36204F16007262229466565F6
:102D2000A565A4F85C5084F8529038461DF032FB3B
:102D30003846FFF7C9FF4FF6FF73A4F88C304FF405
:102D40007F03C4F894303C4B2366DFF814813B4B7F
:102D5000A3602946C4F89050A4F89850C4F89C5039
:102D60003046C4F88880FFF79DFD29463046FFF7BE
:102D70009BFD64213046FFF799FD28213046FFF77F
:102D800097FD4A4649464846FFF782FED022114643
:102D900060651046FFF77CFE0323A4F85C30CB236C
:102DA00084F852304FF42023A06563662A462946F2
:102DB0002846FFF76DFE224BA4F894501B68C4F818
:102DC000900004F1A0052BB91E4B1F4AB1211F48EA
:102DD0001DF054FA1E4B1B88102B03D81D4B1A4AAA
:102DE000B221F4E71C4B1021186801F001FC1B4ACA
:102DF00003460A2128460FF01BFF3846C4F89C50B2
:102E00000AF0D6FD0C2369463846ADF80430CDF8FB
:102E100000800AF0EAFD3146204608F085FA204697
:102E2000394608F081FA204603B0BDE8F08300BFC0
:102E3000A8230208B04B0208084B020864002800CF
:102E40009030012064210208A6210208D421020842
:102E5000943001201B2202089C3001209C23020890
:102E6000D018020841727047407A70477047704727
:102E7000704730B4C26844685510034604EB6200E2
:102E8000D20748BF62599B6830BC48BFD358184727
:102E900043682BB183682BB9C06800F0010070470C
:102EA000184670470120704710B5102104461DF0E8
:102EB000B6F9204610BD10B541F2481104461DF088
:102EC000AEF9204610BD08B500F52673994205D12C
:102ED0000CF008FEBDE80840FFF7CEB800F53870EA
:102EE000814205D10CF0FEFDBDE80840FFF7A4B813
:102EF00008BD00004FF6FF7238B500230281104A6A
:102F00004360C0E9033302600446FDF78BFD0368AC
:102F10001B6A98470B4B1B68B0FA80F5D86C6D099B
:102F200028B103681B6A9847002808BF01252DB9FE
:102F3000054B064A06482F211DF0A0F9204638BD52
:102F400060460208203001202C2402088A2402084E
:102F5000C32402082DE9F04F2DED048B044689B0FF
:102F60000EF034F922460025B84BE56342F8403BA9
:102F7000104608EE102AFFF727FD04F16C0304F158
:102F80009807184609EE103A04F5CC7AFFF71CFDB5
:102F9000384606F021FD4FF6FF785046ADF8188010
:102FA000FFF7A8FFAA4BC4F8983106A904F5E27907
:102FB000C4E96D585046C4E96B55C4F8BC51A4F837
:102FC000C05109F06DFC84F8A181484604F50378EE
:102FD0000BF0A0F8404608F05BF804F5267304F502
:102FE000387B184608EE903A0BF094F858460BF0F0
:102FF00091F8984BC4E9CA34974B04F54E70C4E974
:10300000CC354FF461610BF0B1F84FF4A07318EEBA
:10301000100A00932A46F0232946FFF7C2FC2A46ED
:1030200029462846FFF734FD4FF4A073A0660093AD
:1030300019EE100AF0232A462946FFF7B2FCD622E1
:1030400081215020FFF724FD1C22C4F89400114672
:103050003846FFF799FCB82300932A46294638469C
:1030600006F051FC2B462946384600954FF4616224
:1030700006F0A2FD5C221146384606F0EDFB38460C
:103080005A2106F0FDFB2946384606F003FC5A2279
:1030900038466FF0590106F07FFC042306A9384634
:1030A000ADF8183006F030FE4FF0050306A9504683
:1030B000ADF8183009F0F4FB5146384606F005FC2F
:1030C0002946384606F04CFC4846E5225A21FFF7CF
:1030D0005BFC4FF0010A06AA05A94846ADF814505A
:1030E000ADF818A00AF0C0FC0423FF26A4F8FC31B8
:1030F0004846FFF77DFC324631463046FFF7C8FCB4
:103100003246C4F8000231463046FFF7C1FC2223A4
:10311000C4F80402009340468E2367223121FFF752
:1031200040FC2A4629462846FFF7B2FC01464046A5
:1031300007F06CFE494B069306A94FF00503404685
:10314000ADF81C3007F0AEFE5146404607F0E2FFF6
:10315000032384F83B322A462B462946404607F093
:10316000DCFF18EE900AE5221C21FFF70DFC06AAF1
:1031700005A918EE900AADF81450ADF818A00AF0A1
:1031800073FC0623A4F8D03218EE900AFFF730FC47
:10319000324631463046FFF77BFC3246C4F8D40253
:1031A00031463046FFF774FC04F54A73C4F8C03268
:1031B000C4F8D802E52258469B210393FFF7E4FBAD
:1031C00006AA05A95846ADF81450ADF818A00AF0A3
:1031D0004BFC0723A4F818335846FFF709FC324686
:1031E00031463046FFF754FC3246C4F81C033146E2
:1031F0003046FFF74DFC039BC4F8083318EE101A55
:10320000C4F82003201D039008F08EF819EE101A60
:10321000039808F089F80398394608F085F8039870
:10322000494608F081F80398414608F07DF818EE09
:10323000901A039808F078F80398594608F074F843
:10324000204609B0BDEC048BBDE8F08F482502088C
:10325000BC45020830250208C72E0008D018020815
:103260007047704770477047704730B4C268446811
:103270005510034604EB6200D20748BF62599B68B1
:1032800030BC48BFD358184743682BB183682BB96B
:10329000C06800F001007047184670470120704771
:1032A00010B5102104461CF0BAFF204610BD10B521
:1032B0004FF4FE7104461CF0B2FF204610BD00F52D
:1032C0009272914210B504D103681B6BBDE81040A7
:1032D000184700F5AE72914202D10368DB6AF5E748
:1032E00000F5D273994205D10CF0FCFBBDE810400B
:1032F000FEF7A2BE10BD00002DE9F04F2DED028BB0
:10330000044689B0A24600250DF060FF854BE563B9
:103310004AF8403B5046FFF757FB04F16C0304F1B9
:103320009807184608EE103AFFF74EFB384607F0AC
:10333000AFFE40F2011304F5AE797B4AA4F84831A0
:103340004FF6FF7304F5D278A4F85231A4F8543143
:1033500084F85631C4F82421A4F85831C4E94A55F8
:10336000C4E94C55C4E94E55C4F84051C4F84C5119
:1033700084F8505148460AF0CDFE40460AF0CAFE95
:103380006A4BC4E97B346A4BC4E97D354FF4A073C2
:1033900000932A46F02329465046FFF702FB2A46AF
:1033A00029462846FFF774FB4FF4A073A0660093EC
:1033B00018EE100AF0232A462946FFF7F2FAD62221
:1033C00081215020FFF764FB4623FF26C4F89400B8
:1033D00000933846D42331220E21FFF7E2FA324619
:1033E00031463046FFF754FB0146384607F00EFDE4
:1033F000504B069306A93846ADF81C5007F052FD15
:103400003846012107F086FE032304F5927B84F8F9
:10341000C7302A462B462946384607F07EFE5846D6
:103420007A223821FFF7B0FA0623ADF814300723CB
:10343000A4F8583106AA05A95846ADF818300AF084
:1034400013FB04F5F673C4F84C314846BE2238210C
:103450000393FFF799FA06AA05A94846ADF8145058
:10346000ADF818500AF000FB0123A4F89431484647
:10347000FFF7BEFA324631463046FFF709FB3246C7
:10348000C4F8980131463046FFF702FB039BC4F8AD
:103490009C01C4F884314046BE227C21FFF774FAB7
:1034A000012305A906AA4046ADF81830ADF814501E
:1034B0000AF0DAFA0B22A4F8DC214046FFF798FA6A
:1034C000324631463046FFF7E3FA3246C4F8E001AF
:1034D00031463046FFF7DCFA039BC4F8CC31C4F820
:1034E000E4015146201D039007F01EFF18EE101A4C
:1034F000039807F019FF0398394607F015FF039862
:10350000594607F011FF0398494607F00DFF03984D
:10351000414607F009FF204609B0BDEC028BBDE82B
:10352000F08F00BF94250208EC4802087C250208B1
:10353000BF320008D01802087047704710B5B42198
:1035400004461CF06CFE204610BD00002DE9F74338
:10355000044626460025FFF7B7FB4D4BA56246F80B
:103560002C3B2946262230461CF014FF3046FFF73C
:10357000ABFB4FF0FF09474BE36204F160072622E3
:1035800029466565A565A4F85C5084F852903846D4
:103590001CF000FF3846FFF797FB4FF6FF73A4F8C7
:1035A0008C304FF47F03C4F894303B4B2366DFF834
:1035B00014813A4BA3602946C4F89050A4F898505F
:1035C000C4F89C503046C4F88880FFF76BF9294650
:1035D0003046FFF769F964213046FFF767F9282183
:1035E0003046FFF765F94A4649464846FFF750FA24
:1035F000D022114660651046FFF74AFA0323A4F86B
:103600005C30CB2384F85230254BA06563662A4694
:1036100029462846FFF73CFA224BA4F894501B6831
:10362000C4F8900004F1A0052BB91F4B1F4AB1212B
:103630001F481CF023FE1F4B1B88112B03D81E4B69
:103640001A4AB221F4E71D4B1121186800F0D0FF8F
:103650001B4A03460A2128460FF0EAFA3846C4F806
:103660009C500AF0A5F90D2369463846ADF80430A0
:10367000CDF800800AF0B9F93146204607F054FE33
:103680002046394607F050FE204603B0BDE8F083DF
:10369000D0250208B04B0208084B0208640028003D
:1036A00002000A009030012064210208A6210208CD
:1036B000D4210208943001201B2202089C300120F2
:1036C0009C230208D01802087047704710B5B42137
:1036D00004461CF0A4FD204610BD00002DE9F74370
:1036E000044626460025FFF7EFFA4D4BA56246F843
:1036F0002C3B2946262230461CF04CFE3046FFF774
:10370000E3FA4FF0FF09474BE36204F1600726221A
:1037100029466565A565A4F85C5084F85290384642
:103720001CF038FE3846FFF7CFFA4FF6FF73A4F8C7
:103730008C304FF47F03C4F894303B4B2366DFF8A2
:1037400014813A4BA3602946C4F89050A4F89850CD
:10375000C4F89C503046C4F88880FFF7A3F8294687
:103760003046FFF7A1F864213046FFF79FF8282183
:103770003046FFF79DF84A4649464846FFF788F924
:103780006D22114660657020FFF782F90323A4F8CB
:103790005C30CB2384F85230254BA06563662A4603
:1037A00029462846FFF774F9224BA4F894501B6869
:1037B000C4F8900004F1A0052BB91F4B1F4AB1219A
:1037C0001F481CF05BFD1F4B1B88132B03D81E4B9F
:1037D0001A4AB221F4E71D4B1321186800F008FFC4
:1037E0001B4A03460A2128460FF022FA3846C4F83D
:1037F0009C500AF0DDF8122369463846ADF80430D3
:10380000CDF800800AF0F1F83146204607F08CFD33
:103810002046394607F088FD204603B0BDE8F08316
:103820005C260208B04B0208084B0208640028001E
:10383000FCFF0A009030012064210208A621020842
:10384000D4210208943001201B2202089C30012060
:103850009C230208D01802087047704710B5B421A5
:1038600004461CF0DCFC204610BD00002DE9F743A7
:10387000044626460025FFF727FA4D4BA56246F879
:103880002C3B2946262230461CF084FD3046FFF7AB
:103890001BFA4FF0FF09474BE36204F16007262251
:1038A00029466565A565A4F85C5084F852903846B1
:1038B0001CF070FD3846FFF707FA4FF6FF73A4F8C7
:1038C0008C304FF47F03C4F894303B4B2366DFF811
:1038D00014813A4BA3602946C4F89050A4F898503C
:1038E000C4F89C503046C4F88880FEF7DBFF2946B8
:1038F0003046FEF7D9FF64213046FEF7D7FF282176
:103900003046FEF7D5FF4A4649464846FFF7C0F81D
:103910006D22114660657020FFF7BAF80323A4F802
:103920005C30CB2384F85230254BA06563662A4671
:1039300029462846FFF7ACF8224BA4F894501B68A0
:10394000C4F8900004F1A0052BB91F4B1F4AB12108
:103950001F481CF093FC1F4B1B88152B03D81E4BD4
:103960001A4AB221F4E71D4B1521186800F040FEF9
:103970001B4A03460A2128460FF05AF93846C4F874
:103980009C500AF015F8142369463846ADF8043007
:10399000CDF800800AF029F83146204607F0C4FC33
:1039A0002046394607F0C0FC204603B0BDE8F0834E
:1039B000E8260208B04B0208084B02086400280001
:1039C000FCFF0A009030012064210208A6210208B1
:1039D000D4210208943001201B2202089C300120CF
:1039E0009C230208D0180208704770477047704740
:1039F00070472DE9F0411E4600F546739942044692
:103A00000D4617461BD10B6828469B681146984700
:103A10002368DB6A014632462046984704F6841341
:103A20009D4219D12B6839469B68284698472368E0
:103A30005B6B014632462046BDE8F041184700F571
:103A4000D4639942EAD10B6828469B68114698478F
:103A5000236801461B6BDEE704F60C539D4208D138
:103A60002B6839469B6828469847236801469B6B1C
:103A7000E0E7BDE8F081052070470220704705208F
:103A800070470220704770477047000038B5054600
:103A9000074B45F8043BD0F8B83004461B68B830F3
:103AA0009847636828461B689847204638BD00BF82
:103AB0008C2B020838B5074B036004464FF435756C
:103AC000635960191B68B43D984715F1B00FF7D1E1
:103AD000204638BD742B020838B50546074B45F81B
:103AE000043BD0F8B83004461B68B8309847636888
:103AF00028461B689847204638BD00BF5C2B02084B
:103B000038B5074B036004464FF4357563596019A7
:103B10001B68B43D984715F1B00FF7D1204638BD6A
:103B2000442B020810B50A4B0360044600F60C5003
:103B3000FFF7ACFF04F68410FFF7BCFF04F5D46078
:103B4000FFF7CAFF04F54670FFF7DAFF204610BD05
:103B5000D42B02087047F0B4C56846686F1004465D
:103B600006EB6500ED07A46844BFF5592C59A4463F
:103B7000F0BC604743682BB183682BB9C06800F084
:103B800001007047184670470120704730B4C26882
:103B900044685510034604EB6200D20748BF6259DF
:103BA0009B6830BC48BFD358184743682BB1836823
:103BB0002BB9C06800F0010070471846704701201B
:103BC000704710B50446FFF79BFF20464FF4627123
:103BD0001CF025FB204610BD10B50446FFF77CFF06
:103BE00020464FF4B6711CF01AFB204610BD10B5EC
:103BF0000446FFF75FFF20464FF462711CF00FFB95
:103C0000204610BD10B50446FFF740FF20464FF494
:103C1000B6711CF004FB204610BD10B54FF4BC710A
:103C200004461CF0FCFA204610BD10B510210446D5
:103C30001CF0F5FA204610BD10B5102104461CF00A
:103C4000EEFA204610BD10B50446FFF76BFF204684
:103C500040F698611CF0E3FA204610BD08B58BB21F
:103C6000042B05D9054B064A064854211CF006FBD7
:103C7000B42301FB0300043008BD00BF6C27020819
:103C8000872702081B28020808B58BB2012B05D92B
:103C9000054B064A064854211CF0F0FAB42301FBF8
:103CA0000300043008BD00BF6C2702087A28020810
:103CB0001B28020808B58BB2042B05D9054B064A10
:103CC000064854211CF0DAFAB42301FB0300043047
:103CD00008BD00BF6C270208152902081B2802082E
:103CE00008B58BB2012B05D9054B064A064854216D
:103CF0001CF0C4FAB42301FB0300043008BD00BF6C
:103D00006C270208A82902081B28020810B50446DF
:103D10002C3006F004FA04F1C40006F000FA04F5B1
:103D20008870BDE8104006F0FAB970B5044600F599
:103D3000D070FFF7EBFF4FF4477563596019D3F864
:103D40008030B4359847B5F5D46FF6D104F2A4604D
:103D500000F0FDFDD4F8583704F5EB60D3F880305F
:103D6000984704F60C00FFF7D1FF40F6881540F69F
:103D70000C5663596019D3F88030B4359847B54272
:103D8000F7D104F5516000F0F6FDD4F8C43D04F617
:103D9000C450D3F88030BDE87040184770B5044671
:103DA0000D4606F091FBD4F8740160B10368DB683E
:103DB000984740B1D4F8740103682A4621469B68AD
:103DC000BDE87040184770BD00F19802914208B5F7
:103DD00005D10BF087FEBDE80840FEF72DB900F1D4
:103DE000E002914208D10368DB6B98470BF07AFE42
:103DF000BDE80840FEF730B908BD00004FF48071FF
:103E000081840A4901600A4981624FF6FF710022EC
:103E100081854FF47F01C0E90122C0E90322C0E996
:103E20000522C2610263416302877047C8490208E4
:103E3000D01802082DE9F04F2DED088B044689B00B
:103E40000DF0C4F92246F04B0025E56342F8403BF3
:103E5000104608EE102AFEF7B7FD04F16C03184671
:103E600004F1980909EE903A04F1E008FEF7ACFD80
:103E700048460AF04FF940460AF04CF904F59473AD
:103E8000184608EE903AFFF7B9FF04F5B2731846EA
:103E900004F5D07709EE103AFFF7B0FF384606F088
:103EA00017FCDA4BC4F8A031012384F8C43104F5BF
:103EB00046730AEE103AD64BC4F8183304F5D463AF
:103EC000C4F81453039304F54775284600F012FC18
:103ED000039BB4359D42F8D1CE4BC4F8A03604F212
:103EE000A46000F03DFD04F60C0604F5EB6000F064
:103EF00037FD304606F0ECFBC44BC4F80C38002309
:103F0000C4F88039012384F8303804F684130AEEAB
:103F1000903AC14BC4F8843904F6881504F60C5A5B
:103F20002846B43500F008FD5545F9D1BB4BC4F81F
:103F30000C3D04F5516004F60C530BEE103A00F002
:103F400023FD04F6C45000F01FFDB54BC4F8783EC5
:103F5000B44BC4F8803EB44BC4F8883E00254FF4FF
:103F6000A07AB24BC4F8845E18EE100AC4F8903EF2
:103F7000C4F8945ECDF800A0F0232A462946C4F880
:103F80007C4EC4F88C4EFEF70CFD2A462946284686
:103F9000FEF77EFDF023A066CDF800A019EE900A92
:103FA0002A462946FEF7FDFCD62281215020FEF745
:103FB0006FFDFC22C4F8940023214846FEF7E4FC80
:103FC0004FF0030A022305A906AA4846ADF81430AB
:103FD000ADF818A009F048FD0922A4F8D020484601
:103FE000FEF706FDFF2211461046FEF751FDFF22A7
:103FF000C4F8D40011461046FEF74AFD04F6786B6B
:10400000C4F8D800C4F8C0B04046C0222321FEF74F
:10401000BBFC022306AA05A9ADF818A040464FF044
:104020000A0AADF8143009F01FFD4046A4F818A1A3
:10403000FEF7DEFCFF2211461046FEF729FDFF22A7
:10404000C4F81C0111461046FEF722FDC4F808B161
:10405000C4F82001062218EE900A1C21FEF794FCF9
:104060002A4629462846FEF713FDDFF8C8B1C4F8F2
:1040700058010E2318EE900AA4F85C5106A9ADF879
:104080001C30CDF818B009F0B0FC19EE100A062269
:104090008F21FEF779FC2A4629462846FEF7F8FCD0
:1040A000A4F89851C4F894010F2319EE100A06A938
:1040B000CDF818B0ADF81C3009F097FC74232C2211
:1040C0000093384664230B21FEF76BFC29463846E3
:1040D00006F0F4FB3846012106F096FA38465449BA
:1040E00006F057FD5146384606F056FD5146384613
:1040F00006F055FD38463C2106F097FA38461F2158
:1041000006F0F0FB2A462946384606F0F4FB2A461C
:104110002946384606F0F5FB04F6886B384601223E
:10412000282106F0F4FB039BCDF800B01AEE101A1C
:104130005A46384606F009FC2A462946384606F013
:104140001CFC74232C220093304664238021FEF74C
:1041500028FC2946304606F0B1FB3046012106F026
:1041600053FA3046324906F014FD5146304606F007
:1041700013FD5146304606F012FD30463C2106F054
:1041800054FA30461F2106F0ADFB2A462946304638
:1041900006F0B1FB2A462946304606F0B2FB30460F
:1041A0000122282106F0B3FB1BEE103A1AEE901AFA
:1041B0005A463046CDF800B006F0C7FB2A462946DD
:1041C0003046251D06F0D9FB18EE101A284607F0D8
:1041D000ABF819EE901A284607F0A6F8494628468B
:1041E00007F0A2F84146284607F09EF818EE901A0C
:1041F000284607F099F819EE101A284607F094F8A7
:104200003946284618E000BFD42B02084C2A020881
:10421000442B02085C2B0208742B02088C2B02082A
:10422000A42B0208C93D0008BC2B0208F339000882
:10423000D1140108D018020807F076F82846314654
:1042400007F072F8204609B0BDEC088BBDE8F08F8E
:104250007047000030B5144D2C78BFF35B8F14F01D
:1042600001048BB01DD128461BF0DBFFC8B13F23F2
:1042700007930E4B06930E4B0E490F4803940122F1
:10428000CDE904430423CDE90132CDE908441423E8
:104290000094FEF7DDFA28461BF0CFFF07481CF01C
:1042A0000BF805480BB030BD182200207C810208B5
:1042B000142C0208C07D02081C2200205142000874
:1042C0007047000030B5154D2C78BFF35B8F14F0AC
:1042D00001048BB01FD128461BF0A3FFD8B13F23A8
:1042E00007930F4B06930F4B05930123CDE903432F
:1042F000029304220523CDE900320B490B48182311
:104300000B22CDE90844FEF7A3FA28461BF095FFDF
:1043100007481BF0D1FF05480BB030BD40220020FC
:1043200080810208182C0208D07D02084422002057
:10433000C14200087047000030B5154D2C78BFF31E
:104340005B8F14F001048BB01ED128461BF069FF6F
:10435000D0B13F2307930F4B06930F4B0F491048E3
:104360000394CDE9044301220423CDE90132CDE9D0
:1043700008440D2308220094FEF76AFA28461BF031
:104380005CFF08481BF098FF05480BB030BD00BF2C
:1043900068220020848102081C2C02086C7E02081E
:1043A0006C220020354300087047000030B5154DE1
:1043B0002C78BFF35B8F14F001048BB01ED128461C
:1043C0001BF02FFFD0B13F2307930F4B06930F4BEA
:1043D00005930123CDE9034302930423CDE9003380
:1043E0000B490C4811232022CDE90844FEF730FA8E
:1043F00028461BF022FF08481BF05EFF05480BB063
:1044000030BD00BF9022002088810208202C0208C5
:10441000DC7E020894220020A943000870470000B7
:1044200030B5154D2C78BFF35B8F14F001048BB0C1
:104430001ED128461BF0F5FED0B13F2307930F4B4A
:1044400006930F4B0F4910480394CDE90443012212
:104450000423CDE90132CDE908441E231022009443
:10446000FEF7F6F928461BF0E8FE08481BF024FF8B
:1044700005480BB030BD00BFB8220020948102086F
:10448000242C02089C800208BC2200201D44000845
:10449000002070470EB403B503AB002153F8042B82
:1044A00001930CF0B9F902B05DF804EB03B070476A
:1044B0000CB407B504AB53F8042B01930CF0ACF922
:1044C00003B05DF804EB02B070470000C36B10B599
:1044D000044673B3038E2BB9184B194AC0211948EF
:1044E0001BF0CCFEC38D00EB43035B8B0BB30DF0D5
:1044F000E5FD238E012B03D8134B144AC521EEE7AB
:10450000E28D531C9BB2092B194688BFA3F10A0107
:1045100004EB410140F63F10498B814209D10A2B3F
:1045200004EB420228BF002304EB4303508B588363
:1045300051832046BDE810400DF0A4BC282C020891
:10454000312C0208DC2C0208262D0208342D02082A
:104550000DF052BC10B586B002AC84E806001A46D5
:104560000AAB05930193099B00932146089B0AF02F
:1045700048FE06B010BD000038B518BB124B1348FA
:104580001B681349B3B11A689C681A4402605A68E0
:104590001A440A601C440F4B00221A8000F038F8BD
:1045A000054600F033F80C4B1C600C4B1D600C4BA7
:1045B000188007E00B4B03600B4B0B600B4B1C6828
:1045C000002CE8D138BD00BFE0220020E42200200A
:1045D000E8220020EC2200209030012098300120B9
:1045E00094300120F081020898810208CC820208F0
:1045F000044B1B6853F82100034B1B6803EB40007E
:10460000704700BFE8220020E422002016207047F7
:1046100000487047F022002010B5FFF7C7FE074C96
:104620002060FFF7FDFE6060FFF786FEA060FFF7E9
:1046300011FEE060FFF746FE206110BDF022002071
:10464000704710B54FF4AC7104461BF0E8FD2046EE
:1046500010BD10B50446D0F8540100F0D6F820463D
:10466000BDE810400BF016B910B50446FDF794FCF8
:10467000014B2360204610BD102E020870470438FD
:104680007047704710B5102104461BF0C8FD204646
:1046900010BDA0F10400F5E710B500228260044AC5
:1046A000C16002F1080420320460426010BD00BF06
:1046B0004C2E020870477047FEF725B910B54FF42D
:1046C000BA7104461BF0ABFD204610BD10B5044680
:1046D000FEF700FA014B2360204610BD7C2E020835
:1046E0007047FEF7E8BA10B5B42104461BF097FDF9
:1046F000204610BD10B50446FEF7F6FA014B2360C4
:10470000204610BDB02E020870470438704770472D
:1047100010B5102104461BF082FD204610BDA0F10B
:104720000400F5E710B500228260044AC16002F17E
:10473000080420320460426010BD00BF342F02081C
:104740007047704710B50446FEF791FBE36B9B681A
:1047500041F24C121968A1505A6841F25013E250CC
:1047600010BD10B541F25C1104461BF058FD204607
:1047700010BDF8B541F258130446C35C33B341F29F
:10478000481741F24C15C359013BC35141F2501631
:104790004359825941F25411013B013A415CDBB269
:1047A000D2B200F5037006F0B8FCE1593C2291FB4F
:1047B000F2F302FB13134BB96359013B05BF62517E
:1047C000A359635103F1FF3308BFA351F8BD0000A3
:1047D00010B50446FEF7BEFB084B236041F24C12B5
:1047E0000023A35041F250122046A35041F254122C
:1047F000A35041F258130122E25410BD642F020865
:104800000022C0E900228260704770477047043878
:104810007047704710B5102104461BF000FD20467C
:1048200010BDA0F10400F5E710B500228260044A33
:10483000C16002F1080420320460426010BD00BF74
:10484000902F02087047704790F80C3283F00103F4
:1048500080F80C32704738B5044604F19805FEF72D
:1048600002FD284606F0A2FCC4F80002284606F025
:10487000B6FCC4F80402284606F0B4FCC4F80802EA
:1048800038BD0023C0E98033C0F808321A46194603
:10489000983006F042BC10B54FF4047104461BF08A
:1048A000BEFC204610BD90F80C3263B3D0F8FC215A
:1048B0003C210132C0F8FC2192FBF1F301FB1322F1
:1048C0000ABBD0F8083201333B2BC0F8083208DDB0
:1048D000D0E9803101313B29C0F808220ADCC0F858
:1048E000041290F8083290F8042290F800129830E0
:1048F00006F013BC0133172BC8BF1346C0F80422BF
:10490000C0F80032EDE7704710B50446FEF7F4FC3E
:10491000034B2360002384F80C32204610BD00BFF7
:10492000C02F02087047FEF708BE10B5B421044638
:104930001BF075FC204610BD10B50446FEF706FEC0
:10494000014B2360204610BDFC2F02087047FEF784
:10495000BCBE10B5B42104461BF061FC204610BD5E
:1049600010B50446FEF7BAFE014B2360204610BD89
:10497000883002087047FEF770BF10B5B4210446B6
:104980001BF04DFC204610BD10B50446FEF76EFF2F
:10499000014B2360204610BD1431020870470438D3
:1049A0007047704710B5102104461BF038FC2046B4
:1049B00010BDA0F10400F5E710B500228260044AA2
:1049C000C16002F1080420320460426010BD00BFE3
:1049D000983102087047C36BD0F8982E9B685A60D4
:1049E000D0F89C2E1A607047FFF79FB90A23104633
:1049F000A0311A460DF0E4BD38B5144605460A2329
:104A00001A46A03120460DF0DBFDC5F8984E38BDA2
:104A10000A231046A0311A460DF0D2BD38B514460F
:104A200005460A231A46A03120460DF0C9FDC5F8F7
:104A30009C4E38BD10B5034B03600446FFF772F877
:104A4000204610BDC831020810B50446FFF7F2FF3A
:104A500020464FF46A611BF0E2FB204610BD0000C7
:104A600010B50446FFF7E6F9014B2360204610BD60
:104A7000C8310208F02070474FF4A0707047292019
:104A8000FCF7EEBD2820FCF7EBBD08B5FCF7BCFD3C
:104A9000CA20FCF7E5FDC320FCF7C6FD0820FCF7A3
:104AA000C3FD5020FCF7C0FDCF20FCF7D9FD00204E
:104AB000FCF7BAFDC120FCF7B7FD3020FCF7B4FDD0
:104AC000ED20FCF7CDFD6420FCF7AEFD0320FCF7E4
:104AD000ABFD1220FCF7A8FD8120FCF7A5FDE82026
:104AE000FCF7BEFD8520FCF79FFD0020FCF79CFD38
:104AF0007820FCF799FDCB20FCF7B2FD3920FCF7BC
:104B000093FD2C20FCF790FD0020FCF78DFD342058
:104B1000FCF78AFD0220FCF787FDF720FCF7A0FDDB
:104B20002020FCF781FDEA20FCF79AFD0020FCF72D
:104B30007BFD0020FCF778FDB120FCF791FD002003
:104B4000FCF772FD1B20FCF76FFDB620FCF788FD1B
:104B50000A20FCF769FDA220FCF766FDC020FCF7E7
:104B60007FFD1020FCF760FDC120FCF779FD1020CF
:104B7000FCF75AFDC520FCF773FD4520FCF754FDFA
:104B80001520FCF751FDC720FCF76AFD9020FCF7CB
:104B90004BFD3620FCF764FDC820FCF745FDF220F4
:104BA000FCF75EFD0020FCF73FFDB020FCF758FD50
:104BB000C220FCF739FDB620FCF752FD0A20FCF7B5
:104BC00033FDA720FCF730FD2720FCF72DFD042046
:104BD000FCF72AFD2A20FCF743FD0020FCF724FD0A
:104BE0000020FCF721FD0020FCF71EFDEF20FCF764
:104BF0001BFD2B20FCF734FD0020FCF715FD0020E9
:104C0000FCF712FD0120FCF70FFD3F20FCF70CFD27
:104C1000F620FCF725FD0120FCF706FD0020FCF73F
:104C200003FD0620FCF700FD2C20FCF719FDC82031
:104C3000FCF764FD2620FCF713FD0120FCF7F4FCD3
:104C4000E020FCF70DFD0F20FCF7EEFC2920FCF71F
:104C5000EBFC2420FCF7E8FC0C20FCF7E5FC0E2024
:104C6000FCF7E2FC0920FCF7DFFC4E20FCF7DCFC43
:104C70007820FCF7D9FC3C20FCF7D6FC0920FCF797
:104C8000D3FC1320FCF7D0FC0520FCF7CDFC17204B
:104C9000FCF7CAFC1120FCF7C7FC0020FCF7C4FCA1
:104CA000E120FCF7DDFC0020FCF7BEFC1620FCF741
:104CB000BBFC1B20FCF7B8FC0420FCF7B5FC112062
:104CC000FCF7B2FC0720FCF7AFFC3120FCF7ACFC92
:104CD0003320FCF7A9FC4220FCF7A6FC0520FCF7DA
:104CE000A3FC0C20FCF7A0FC0A20FCF79DFC28206C
:104CF000FCF79AFC2F20FCF797FC0F20FCF794FCA4
:104D00001120FCF7ADFCC820FCF7F8FC2920FCF7CB
:104D1000A7FCBDE808402C20FCF7A2BC08B5FCF7B6
:104D200073FC0321D320FCF7B7FC80B208BD10B59B
:104D3000C4B2022203212046FCF71CFC0A20FCF727
:104D400061FC204600220321FCF714FCBDE8104062
:104D50000220FCF757BC38B50446E4B2FCF708FC67
:104D600000212046FCF71EFC012105462046FCF7E9
:104D700019FC40EA052080B238BD10B5C4B240210C
:104D80002046FCF70FFC030607D54C212046FCF714
:104D900009FC003818BF012010BD01224B2120461C
:104DA000FCF7E8FB204600224B21FCF7E3FB002048
:104DB000F2E773B50423C4B20E461546D7210DEBB6
:104DC00003022046FCF708FC019B1BBA1A0DC3F333
:104DD0000B23328020462B8001224B21FCF7CAFB9B
:104DE00000224B212046FCF7C5FB02B070BD00003D
:104DF00010B50A4B1A78904204460DD05978884273
:104E00000AD00AB141B901229C54FCF7B1FB2046FB
:104E1000BDE81040FFF78BBF10BD00BF042300208A
:104E200010B5C4B209212046FCF7BCFB40F00100DC
:104E3000C2B209212046BDE81040FCF79BBB10B56B
:104E4000C4B209212046FCF7ADFB092100F0FE02A7
:104E50002046BDE81040FCF78DBB38B5C4B20D4606
:104E600020460A21FCF79EFB40EA0502D2B220460A
:104E70000A21BDE83840FCF77DBB07B50190FCF77F
:104E800078FB01981F21FFF7E8FF019803B05DF858
:104E900004EBFFF7C5BF38B5C4B20D4620460A2162
:104EA000FCF780FB20EA0502D2B220460A21BDE8C9
:104EB0003840FCF75FBB10B50446FFF7C0FF204643
:104EC0001F21BDE81040FFF7E6BF10B5C0B20C4689
:104ED0000B21FCF767FB204010BD1F21FFF7F5BF3A
:104EE0000A46C0B20B21FCF745BB1F21FFF7F8BFF4
:104EF00038B5C4B20D4620461721FCF753FB20EA13
:104F00000502D2B220461721BDE83840FCF732BB7B
:104F100070B5C4B2064604212046FCF743FB0421C9
:104F200000F0FB0205462046FCF724FB3046F0214A
:104F3000FFF7DEFF05F0F80220460421FCF71AFB1C
:104F4000492220212046FCF715FB0220FCF75AFBE2
:104F5000204601222121FCF70DFB20469A22412107
:104F6000FCF708FB204601224A21FCF703FB204600
:104F700001224B21FCF7FEFA204600224B21FCF7D0
:104F8000F9FA204601225621FCF7F4FA20460122C4
:104F90005821FCF7EFFA204601224021FCF7EAFAFB
:104FA0002046FF220B21FCF7E5FABDE87040022005
:104FB000FCF728BB054BD3F8882042F47002C3F8F5
:104FC00088204FF000629A60704700BF00ED00E05B
:104FD00008B50B4B1A6842F400721A601A6842F462
:104FE00080621A601A6842F480721A60032000F02E
:104FF0002FF80020FCF7C0FDFCF78CFB002008BD5B
:10500000003C0240034A044B11681B780B441360B8
:10501000704700BFF034012078000020014B186871
:10502000704700BFF034012038B50446FFF7F6FFA3
:10503000631C1CBF054B1B78054618BFE418FFF71F
:10504000EDFF431BA342FAD338BD00BF7800002018
:105050000749CA6822F4E0620302120403F4E06321
:10506000120C134343F0BF6343F40033CB6070472B
:1050700000ED00E0164B30B5DC68C4F30224C4F147
:105080000705231D042D28BF0425062B4FF0FF33F1
:105090008CBF033C002403FA05F521EA0501A34077
:1050A00022EA0302A140002841EA0203ACBF00F15A
:1050B0006040084A4FEA0313B8BF00F00F00DBB2AC
:1050C000AABF00F56140135480F8003330BD00BF23
:1050D00000ED00E014ED00E0002808DB42090123A8
:1050E00000F01F0003FA00F0014B43F82200704764
:1050F00000E100E000280DDB4309012200F01F0061
:1051000002FA00F02033044A42F82300BFF34F8F25
:10511000BFF36F8F704700BF00E100E010B5044699
:1051200050B1437903F0FF0213B90271FCF712FB8F
:1051300001236371002010BD0120FCE770B50468F5
:10514000049D666C45EA034306F0404633436364BE
:105150004368E263B3F5403F30D186681EB1012E4B
:1051600003D121F07F41A16370BD022E01F47F03C2
:1051700001F47F45C8B207D1DB0CAD0ADB0243EA7C
:10518000451343EAD001EEE7032E01F07F420AD136
:10519000DB0CED0A9B0243EA451343EAD003D10F2F
:1051A00043EAC131DFE7190D2D0B090241EA051170
:1051B00041EA1011130F41EA0331D4E7E160D3E76C
:1051C00010B5044630B390F8393003F0FF021BB934
:1051D00080F83820FCF7D6FA22686168022384F848
:1051E0003930136823F440330B431360536BA168C9
:1051F00023F007030B435363136CE16823F47F53DD
:1052000023F03F030B43136400200123E06384F881
:10521000393010BD0120FCE773B590F83850012DEE
:1052200004464FF0020513D080F839500126069D40
:1052300080F838600095FFF781FF23681A6842F410
:105240000C521A601A6832431A60002002B070BD16
:105250002846FBE773B516461A4690F83830012BFE
:1052600004464FF0020517D0012380F83830036858
:1052700080F839505E61079B0093069BFFF75EFF45
:1052800023681A6842F40C521A601A6842F001024C
:105290001A60002002B070BD2846FBE7026838B5EE
:1052A000136823F0050343F0040313600446FFF77B
:1052B000B5FE05462268136813F0010309D1116891
:1052C00021F40C511160012284F8392084F838301F
:1052D0000FE0FFF7A3FE401BB0F57A7FEAD9E36B3E
:1052E00043F02003E3630022032384F8393084F879
:1052F0003820184638BD70B505682A6842F00402A7
:105300002A600129044614BF24351C35FFF786FEA8
:1053100006462B6813F020030AD121680A6822F49C
:1053200064520A60012284F8392084F838300FE092
:10533000FFF774FE801BB0F57A7FEAD9E36B43F088
:105340002003E3630022032384F8393084F83820F3
:10535000184670BD38B5054608B9012038BD164B52
:105360001B6B190213D42B6800243F221C602846B3
:105370009A601C619C61DC615C625C63FCF724FAEE
:10538000EC6385F8384085F839402046E6E7036845
:10539000196811F0010104D0FFF780FF0028E2D066
:1053A000DBE75A6A920602D5FFF7A5FFF6E7DB694D
:1053B0009B06D8D50121F7E70038024070477047B7
:1053C000036870B55E681D68F207044614D5E905E8
:1053D00012D51A6822F480721A60C26B42F0010280
:1053E000C26301229A60042380F83930002380F8D8
:1053F0003830436903B19847B20616D5AB0414D5CB
:1054000023681A6822F400521A6020229A60E36B23
:1054100043F00203E363042384F83930002384F863
:10542000383063690BB120469847300716D52905F7
:1054300014D523681A6822F400621A6008229A6060
:10544000E36B43F00403E363042384F8393000235F
:1054500084F8383063690BB12046984772070BD542
:105460006B0509D523681A6822F480621A60042249
:105470009A602046FFF7A2FFB00714D5A90512D500
:1054800023681A6822F400721A6002229A60E36BA1
:10549000E363012384F83930002384F8383023692A
:1054A0000BB120469847F20613D5EB0411D52368BB
:1054B0001A6822F480521A6010229A60E36BE36348
:1054C000012384F83930002384F838302046FFF770
:1054D00076FF70BDF0B590F83830012B4FF0020325
:1054E0002BD0012280F8393080F8382000EB0113EE
:1054F000D3E907425D6A184F44EA0242093C012C95
:105500009CBF05F07F431A434FEA0116036888BF2A
:1055100042EA056299B9596A39400A435A62012C34
:1055200082699A6103D8426A22F07F429A6201231B
:1055300080F83930002380F838301846F0BDD9693A
:1055400039400A43DA618219012C92691A619CBFC1
:1055500025F07F451D62EAE7F0FFFC002DE9F74FDB
:10556000DFF8C4816E4ADFF8C49100230D6801247E
:105570009C4004EA0506AC4340F0B8804C6824F037
:10558000100C4FEA430E03250CF1FF3705FA0EF518
:10559000012F6FEA050511D8876807EA050ACF6869
:1055A00007FA0EF747EA0A078760476827EA060AFC
:1055B000C4F300179F4047EA0A074760C76807EA35
:1055C000050A8F6807FA0EF747EA0A07BCF1020FCF
:1055D000C76016D14FEAD30A00EB8A0A03F0070B23
:1055E000DAF820704FEA8B0B4FF00F0C0CFA0BFC23
:1055F00027EA0C0C0F6907FA0BF747EA0C07CAF801
:10560000207007683D4004F0030707FA0EFE4EEADB
:1056100005050560E50069D54FF0000BCDF804B035
:10562000D8F844703F4D47F48047C8F84470D8F824
:10563000447007F480470197019F23F0030707F1A7
:10564000804707F59C3703F0030ED7F808A04FEA10
:105650008E0E4FF00F0C0CFA0EFCA8422AEA0C0C2E
:105660004BD005F58065A84249D005F58065A84274
:1056700047D005F58065A84245D005F58065A8426C
:1056800043D0484543D005F50065A84241D005F513
:105690008065A8423FD005F58065A8423DD005F55C
:1056A0008065A8420CBF09250A2505FA0EF545EAD2
:1056B0000C05BD601568F74314F4803F0CBF3D40F6
:1056C00035431560556814F4003F0CBF3D40354329
:1056D0005560956814F4801F0CBF3D4035439560BC
:1056E000D568A40254BF3D403543D5600133102B2B
:1056F0007FF43CAF03B0BDE8F08F5D46D5E70125F0
:10570000D3E70225D1E70325CFE70425CDE705251B
:10571000CBE70625C9E70725C7E70825C5E700BF8A
:10572000003C0140000002400038024000140240EA
:105730000AB1816170470904FBE701684B6913F402
:1057400080634FF0000210D06FF480634B61202320
:10575000026380F83D3080F83E20036C80F83C20E6
:1057600043F00403036401207047184670472DE995
:10577000F04104460F46164698462568686927EAB0
:10578000000080B2B8B16B695A0516D52B6843F496
:1057900000732B606FF480636B612022002323630E
:1057A00084F83D2084F83E30226C42F004022264EA
:1057B00084F83C300120BDE8F081731CDED0FFF797
:1057C0002DFCA0EB0800B04201D8002ED5D100235B
:1057D0002022236384F83D2084F83E30226C42F07E
:1057E0002002E4E770B504460D46164623685B695F
:1057F0005B0701D5002070BD2046FFF79EFFA8B9CA
:105800006A1CF3D0FFF70AFC801BA84201D8002DC8
:10581000ECD100232022236384F83D2084F83E301D
:10582000226C84F83C3042F0200222640120E2E73E
:1058300070B504460D46164621684B6913F04003C7
:1058400001D0002010E04A69D2060ED56FF0100298
:105850004A612022236384F83D2084F83E30226C84
:10586000226484F83C30012070BDFFF7D7FB801B19
:10587000A84201D8002DDFD100232022236384F821
:105880003D2084F83E30226C42F02002E8E72DE90A
:10589000F84606460F4691461D464FEA114A3368C0
:1058A000BAF1010F0CBF5C699C6927EA0404A4B239
:1058B000B4FA84F46409A14501D0002017E06A1C01
:1058C000EED0FFF7ABFB089BC01AA84201D8002D11
:1058D000E5D100232022336386F83D2086F83E3050
:1058E000326C86F83C3042F0200232640120BDE880
:1058F000F88670B504460D46164623685B691B069C
:1059000001D5002070BD2046FFF717FFA8B96A1C1B
:10591000F3D0FFF783FB801BA84201D8002DECD108
:1059200000232022236384F83D2084F83E30226C3B
:1059300084F83C3042F0200222640120E2E70000BB
:105940002DE9F0431546026885B0DDE90C789946EB
:10595000136843F4807313600E463B46CDF8008015
:1059600000224FF001110446FFF791FF236838B180
:105970001B68DB0502D54FF40073236403200AE0A3
:1059800006F0FE061E61194943463A462046FFF7D7
:10599000EEFE18B1012005B0BDE8F0832368039046
:1059A0005A6903929B690393424639462046039BFA
:1059B000FFF79FFF40B1236C042B01BF22681368DF
:1059C00043F400731360E5E7B9F1010F236802D1D6
:1059D000EDB21D61DFE72A0A1A61394642462046C8
:1059E000FFF787FF0028E6D12368F1E702000100F6
:1059F0002DE9FF479A46036815461A6842F480620B
:105A00001A601A68DDE90C7842F480721A600E465A
:105A10003B46CDF8008000224FF001110446FFF70D
:105A200036FF236848B11B68DB0502D54FF40073CD
:105A30002364032004B0BDE8F0875FFA86F906F01E
:105A4000FE061E612A4943463A462046FFF78FFE6E
:105A500008B10120EEE7236803905A6903929B691D
:105A60000393424639462046039BFFF742FF40B16D
:105A7000236C042B01BF2268136843F40073136086
:105A8000E7E7BAF1010F23681AD1EDB21D61424672
:105A900039462046FFF72DFF0028E9D12268136818
:105AA00043F4807313604FF001110246CDF800807B
:105AB0003B462046FFF7EBFE226860B11368B3E770
:105AC0002A0A1A61394642462046FFF712FF00288B
:105AD000CED12368D9E749F0010313610449434655
